{
  "contractName": "blockchainBNB",
  "abi": [
    {
      "inputs": [
        {
          "internalType": "address",
          "name": "",
          "type": "address"
        },
        {
          "internalType": "uint256",
          "name": "",
          "type": "uint256"
        }
      ],
      "name": "properties",
      "outputs": [
        {
          "internalType": "address",
          "name": "owner",
          "type": "address"
        },
        {
          "internalType": "uint256",
          "name": "id",
          "type": "uint256"
        },
        {
          "internalType": "uint256",
          "name": "perNight",
          "type": "uint256"
        },
        {
          "internalType": "bool",
          "name": "available",
          "type": "bool"
        },
        {
          "internalType": "bool",
          "name": "payInFull",
          "type": "bool"
        },
        {
          "internalType": "uint256",
          "name": "securityDeposit",
          "type": "uint256"
        }
      ],
      "stateMutability": "view",
      "type": "function"
    },
    {
      "inputs": [
        {
          "internalType": "address",
          "name": "",
          "type": "address"
        },
        {
          "internalType": "uint256",
          "name": "",
          "type": "uint256"
        }
      ],
      "name": "rentals",
      "outputs": [
        {
          "internalType": "address",
          "name": "owner",
          "type": "address"
        },
        {
          "internalType": "uint256",
          "name": "id",
          "type": "uint256"
        },
        {
          "internalType": "address",
          "name": "renter",
          "type": "address"
        },
        {
          "internalType": "uint256",
          "name": "t1",
          "type": "uint256"
        },
        {
          "internalType": "uint256",
          "name": "t2",
          "type": "uint256"
        }
      ],
      "stateMutability": "view",
      "type": "function"
    },
    {
      "inputs": [
        {
          "internalType": "address",
          "name": "",
          "type": "address"
        },
        {
          "internalType": "uint256",
          "name": "",
          "type": "uint256"
        }
      ],
      "name": "securityDeposits",
      "outputs": [
        {
          "internalType": "address",
          "name": "owner",
          "type": "address"
        },
        {
          "internalType": "uint256",
          "name": "id",
          "type": "uint256"
        },
        {
          "internalType": "address",
          "name": "renter",
          "type": "address"
        },
        {
          "internalType": "uint256",
          "name": "amount",
          "type": "uint256"
        },
        {
          "internalType": "uint256",
          "name": "timestamp",
          "type": "uint256"
        },
        {
          "internalType": "bool",
          "name": "dispute",
          "type": "bool"
        }
      ],
      "stateMutability": "view",
      "type": "function"
    },
    {
      "inputs": [
        {
          "internalType": "uint256",
          "name": "perNight",
          "type": "uint256"
        },
        {
          "internalType": "bool",
          "name": "payInFull",
          "type": "bool"
        },
        {
          "internalType": "uint256",
          "name": "SD",
          "type": "uint256"
        }
      ],
      "name": "listProperty",
      "outputs": [],
      "stateMutability": "nonpayable",
      "type": "function"
    },
    {
      "inputs": [
        {
          "internalType": "address payable",
          "name": "owner",
          "type": "address"
        },
        {
          "internalType": "uint256",
          "name": "id",
          "type": "uint256"
        },
        {
          "internalType": "uint256",
          "name": "t1",
          "type": "uint256"
        },
        {
          "internalType": "uint256",
          "name": "t2",
          "type": "uint256"
        }
      ],
      "name": "rentProperty",
      "outputs": [],
      "stateMutability": "payable",
      "type": "function"
    },
    {
      "inputs": [
        {
          "internalType": "address",
          "name": "owner",
          "type": "address"
        },
        {
          "internalType": "uint256",
          "name": "newPrice",
          "type": "uint256"
        },
        {
          "internalType": "uint256",
          "name": "id",
          "type": "uint256"
        }
      ],
      "name": "updateRentalPrice",
      "outputs": [
        {
          "internalType": "uint256",
          "name": "",
          "type": "uint256"
        }
      ],
      "stateMutability": "nonpayable",
      "type": "function"
    },
    {
      "inputs": [
        {
          "internalType": "address",
          "name": "owner",
          "type": "address"
        },
        {
          "internalType": "uint256",
          "name": "id",
          "type": "uint256"
        },
        {
          "internalType": "bool",
          "name": "dispute",
          "type": "bool"
        }
      ],
      "name": "fileDispute",
      "outputs": [],
      "stateMutability": "nonpayable",
      "type": "function"
    },
    {
      "inputs": [
        {
          "internalType": "address",
          "name": "owner",
          "type": "address"
        },
        {
          "internalType": "uint256",
          "name": "id",
          "type": "uint256"
        },
        {
          "internalType": "address payable",
          "name": "user",
          "type": "address"
        }
      ],
      "name": "releaseDeposit",
      "outputs": [],
      "stateMutability": "nonpayable",
      "type": "function"
    },
    {
      "inputs": [],
      "name": "Time_call",
      "outputs": [
        {
          "internalType": "uint256",
          "name": "",
          "type": "uint256"
        }
      ],
      "stateMutability": "view",
      "type": "function"
    }
  ],
  "bytecode": "0x608060405234801561001057600080fd5b50611eb3806100206000396000f3fe6080604052600436106100865760003560e01c80633c0281d6116100595780633c0281d614610155578063a8d659bb1461017e578063de36ce8c146101a7578063f12fdc4e146101e4578063f40d06021461022657610086565b8063032610301461008b578063090fc58b146100b657806314bfcdd7146100f75780633b88fa2114610139575b600080fd5b34801561009757600080fd5b506100a061024f565b6040516100ad91906116f7565b60405180910390f35b3480156100c257600080fd5b506100dd60048036038101906100d891906117a1565b610257565b6040516100ee9594939291906117f0565b60405180910390f35b34801561010357600080fd5b5061011e600480360381019061011991906117a1565b6102da565b6040516101309695949392919061185e565b60405180910390f35b610153600480360381019061014e91906118fd565b61035d565b005b34801561016157600080fd5b5061017c60048036038101906101779190611964565b610dac565b005b34801561018a57600080fd5b506101a560048036038101906101a091906119e3565b6110f2565b005b3480156101b357600080fd5b506101ce60048036038101906101c99190611a36565b611420565b6040516101db91906116f7565b60405180910390f35b3480156101f057600080fd5b5061020b600480360381019061020691906117a1565b61152d565b60405161021d96959493929190611a89565b60405180910390f35b34801561023257600080fd5b5061024d60048036038101906102489190611aea565b6115c3565b005b600042905090565b6001602052816000526040600020602052806000526040600020600091509150508060000160009054906101000a900473ffffffffffffffffffffffffffffffffffffffff16908060010154908060020160009054906101000a900473ffffffffffffffffffffffffffffffffffffffff16908060030154908060040154905085565b6000602052816000526040600020602052806000526040600020600091509150508060000160009054906101000a900473ffffffffffffffffffffffffffffffffffffffff16908060010154908060020154908060030160009054906101000a900460ff16908060030160019054906101000a900460ff16908060040154905086565b6001600260008673ffffffffffffffffffffffffffffffffffffffff1673ffffffffffffffffffffffffffffffffffffffff168152602001908152602001600020805490506103ac9190611b6c565b8311156103ee576040517f08c379a00000000000000000000000000000000000000000000000000000000081526004016103e590611bfd565b60405180910390fd5b81816103fa9190611b6c565b600b8190555062015180600b54111561041257600080fd5b60005b6000808673ffffffffffffffffffffffffffffffffffffffff1673ffffffffffffffffffffffffffffffffffffffff168152602001908152602001600020600085815260200190815260200160002060050180549050811015610592576000808673ffffffffffffffffffffffffffffffffffffffff1673ffffffffffffffffffffffffffffffffffffffff168152602001908152602001600020600085815260200190815260200160002060050181815481106104d6576104d5611c1d565b5b90600052602060002001546009819055506000808673ffffffffffffffffffffffffffffffffffffffff1673ffffffffffffffffffffffffffffffffffffffff1681526020019081526020016000206000858152602001908152602001600020600601818154811061054b5761054a611c1d565b5b9060005260206000200154600a819055506001151583600a5411158061057357508260095410155b15151461057f57600080fd5b808061058a90611c4c565b915050610415565b506004543410156105a257600080fd5b6000808573ffffffffffffffffffffffffffffffffffffffff1673ffffffffffffffffffffffffffffffffffffffff1681526020019081526020016000206000848152602001908152602001600020600401546006819055506000808573ffffffffffffffffffffffffffffffffffffffff1673ffffffffffffffffffffffffffffffffffffffff168152602001908152602001600020600084815260200190815260200160002060040154620151806000808773ffffffffffffffffffffffffffffffffffffffff1673ffffffffffffffffffffffffffffffffffffffff168152602001908152602001600020600086815260200190815260200160002060020154600b546106b29190611c95565b6106bc9190611d1e565b6106c69190611d4f565b600481905550620151806000808673ffffffffffffffffffffffffffffffffffffffff1673ffffffffffffffffffffffffffffffffffffffff168152602001908152602001600020600085815260200190815260200160002060020154600b546107309190611c95565b61073a9190611d1e565b600581905550600260003373ffffffffffffffffffffffffffffffffffffffff1673ffffffffffffffffffffffffffffffffffffffff1681526020019081526020016000208054905060088190555083600160003373ffffffffffffffffffffffffffffffffffffffff1673ffffffffffffffffffffffffffffffffffffffff1681526020019081526020016000206000600854815260200190815260200160002060000160006101000a81548173ffffffffffffffffffffffffffffffffffffffff021916908373ffffffffffffffffffffffffffffffffffffffff16021790555082600160003373ffffffffffffffffffffffffffffffffffffffff1673ffffffffffffffffffffffffffffffffffffffff168152602001908152602001600020600060085481526020019081526020016000206001018190555033600160003373ffffffffffffffffffffffffffffffffffffffff1673ffffffffffffffffffffffffffffffffffffffff1681526020019081526020016000206000600854815260200190815260200160002060020160006101000a81548173ffffffffffffffffffffffffffffffffffffffff021916908373ffffffffffffffffffffffffffffffffffffffff16021790555081600160003373ffffffffffffffffffffffffffffffffffffffff1673ffffffffffffffffffffffffffffffffffffffff168152602001908152602001600020600060085481526020019081526020016000206003018190555080600160003373ffffffffffffffffffffffffffffffffffffffff1673ffffffffffffffffffffffffffffffffffffffff16815260200190815260200160002060006008548152602001908152602001600020600401819055506000808573ffffffffffffffffffffffffffffffffffffffff1673ffffffffffffffffffffffffffffffffffffffff16815260200190815260200160002060008481526020019081526020016000206005018290806001815401808255809150506001900390600052602060002001600090919091909150556000808573ffffffffffffffffffffffffffffffffffffffff1673ffffffffffffffffffffffffffffffffffffffff168152602001908152602001600020600084815260200190815260200160002060060181908060018154018082558091505060019003906000526020600020016000909190919091505583600360008673ffffffffffffffffffffffffffffffffffffffff1673ffffffffffffffffffffffffffffffffffffffff168152602001908152602001600020600085815260200190815260200160002060000160006101000a81548173ffffffffffffffffffffffffffffffffffffffff021916908373ffffffffffffffffffffffffffffffffffffffff16021790555082600360008673ffffffffffffffffffffffffffffffffffffffff1673ffffffffffffffffffffffffffffffffffffffff16815260200190815260200160002060008581526020019081526020016000206001018190555033600360008673ffffffffffffffffffffffffffffffffffffffff1673ffffffffffffffffffffffffffffffffffffffff168152602001908152602001600020600085815260200190815260200160002060020160006101000a81548173ffffffffffffffffffffffffffffffffffffffff021916908373ffffffffffffffffffffffffffffffffffffffff160217905550600654600360008673ffffffffffffffffffffffffffffffffffffffff1673ffffffffffffffffffffffffffffffffffffffff16815260200190815260200160002060008581526020019081526020016000206003016000828254610c929190611d4f565b925050819055506000600360008673ffffffffffffffffffffffffffffffffffffffff1673ffffffffffffffffffffffffffffffffffffffff168152602001908152602001600020600085815260200190815260200160002060050160006101000a81548160ff02191690831515021790555042600360008673ffffffffffffffffffffffffffffffffffffffff1673ffffffffffffffffffffffffffffffffffffffff1681526020019081526020016000206000858152602001908152602001600020600401819055508373ffffffffffffffffffffffffffffffffffffffff166108fc6005549081150290604051600060405180830381858888f19350505050158015610da5573d6000803e3d6000fd5b5050505050565b600360008473ffffffffffffffffffffffffffffffffffffffff1673ffffffffffffffffffffffffffffffffffffffff168152602001908152602001600020600083815260200190815260200160002060000160009054906101000a900473ffffffffffffffffffffffffffffffffffffffff1673ffffffffffffffffffffffffffffffffffffffff163373ffffffffffffffffffffffffffffffffffffffff161480610ef75750600360008473ffffffffffffffffffffffffffffffffffffffff1673ffffffffffffffffffffffffffffffffffffffff168152602001908152602001600020600083815260200190815260200160002060020160009054906101000a900473ffffffffffffffffffffffffffffffffffffffff1673ffffffffffffffffffffffffffffffffffffffff163373ffffffffffffffffffffffffffffffffffffffff16145b610f0057600080fd5b4262093a80600360008673ffffffffffffffffffffffffffffffffffffffff1673ffffffffffffffffffffffffffffffffffffffff168152602001908152602001600020600085815260200190815260200160002060040154610f639190611d4f565b10610fa3576040517f08c379a0000000000000000000000000000000000000000000000000000000008152600401610f9a90611df1565b60405180910390fd5b60001515600360008573ffffffffffffffffffffffffffffffffffffffff1673ffffffffffffffffffffffffffffffffffffffff168152602001908152602001600020600084815260200190815260200160002060050160009054906101000a900460ff1615151461104a576040517f08c379a000000000000000000000000000000000000000000000000000000000815260040161104190611e5d565b60405180910390fd5b600360008473ffffffffffffffffffffffffffffffffffffffff1673ffffffffffffffffffffffffffffffffffffffff168152602001908152602001600020600083815260200190815260200160002060030154600d819055508073ffffffffffffffffffffffffffffffffffffffff166108fc600d549081150290604051600060405180830381858888f193505050501580156110ec573d6000803e3d6000fd5b50505050565b600260003373ffffffffffffffffffffffffffffffffffffffff1673ffffffffffffffffffffffffffffffffffffffff16815260200190815260200160002080549050600881905550336000803373ffffffffffffffffffffffffffffffffffffffff1673ffffffffffffffffffffffffffffffffffffffff1681526020019081526020016000206000600854815260200190815260200160002060000160006101000a81548173ffffffffffffffffffffffffffffffffffffffff021916908373ffffffffffffffffffffffffffffffffffffffff1602179055506008546000803373ffffffffffffffffffffffffffffffffffffffff1673ffffffffffffffffffffffffffffffffffffffff1681526020019081526020016000206000600854815260200190815260200160002060010181905550826000803373ffffffffffffffffffffffffffffffffffffffff1673ffffffffffffffffffffffffffffffffffffffff168152602001908152602001600020600060085481526020019081526020016000206002018190555060016000803373ffffffffffffffffffffffffffffffffffffffff1673ffffffffffffffffffffffffffffffffffffffff1681526020019081526020016000206000600854815260200190815260200160002060030160006101000a81548160ff021916908315150217905550816000803373ffffffffffffffffffffffffffffffffffffffff1673ffffffffffffffffffffffffffffffffffffffff1681526020019081526020016000206000600854815260200190815260200160002060030160016101000a81548160ff021916908315150217905550806000803373ffffffffffffffffffffffffffffffffffffffff1673ffffffffffffffffffffffffffffffffffffffff1681526020019081526020016000206000600854815260200190815260200160002060040181905550600260003373ffffffffffffffffffffffffffffffffffffffff1673ffffffffffffffffffffffffffffffffffffffff16815260200190815260200160002060019080600181540180825580915050600190039060005260206000200160009091909190915055505050565b60008060008573ffffffffffffffffffffffffffffffffffffffff1673ffffffffffffffffffffffffffffffffffffffff168152602001908152602001600020600083815260200190815260200160002060000160009054906101000a900473ffffffffffffffffffffffffffffffffffffffff1673ffffffffffffffffffffffffffffffffffffffff163373ffffffffffffffffffffffffffffffffffffffff16146114cc57600080fd5b826000803373ffffffffffffffffffffffffffffffffffffffff1673ffffffffffffffffffffffffffffffffffffffff1681526020019081526020016000206000848152602001908152602001600020600201819055508290509392505050565b6003602052816000526040600020602052806000526040600020600091509150508060000160009054906101000a900473ffffffffffffffffffffffffffffffffffffffff16908060010154908060020160009054906101000a900473ffffffffffffffffffffffffffffffffffffffff16908060030154908060040154908060050160009054906101000a900460ff16905086565b600360008473ffffffffffffffffffffffffffffffffffffffff1673ffffffffffffffffffffffffffffffffffffffff168152602001908152602001600020600083815260200190815260200160002060000160009054906101000a900473ffffffffffffffffffffffffffffffffffffffff1673ffffffffffffffffffffffffffffffffffffffff163373ffffffffffffffffffffffffffffffffffffffff161461166e57600080fd5b80600360003373ffffffffffffffffffffffffffffffffffffffff1673ffffffffffffffffffffffffffffffffffffffff168152602001908152602001600020600084815260200190815260200160002060050160006101000a81548160ff021916908315150217905550505050565b6000819050919050565b6116f1816116de565b82525050565b600060208201905061170c60008301846116e8565b92915050565b600080fd5b600073ffffffffffffffffffffffffffffffffffffffff82169050919050565b600061174282611717565b9050919050565b61175281611737565b811461175d57600080fd5b50565b60008135905061176f81611749565b92915050565b61177e816116de565b811461178957600080fd5b50565b60008135905061179b81611775565b92915050565b600080604083850312156117b8576117b7611712565b5b60006117c685828601611760565b92505060206117d78582860161178c565b9150509250929050565b6117ea81611737565b82525050565b600060a08201905061180560008301886117e1565b61181260208301876116e8565b61181f60408301866117e1565b61182c60608301856116e8565b61183960808301846116e8565b9695505050505050565b60008115159050919050565b61185881611843565b82525050565b600060c08201905061187360008301896117e1565b61188060208301886116e8565b61188d60408301876116e8565b61189a606083018661184f565b6118a7608083018561184f565b6118b460a08301846116e8565b979650505050505050565b60006118ca82611717565b9050919050565b6118da816118bf565b81146118e557600080fd5b50565b6000813590506118f7816118d1565b92915050565b6000806000806080858703121561191757611916611712565b5b6000611925878288016118e8565b94505060206119368782880161178c565b93505060406119478782880161178c565b92505060606119588782880161178c565b91505092959194509250565b60008060006060848603121561197d5761197c611712565b5b600061198b86828701611760565b935050602061199c8682870161178c565b92505060406119ad868287016118e8565b9150509250925092565b6119c081611843565b81146119cb57600080fd5b50565b6000813590506119dd816119b7565b92915050565b6000806000606084860312156119fc576119fb611712565b5b6000611a0a8682870161178c565b9350506020611a1b868287016119ce565b9250506040611a2c8682870161178c565b9150509250925092565b600080600060608486031215611a4f57611a4e611712565b5b6000611a5d86828701611760565b9350506020611a6e8682870161178c565b9250506040611a7f8682870161178c565b9150509250925092565b600060c082019050611a9e60008301896117e1565b611aab60208301886116e8565b611ab860408301876117e1565b611ac560608301866116e8565b611ad260808301856116e8565b611adf60a083018461184f565b979650505050505050565b600080600060608486031215611b0357611b02611712565b5b6000611b1186828701611760565b9350506020611b228682870161178c565b9250506040611b33868287016119ce565b9150509250925092565b7f4e487b7100000000000000000000000000000000000000000000000000000000600052601160045260246000fd5b6000611b77826116de565b9150611b82836116de565b925082821015611b9557611b94611b3d565b5b828203905092915050565b600082825260208201905092915050565b7f4944206e6f7420666f756e640000000000000000000000000000000000000000600082015250565b6000611be7600c83611ba0565b9150611bf282611bb1565b602082019050919050565b60006020820190508181036000830152611c1681611bda565b9050919050565b7f4e487b7100000000000000000000000000000000000000000000000000000000600052603260045260246000fd5b6000611c57826116de565b91507fffffffffffffffffffffffffffffffffffffffffffffffffffffffffffffffff821415611c8a57611c89611b3d565b5b600182019050919050565b6000611ca0826116de565b9150611cab836116de565b9250817fffffffffffffffffffffffffffffffffffffffffffffffffffffffffffffffff0483118215151615611ce457611ce3611b3d565b5b828202905092915050565b7f4e487b7100000000000000000000000000000000000000000000000000000000600052601260045260246000fd5b6000611d29826116de565b9150611d34836116de565b925082611d4457611d43611cef565b5b828204905092915050565b6000611d5a826116de565b9150611d65836116de565b9250827fffffffffffffffffffffffffffffffffffffffffffffffffffffffffffffffff03821115611d9a57611d99611b3d565b5b828201905092915050565b7f4465706f736974207374696c6c206f6e20686f6c640000000000000000000000600082015250565b6000611ddb601583611ba0565b9150611de682611da5565b602082019050919050565b60006020820190508181036000830152611e0a81611dce565b9050919050565b7f4f776e6572206861732066696c65642061206469737075746500000000000000600082015250565b6000611e47601983611ba0565b9150611e5282611e11565b602082019050919050565b60006020820190508181036000830152611e7681611e3a565b905091905056fea2646970667358221220dce801a6f5dd84fe07b3fe3c40c4185cc7629d1c256021ec85a0e3458a07342264736f6c634300080a0033",
  "immutableReferences": {},
  "source": "// SPDX-License-Identifier: MIT\npragma solidity >=0.7.0 <0.9.0;\n/// @title property listing and rental contract \ncontract blockchainBNB {\n    \n    struct property {\n\n        address owner;\n        uint id;\n\n        // price per night \n        uint perNight;\n        \n        // owner can pause new rentals \n        bool available;\n\n        // pay in full or 50% now 50% on arrival\n        // functionality not yet built in\n        bool payInFull;\n\n        // security Deposit \n        uint securityDeposit;\n\n        // array of all rentals \n        uint[] t1;\n        uint[] t2;\n\n    }\n\n    struct rental {\n        \n        address owner;\n        uint id;\n        \n        address renter;\n\n        // check in check out time of renter\n        uint t1;\n        uint t2;\n    \n    }\n\n    struct securityDep {\n\n        address owner;\n        uint id;\n\n        address renter;\n\n        // renter will be able to withdraw deposit after certain amount of time \n        uint amount;\n\n        // this will be used to release after x number of days \n        uint timestamp;\n\n        // default is false\n        bool dispute;\n\n    }\n\n\n    // property struct mapping \n    mapping(address => mapping (uint => property)) public properties;\n\n\n    // rental struct mapping \n    mapping(address => mapping (uint => rental)) public rentals;\n\n\n    // allows for multiple property listings per address @dev potentially can be optimized\n    mapping(address => uint[]) private listmapping;\n\n\n    // security deposit mapping \n    mapping(address => mapping (uint => securityDep)) public securityDeposits;\n\n\n    \n    \n    uint private fee;\n\n    uint private payment;\n\n    uint private securityDeposit;\n\n    // also used by releaseDeposit\n    address private renter;\n\n\n    // used by listProperty and rentProperty\n    uint private ID;\n    \n    function listProperty(uint perNight, bool payInFull, uint SD) public {\n        \n        ID = listmapping[msg.sender].length;\n        \n        properties[msg.sender][ID].owner = msg.sender;\n        properties[msg.sender][ID].id = ID;\n        \n        properties[msg.sender][ID].perNight = perNight;\n        \n        properties[msg.sender][ID].available = true;\n\n        properties[msg.sender][ID].payInFull = payInFull;\n        properties[msg.sender][ID].securityDeposit = SD;\n        \n        listmapping[msg.sender].push(1);\n\n    }\n\n\n\n    uint256 private start;\n    uint256 private end;\n\n    uint private duration;\n\n\n    // handle multiple rentals per renter \n    mapping (address => uint[]) private previousRentals;\n\n\n    function rentProperty(address payable owner, uint id, uint t1, uint t2) public payable {\n    \n        require(id <= (listmapping[owner].length - 1), \"ID not found\");\n\n\n        duration = (t2 - t1);\n        \n        // renters should be able to rent a property for a few hours if they wish\n        require(duration <= 86400);\n\n\n        \n        // for loop to check if rental dates overlap with other renters \n        for (uint i=0; i<properties[owner][id].t1.length; i++) {\n            \n            start = properties[owner][id].t1[i];\n            end = properties[owner][id].t2[i];\n        \n            require((end <= t1 || start >= t2) == true);\n\n        }\n\n        require (msg.value >= fee);\n\n        // currently will not work if duration is < 86400 seconds \n        \n\n\n\n        securityDeposit = properties[owner][id].securityDeposit;\n\n        fee = (duration * properties[owner][id].perNight) / 86400 + properties[owner][id].securityDeposit;\n\n        payment = (duration * properties[owner][id].perNight) / 86400;\n\n\n\n        // push to rental struct \n        // rental struct is mapped to renter address not owner address \n\n\n        // renter cannot currently have multiple rentals....\n\n        // create array of rentals of address.... \n        // map renter address to array \n        // check length of that array ++ \n\n        ID = listmapping[msg.sender].length;\n\n        rentals[msg.sender][ID].owner = owner;\n        rentals[msg.sender][ID].id = id;\n        \n        rentals[msg.sender][ID].renter = msg.sender;\n\n        rentals[msg.sender][ID].t1 = t1;\n        rentals[msg.sender][ID].t2 = t2;\n\n\n        // push check in and check out to properties struct \n        \n        properties[owner][id].t1.push(t1);\n        properties[owner][id].t2.push(t2);\n\n\n        // security Deposit struct \n\n        securityDeposits[owner][id].owner = owner;\n\n        securityDeposits[owner][id].id = id;\n        securityDeposits[owner][id].renter = msg.sender;\n\n        securityDeposits[owner][id].amount += securityDeposit;\n\n        securityDeposits[owner][id].dispute = false;\n\n        securityDeposits[owner][id].timestamp = block.timestamp;\n\n        owner.transfer(payment);\n        \n    }\n\n\n\n    // update price per night \n    function updateRentalPrice(address owner, uint newPrice, uint id) public returns (uint) { \n        \n        require (msg.sender == properties[owner][id].owner);\n\n        // properties[owner].available = false; \n\n        properties[msg.sender][id].perNight = newPrice;\n\n        return newPrice;\n\n    }\n\n\n    // in future members of DAO can vote to resolve dispute \n    function fileDispute(address owner, uint id, bool dispute) public {\n\n        require(msg.sender == securityDeposits[owner][id].owner);\n\n        securityDeposits[msg.sender][id].dispute = dispute;\n\n    }\n    \n    \n    uint private amount;\n    \n    // user is renter\n    function releaseDeposit(address owner, uint id, address payable user) public {\n        \n        require(msg.sender == securityDeposits[owner][id].owner || msg.sender == securityDeposits[owner][id].renter);\n        \n        // release after a week \n        require(securityDeposits[owner][id].timestamp + 604800 < block.timestamp, \"Deposit still on hold\");\n        require(securityDeposits[owner][id].dispute == false, \"Owner has filed a dispute\");\n   \n        amount = securityDeposits[owner][id].amount;\n        \n        user.transfer(amount);\n        \n        \n    }\n\n\n     function Time_call() public view returns (uint256){\n        return block.timestamp; \n    }\n    \n\n}\n",
  "sourcePath": "/home/ubuntu/Desktop/dev/blockchainBnB/contracts/blockchainBNB.sol",
  "compiler": {
    "name": "solc",
    "version": "0.8.10+commit.fc410830.Emscripten.clang"
  },
  "schemaVersion": "3.4.3",
  "updatedAt": "2021-11-17T11:32:43.818Z",
  "devdoc": {
    "kind": "dev",
    "methods": {},
    "title": "property listing and rental contract ",
    "version": 1
  },
  "userdoc": {
    "kind": "user",
    "methods": {},
    "version": 1
  }
}