{
  "contractName": "blockchainBNB",
  "abi": [
    {
      "inputs": [
        {
          "internalType": "uint256",
          "name": "",
          "type": "uint256"
        }
      ],
      "name": "owners",
      "outputs": [
        {
          "internalType": "address",
          "name": "",
          "type": "address"
        }
      ],
      "stateMutability": "view",
      "type": "function"
    },
    {
      "inputs": [
        {
          "internalType": "address",
          "name": "",
          "type": "address"
        },
        {
          "internalType": "uint256",
          "name": "",
          "type": "uint256"
        }
      ],
      "name": "properties",
      "outputs": [
        {
          "internalType": "address",
          "name": "owner",
          "type": "address"
        },
        {
          "internalType": "uint256",
          "name": "id",
          "type": "uint256"
        },
        {
          "internalType": "uint256",
          "name": "perNight",
          "type": "uint256"
        },
        {
          "internalType": "bool",
          "name": "available",
          "type": "bool"
        },
        {
          "internalType": "bool",
          "name": "payInFull",
          "type": "bool"
        },
        {
          "internalType": "uint256",
          "name": "securityDeposit",
          "type": "uint256"
        }
      ],
      "stateMutability": "view",
      "type": "function"
    },
    {
      "inputs": [
        {
          "internalType": "uint256",
          "name": "perNight",
          "type": "uint256"
        },
        {
          "internalType": "bool",
          "name": "payInFull",
          "type": "bool"
        },
        {
          "internalType": "uint256",
          "name": "SD",
          "type": "uint256"
        }
      ],
      "name": "newMap",
      "outputs": [],
      "stateMutability": "nonpayable",
      "type": "function"
    },
    {
      "inputs": [
        {
          "internalType": "address payable",
          "name": "owner",
          "type": "address"
        },
        {
          "internalType": "uint256",
          "name": "id",
          "type": "uint256"
        },
        {
          "internalType": "uint256",
          "name": "nights",
          "type": "uint256"
        },
        {
          "internalType": "uint256",
          "name": "t1",
          "type": "uint256"
        },
        {
          "internalType": "uint256",
          "name": "t2",
          "type": "uint256"
        }
      ],
      "name": "rentProperty",
      "outputs": [],
      "stateMutability": "payable",
      "type": "function"
    },
    {
      "inputs": [
        {
          "internalType": "uint256",
          "name": "newPrice",
          "type": "uint256"
        },
        {
          "internalType": "uint256",
          "name": "id",
          "type": "uint256"
        }
      ],
      "name": "updateRentalPrice",
      "outputs": [
        {
          "internalType": "uint256",
          "name": "",
          "type": "uint256"
        }
      ],
      "stateMutability": "nonpayable",
      "type": "function"
    }
  ],
  "bytecode": "0x608060405234801561001057600080fd5b50611184806100206000396000f3fe60806040526004361061004a5760003560e01c8063025e7c271461004f57806314bfcdd71461008c5780637252f3ec146100ce57806390abcd98146100f7578063e25d2dc914610134575b600080fd5b34801561005b57600080fd5b5061007660048036038101906100719190610c33565b610150565b6040516100839190610ca1565b60405180910390f35b34801561009857600080fd5b506100b360048036038101906100ae9190610ce8565b61018f565b6040516100c596959493929190610d52565b60405180910390f35b3480156100da57600080fd5b506100f560048036038101906100f09190610ddf565b610212565b005b34801561010357600080fd5b5061011e60048036038101906101199190610e32565b6104d3565b60405161012b9190610e72565b60405180910390f35b61014e60048036038101906101499190610ecb565b6105df565b005b6004818154811061016057600080fd5b906000526020600020016000915054906101000a900473ffffffffffffffffffffffffffffffffffffffff1681565b6000602052816000526040600020602052806000526040600020600091509150508060000160009054906101000a900473ffffffffffffffffffffffffffffffffffffffff16908060010154908060020154908060030160009054906101000a900460ff16908060030160019054906101000a900460ff16908060040154905086565b600260003373ffffffffffffffffffffffffffffffffffffffff1673ffffffffffffffffffffffffffffffffffffffff16815260200190815260200160002080549050600981905550336000803373ffffffffffffffffffffffffffffffffffffffff1673ffffffffffffffffffffffffffffffffffffffff1681526020019081526020016000206000600954815260200190815260200160002060000160006101000a81548173ffffffffffffffffffffffffffffffffffffffff021916908373ffffffffffffffffffffffffffffffffffffffff1602179055506009546000803373ffffffffffffffffffffffffffffffffffffffff1673ffffffffffffffffffffffffffffffffffffffff1681526020019081526020016000206000600954815260200190815260200160002060010181905550826000803373ffffffffffffffffffffffffffffffffffffffff1673ffffffffffffffffffffffffffffffffffffffff1681526020019081526020016000206000600954815260200190815260200160002060020181905550816000803373ffffffffffffffffffffffffffffffffffffffff1673ffffffffffffffffffffffffffffffffffffffff1681526020019081526020016000206000600954815260200190815260200160002060030160016101000a81548160ff021916908315150217905550806000803373ffffffffffffffffffffffffffffffffffffffff1673ffffffffffffffffffffffffffffffffffffffff1681526020019081526020016000206000600954815260200190815260200160002060040181905550600260003373ffffffffffffffffffffffffffffffffffffffff1673ffffffffffffffffffffffffffffffffffffffff16815260200190815260200160002060019080600181540180825580915050600190039060005260206000200160009091909190915055505050565b60008060003373ffffffffffffffffffffffffffffffffffffffff1673ffffffffffffffffffffffffffffffffffffffff168152602001908152602001600020600083815260200190815260200160002060000160009054906101000a900473ffffffffffffffffffffffffffffffffffffffff1673ffffffffffffffffffffffffffffffffffffffff163373ffffffffffffffffffffffffffffffffffffffff161461057f57600080fd5b826000803373ffffffffffffffffffffffffffffffffffffffff1673ffffffffffffffffffffffffffffffffffffffff16815260200190815260200160002060008481526020019081526020016000206002018190555082905092915050565b6001600260008773ffffffffffffffffffffffffffffffffffffffff1673ffffffffffffffffffffffffffffffffffffffff1681526020019081526020016000208054905061062e9190610f75565b841115610670576040517f08c379a000000000000000000000000000000000000000000000000000000000815260040161066790611006565b60405180910390fd5b60005b600160008773ffffffffffffffffffffffffffffffffffffffff1673ffffffffffffffffffffffffffffffffffffffff1681526020019081526020016000206000868152602001908152602001600020600301805490508110156107f357600160008773ffffffffffffffffffffffffffffffffffffffff1673ffffffffffffffffffffffffffffffffffffffff1681526020019081526020016000206000868152602001908152602001600020600301818154811061073657610735611026565b5b9060005260206000200154600a81905550600160008773ffffffffffffffffffffffffffffffffffffffff1673ffffffffffffffffffffffffffffffffffffffff168152602001908152602001600020600086815260200190815260200160002060040181815481106107ac576107ab611026565b5b9060005260206000200154600b819055506001151583600b541115806107d4575082600a5410155b1515146107e057600080fd5b80806107eb90611055565b915050610673565b5060055434101561080357600080fd5b6000808673ffffffffffffffffffffffffffffffffffffffff1673ffffffffffffffffffffffffffffffffffffffff1681526020019081526020016000206000858152602001908152602001600020600401546000808773ffffffffffffffffffffffffffffffffffffffff1673ffffffffffffffffffffffffffffffffffffffff168152602001908152602001600020600086815260200190815260200160002060020154846108b4919061109e565b6108be91906110f8565b6005819055506000808673ffffffffffffffffffffffffffffffffffffffff1673ffffffffffffffffffffffffffffffffffffffff16815260200190815260200160002060008581526020019081526020016000206002015483610922919061109e565b6006819055506000808673ffffffffffffffffffffffffffffffffffffffff1673ffffffffffffffffffffffffffffffffffffffff16815260200190815260200160002060008581526020019081526020016000206004015460078190555084600160008773ffffffffffffffffffffffffffffffffffffffff1673ffffffffffffffffffffffffffffffffffffffff168152602001908152602001600020600086815260200190815260200160002060000160006101000a81548173ffffffffffffffffffffffffffffffffffffffff021916908373ffffffffffffffffffffffffffffffffffffffff16021790555083600160008773ffffffffffffffffffffffffffffffffffffffff1673ffffffffffffffffffffffffffffffffffffffff16815260200190815260200160002060008681526020019081526020016000206001018190555033600160008773ffffffffffffffffffffffffffffffffffffffff1673ffffffffffffffffffffffffffffffffffffffff168152602001908152602001600020600086815260200190815260200160002060020160006101000a81548173ffffffffffffffffffffffffffffffffffffffff021916908373ffffffffffffffffffffffffffffffffffffffff160217905550600160008673ffffffffffffffffffffffffffffffffffffffff1673ffffffffffffffffffffffffffffffffffffffff1681526020019081526020016000206000858152602001908152602001600020600301829080600181540180825580915050600190039060005260206000200160009091909190915055600160008673ffffffffffffffffffffffffffffffffffffffff1673ffffffffffffffffffffffffffffffffffffffff16815260200190815260200160002060008581526020019081526020016000206004018190806001815401808255809150506001900390600052602060002001600090919091909150555050505050565b600080fd5b6000819050919050565b610c1081610bfd565b8114610c1b57600080fd5b50565b600081359050610c2d81610c07565b92915050565b600060208284031215610c4957610c48610bf8565b5b6000610c5784828501610c1e565b91505092915050565b600073ffffffffffffffffffffffffffffffffffffffff82169050919050565b6000610c8b82610c60565b9050919050565b610c9b81610c80565b82525050565b6000602082019050610cb66000830184610c92565b92915050565b610cc581610c80565b8114610cd057600080fd5b50565b600081359050610ce281610cbc565b92915050565b60008060408385031215610cff57610cfe610bf8565b5b6000610d0d85828601610cd3565b9250506020610d1e85828601610c1e565b9150509250929050565b610d3181610bfd565b82525050565b60008115159050919050565b610d4c81610d37565b82525050565b600060c082019050610d676000830189610c92565b610d746020830188610d28565b610d816040830187610d28565b610d8e6060830186610d43565b610d9b6080830185610d43565b610da860a0830184610d28565b979650505050505050565b610dbc81610d37565b8114610dc757600080fd5b50565b600081359050610dd981610db3565b92915050565b600080600060608486031215610df857610df7610bf8565b5b6000610e0686828701610c1e565b9350506020610e1786828701610dca565b9250506040610e2886828701610c1e565b9150509250925092565b60008060408385031215610e4957610e48610bf8565b5b6000610e5785828601610c1e565b9250506020610e6885828601610c1e565b9150509250929050565b6000602082019050610e876000830184610d28565b92915050565b6000610e9882610c60565b9050919050565b610ea881610e8d565b8114610eb357600080fd5b50565b600081359050610ec581610e9f565b92915050565b600080600080600060a08688031215610ee757610ee6610bf8565b5b6000610ef588828901610eb6565b9550506020610f0688828901610c1e565b9450506040610f1788828901610c1e565b9350506060610f2888828901610c1e565b9250506080610f3988828901610c1e565b9150509295509295909350565b7f4e487b7100000000000000000000000000000000000000000000000000000000600052601160045260246000fd5b6000610f8082610bfd565b9150610f8b83610bfd565b925082821015610f9e57610f9d610f46565b5b828203905092915050565b600082825260208201905092915050565b7f4944206e6f7420666f756e640000000000000000000000000000000000000000600082015250565b6000610ff0600c83610fa9565b9150610ffb82610fba565b602082019050919050565b6000602082019050818103600083015261101f81610fe3565b9050919050565b7f4e487b7100000000000000000000000000000000000000000000000000000000600052603260045260246000fd5b600061106082610bfd565b91507fffffffffffffffffffffffffffffffffffffffffffffffffffffffffffffffff82141561109357611092610f46565b5b600182019050919050565b60006110a982610bfd565b91506110b483610bfd565b9250817fffffffffffffffffffffffffffffffffffffffffffffffffffffffffffffffff04831182151516156110ed576110ec610f46565b5b828202905092915050565b600061110382610bfd565b915061110e83610bfd565b9250827fffffffffffffffffffffffffffffffffffffffffffffffffffffffffffffffff0382111561114357611142610f46565b5b82820190509291505056fea26469706673582212201a6928a9c655896a2513a4db7389eee5398d5c5075747baa9c96f9d7edfcedc664736f6c634300080a0033",
  "immutableReferences": {},
  "source": "// SPDX-License-Identifier: MIT\npragma solidity >=0.7.0 <0.9.0;\n/// @title property listing and rental contract \ncontract blockchainBNB {\n    \n    struct property {\n\n        address owner;\n        uint id;\n\n        uint perNight;\n        \n        bool available;\n\n        // pay in full or 50% now 50% on arrival\n        bool payInFull;\n\n        uint securityDeposit;\n\n    }\n\n    struct rental {\n        \n        address owner;\n        uint id;\n        \n        address renter;\n\n        uint[] t1;\n        uint[] t2;\n    \n    }\n\n    struct securityDep {\n\n        address owner;\n        uint id;\n\n        address renter;\n\n        uint amount;\n\n    }\n\n\n    // property struct mapping \n    mapping(address => mapping (uint => property)) public properties;\n\n\n    // rental struct mapping \n    mapping(address => mapping (uint => rental)) private rentals;\n\n\n    // allows for multiple property listings per address @dev potentially can be optimized\n    mapping(address => uint[]) private listmapping;\n\n\n    // security deposit mapping \n    mapping(address => mapping (uint => securityDep)) private security;\n\n\n    \n    // this list of addresses is for future features - mainly if an owner wants to delete all of their listed properties \n    address[] public owners;\n    \n    uint private fee;\n\n    uint private payment;\n\n    uint private securityDeposit;\n\n    address private renter;\n\n\n    // need to use events instead...\n    bool private listed;\n    bool private rented;\n\n\n\n\n    uint private ID;\n    function newMap(uint perNight, bool payInFull, uint SD) public {\n        \n        ID = listmapping[msg.sender].length;\n        \n        properties[msg.sender][ID].owner = msg.sender;\n        properties[msg.sender][ID].id = ID;\n        \n        properties[msg.sender][ID].perNight = perNight;\n\n        properties[msg.sender][ID].payInFull = payInFull;\n        properties[msg.sender][ID].securityDeposit = SD;\n        \n        listmapping[msg.sender].push(1);\n\n    }\n\n\n\n\n    uint256 private start;\n    uint256 private end;\n\n    function rentProperty(address payable owner, uint id, uint nights, uint t1, uint t2) public payable {\n    \n        require(id <= (listmapping[owner].length - 1), \"ID not found\");\n        \n        // there may be a computationally more efficient way of doing this\n        for (uint i=0; i<rentals[owner][id].t1.length; i++) {\n            \n            start = rentals[owner][id].t1[i];\n            end = rentals[owner][id].t2[i];\n        \n            require((end <= t1 || start >= t2) == true);\n\n        }\n\n        require (msg.value >= fee);\n\n\n        fee = (nights * properties[owner][id].perNight) + properties[owner][id].securityDeposit;\n\n        payment = nights * properties[owner][id].perNight;\n\n        securityDeposit = properties[owner][id].securityDeposit;\n\n        \n        rentals[owner][id].owner = owner;\n        rentals[owner][id].id = id;\n        \n        rentals[owner][id].renter = msg.sender;\n        \n        rentals[owner][id].t1.push(t1);\n        rentals[owner][id].t2.push(t2);\n        \n    }\n\n\n\n\n    // update price per night \n    function updateRentalPrice(uint newPrice, uint id) public returns (uint) { \n        \n        require (msg.sender == properties[msg.sender][id].owner);\n\n        // properties[owner].available = false; \n\n        properties[msg.sender][id].perNight = newPrice;\n\n        return newPrice;\n\n    }\n\n}\n",
  "sourcePath": "/home/ubuntu/Desktop/dev/blockchainBnB/contracts/blockchainBNB.sol",
  "compiler": {
    "name": "solc",
    "version": "0.8.10+commit.fc410830.Emscripten.clang"
  },
  "schemaVersion": "3.4.3",
  "updatedAt": "2021-11-16T17:31:07.551Z",
  "devdoc": {
    "kind": "dev",
    "methods": {},
    "title": "property listing and rental contract ",
    "version": 1
  },
  "userdoc": {
    "kind": "user",
    "methods": {},
    "version": 1
  }
}