{
  "contractName": "blockchainBNB",
  "abi": [
    {
      "inputs": [
        {
          "internalType": "uint256",
          "name": "",
          "type": "uint256"
        }
      ],
      "name": "owners",
      "outputs": [
        {
          "internalType": "address",
          "name": "",
          "type": "address"
        }
      ],
      "stateMutability": "view",
      "type": "function"
    },
    {
      "inputs": [
        {
          "internalType": "address",
          "name": "",
          "type": "address"
        }
      ],
      "name": "properties",
      "outputs": [
        {
          "internalType": "uint256",
          "name": "perNight",
          "type": "uint256"
        },
        {
          "internalType": "address",
          "name": "owner",
          "type": "address"
        },
        {
          "internalType": "address",
          "name": "renter",
          "type": "address"
        },
        {
          "internalType": "bool",
          "name": "paid",
          "type": "bool"
        },
        {
          "internalType": "bool",
          "name": "available",
          "type": "bool"
        },
        {
          "internalType": "bool",
          "name": "payInFull",
          "type": "bool"
        },
        {
          "internalType": "uint256",
          "name": "securityDeposit",
          "type": "uint256"
        }
      ],
      "stateMutability": "view",
      "type": "function"
    },
    {
      "inputs": [
        {
          "internalType": "uint256",
          "name": "perNight",
          "type": "uint256"
        },
        {
          "internalType": "bool",
          "name": "payInFull",
          "type": "bool"
        },
        {
          "internalType": "uint256",
          "name": "SD",
          "type": "uint256"
        }
      ],
      "name": "listProperty",
      "outputs": [
        {
          "internalType": "bool",
          "name": "",
          "type": "bool"
        }
      ],
      "stateMutability": "nonpayable",
      "type": "function"
    },
    {
      "inputs": [
        {
          "internalType": "address payable",
          "name": "owner",
          "type": "address"
        },
        {
          "internalType": "uint256",
          "name": "nights",
          "type": "uint256"
        }
      ],
      "name": "rentProperty",
      "outputs": [
        {
          "internalType": "uint256",
          "name": "",
          "type": "uint256"
        },
        {
          "internalType": "bool",
          "name": "",
          "type": "bool"
        }
      ],
      "stateMutability": "payable",
      "type": "function"
    },
    {
      "inputs": [
        {
          "internalType": "uint256",
          "name": "newPrice",
          "type": "uint256"
        }
      ],
      "name": "updateRentalPrice",
      "outputs": [
        {
          "internalType": "uint256",
          "name": "",
          "type": "uint256"
        }
      ],
      "stateMutability": "nonpayable",
      "type": "function"
    }
  ],
  "bytecode": "0x608060405234801561001057600080fd5b50610e3f806100206000396000f3fe60806040526004361061004a5760003560e01c8063025e7c271461004f57806325ec77d71461008c5780636a77bca6146100cf578063751eaa0a1461010c578063a8d659bb1461013d575b600080fd5b34801561005b57600080fd5b5061007660048036038101906100719190610a53565b61017a565b6040516100839190610ac1565b60405180910390f35b34801561009857600080fd5b506100b360048036038101906100ae9190610b08565b6101b9565b6040516100c69796959493929190610b5f565b60405180910390f35b3480156100db57600080fd5b506100f660048036038101906100f19190610a53565b610262565b6040516101039190610bce565b60405180910390f35b61012660048036038101906101219190610c27565b61034b565b604051610134929190610c67565b60405180910390f35b34801561014957600080fd5b50610164600480360381019061015f9190610cbc565b610766565b6040516101719190610d0f565b60405180910390f35b6002818154811061018a57600080fd5b906000526020600020016000915054906101000a900473ffffffffffffffffffffffffffffffffffffffff1681565b60006020528060005260406000206000915090508060000154908060010160009054906101000a900473ffffffffffffffffffffffffffffffffffffffff16908060020160009054906101000a900473ffffffffffffffffffffffffffffffffffffffff16908060020160149054906101000a900460ff16908060020160159054906101000a900460ff16908060020160169054906101000a900460ff16908060030154905087565b60008060003373ffffffffffffffffffffffffffffffffffffffff1673ffffffffffffffffffffffffffffffffffffffff16815260200190815260200160002060010160009054906101000a900473ffffffffffffffffffffffffffffffffffffffff1673ffffffffffffffffffffffffffffffffffffffff163373ffffffffffffffffffffffffffffffffffffffff16146102fd57600080fd5b816000803373ffffffffffffffffffffffffffffffffffffffff1673ffffffffffffffffffffffffffffffffffffffff16815260200190815260200160002060000181905550819050919050565b60008033600660006101000a81548173ffffffffffffffffffffffffffffffffffffffff021916908373ffffffffffffffffffffffffffffffffffffffff1602179055506000808573ffffffffffffffffffffffffffffffffffffffff1673ffffffffffffffffffffffffffffffffffffffff168152602001908152602001600020600301546000808673ffffffffffffffffffffffffffffffffffffffff1673ffffffffffffffffffffffffffffffffffffffff168152602001908152602001600020600001548461041e9190610d59565b6104289190610db3565b6003819055506000808573ffffffffffffffffffffffffffffffffffffffff1673ffffffffffffffffffffffffffffffffffffffff168152602001908152602001600020600001548361047b9190610d59565b6004819055506000808573ffffffffffffffffffffffffffffffffffffffff1673ffffffffffffffffffffffffffffffffffffffff16815260200190815260200160002060030154600581905550600554600160008673ffffffffffffffffffffffffffffffffffffffff1673ffffffffffffffffffffffffffffffffffffffff168152602001908152602001600020600082825461051a9190610db3565b9250508190555060035434101561053057600080fd5b836000808673ffffffffffffffffffffffffffffffffffffffff1673ffffffffffffffffffffffffffffffffffffffff16815260200190815260200160002060010160006101000a81548173ffffffffffffffffffffffffffffffffffffffff021916908373ffffffffffffffffffffffffffffffffffffffff160217905550336000808673ffffffffffffffffffffffffffffffffffffffff1673ffffffffffffffffffffffffffffffffffffffff16815260200190815260200160002060020160006101000a81548173ffffffffffffffffffffffffffffffffffffffff021916908373ffffffffffffffffffffffffffffffffffffffff16021790555060016000808673ffffffffffffffffffffffffffffffffffffffff1673ffffffffffffffffffffffffffffffffffffffff16815260200190815260200160002060020160146101000a81548160ff02191690831515021790555060008060008673ffffffffffffffffffffffffffffffffffffffff1673ffffffffffffffffffffffffffffffffffffffff16815260200190815260200160002060020160156101000a81548160ff0219169083151502179055508373ffffffffffffffffffffffffffffffffffffffff166108fc6004549081150290604051600060405180830381858888f1935050505015801561072c573d6000803e3d6000fd5b506001600660156101000a81548160ff021916908315150217905550600354600660159054906101000a900460ff16915091509250929050565b60006002339080600181540180825580915050600190039060005260206000200160009091909190916101000a81548173ffffffffffffffffffffffffffffffffffffffff021916908373ffffffffffffffffffffffffffffffffffffffff160217905550836000803373ffffffffffffffffffffffffffffffffffffffff1673ffffffffffffffffffffffffffffffffffffffff16815260200190815260200160002060000181905550336000803373ffffffffffffffffffffffffffffffffffffffff1673ffffffffffffffffffffffffffffffffffffffff16815260200190815260200160002060010160006101000a81548173ffffffffffffffffffffffffffffffffffffffff021916908373ffffffffffffffffffffffffffffffffffffffff16021790555060008060003373ffffffffffffffffffffffffffffffffffffffff1673ffffffffffffffffffffffffffffffffffffffff16815260200190815260200160002060020160146101000a81548160ff02191690831515021790555060016000803373ffffffffffffffffffffffffffffffffffffffff1673ffffffffffffffffffffffffffffffffffffffff16815260200190815260200160002060020160156101000a81548160ff021916908315150217905550826000803373ffffffffffffffffffffffffffffffffffffffff1673ffffffffffffffffffffffffffffffffffffffff16815260200190815260200160002060020160166101000a81548160ff021916908315150217905550816000803373ffffffffffffffffffffffffffffffffffffffff1673ffffffffffffffffffffffffffffffffffffffff168152602001908152602001600020600301819055506001600660146101000a81548160ff021916908315150217905550600660149054906101000a900460ff1690509392505050565b600080fd5b6000819050919050565b610a3081610a1d565b8114610a3b57600080fd5b50565b600081359050610a4d81610a27565b92915050565b600060208284031215610a6957610a68610a18565b5b6000610a7784828501610a3e565b91505092915050565b600073ffffffffffffffffffffffffffffffffffffffff82169050919050565b6000610aab82610a80565b9050919050565b610abb81610aa0565b82525050565b6000602082019050610ad66000830184610ab2565b92915050565b610ae581610aa0565b8114610af057600080fd5b50565b600081359050610b0281610adc565b92915050565b600060208284031215610b1e57610b1d610a18565b5b6000610b2c84828501610af3565b91505092915050565b610b3e81610a1d565b82525050565b60008115159050919050565b610b5981610b44565b82525050565b600060e082019050610b74600083018a610b35565b610b816020830189610ab2565b610b8e6040830188610ab2565b610b9b6060830187610b50565b610ba86080830186610b50565b610bb560a0830185610b50565b610bc260c0830184610b35565b98975050505050505050565b6000602082019050610be36000830184610b35565b92915050565b6000610bf482610a80565b9050919050565b610c0481610be9565b8114610c0f57600080fd5b50565b600081359050610c2181610bfb565b92915050565b60008060408385031215610c3e57610c3d610a18565b5b6000610c4c85828601610c12565b9250506020610c5d85828601610a3e565b9150509250929050565b6000604082019050610c7c6000830185610b35565b610c896020830184610b50565b9392505050565b610c9981610b44565b8114610ca457600080fd5b50565b600081359050610cb681610c90565b92915050565b600080600060608486031215610cd557610cd4610a18565b5b6000610ce386828701610a3e565b9350506020610cf486828701610ca7565b9250506040610d0586828701610a3e565b9150509250925092565b6000602082019050610d246000830184610b50565b92915050565b7f4e487b7100000000000000000000000000000000000000000000000000000000600052601160045260246000fd5b6000610d6482610a1d565b9150610d6f83610a1d565b9250817fffffffffffffffffffffffffffffffffffffffffffffffffffffffffffffffff0483118215151615610da857610da7610d2a565b5b828202905092915050565b6000610dbe82610a1d565b9150610dc983610a1d565b9250827fffffffffffffffffffffffffffffffffffffffffffffffffffffffffffffffff03821115610dfe57610dfd610d2a565b5b82820190509291505056fea26469706673582212201f63f0648b0acd4403c0564a8800ea984035ad52f50b4f07fdf7a9d8c883d8fe64736f6c634300080a0033",
  "immutableReferences": {},
  "source": "// SPDX-License-Identifier: MIT\npragma solidity >=0.7.0 <0.9.0;\n/// @title property listing and rental contract \ncontract blockchainBNB {\n    \n    struct property {\n        \n        uint256 perNight;\n\n        address owner;\n        address renter;\n\n        bool paid;  // if true, that person already voted\n        \n        // will eventually be deleted \n        bool available;\n\n        // pay in full or 50% now 50% on arrival\n        bool payInFull;\n        uint256 securityDeposit;\n\n    }\n\n    // still trying to figure out how to have multiple properties per address...\n    struct locations {\n        uint256[] listofproperties;\n\n    }\n\n    struct OWNER_RATINGS {\n        address owner;\n        uint256 rating;\n        address[] renters;\n    }\n\n    struct RENTER_RATINGS {\n        address renter;\n        uint256 rating;\n    }\n\n\n    \n    mapping(address => property) public properties;\n\n\n    mapping(address=>uint256) security;\n\n    \n    // this list of addresses is for future features - mainly if an owner wants to delete all of their listed properties \n    address[] public owners;\n    \n    uint256 private fee;\n\n    uint256 private payment;\n\n    uint256 private securityDeposit;\n\n    address private renter;\n\n\n    // need to use events instead...\n\n    bool private listed;\n    bool private rented;\n\n\n    // rating functionality: \n\n    //mapping(address => OWNER_RATINGS) public ownerRatings;\n\n    //mapping(address => RENTER_RATINGS) public renterRatings;\n\n    //address[] private renters;\n\n\n\n    function listProperty(uint256 perNight, bool payInFull, uint256 SD) public returns (bool) {\n        \n        // add owner address to list owners\n        owners.push(msg.sender);\n        \n        // adding values to protery struct\n        properties[msg.sender].perNight = perNight;\n\n        // owner address\n        properties[msg.sender].owner = msg.sender;\n\n        // renter address at listing will be initially set to 0x00 address\n        \n        properties[msg.sender].paid = false;\n        \n        properties[msg.sender].available = true;\n\n\n        properties[msg.sender].payInFull = payInFull;\n\n        properties[msg.sender].securityDeposit = SD;\n\n        listed = true;\n\n        return listed;\n\n    }\n    \n    \n    function rentProperty(address payable owner, uint256 nights) public payable returns (uint256, bool) {\n        \n        renter = msg.sender;\n\n        // calculating fee by calling properties mapping\n        // @dev eventually needs to be calculated using block timestamp \n        fee = (nights * properties[owner].perNight) + properties[owner].securityDeposit;\n\n        payment = nights * properties[owner].perNight;\n\n        securityDeposit = properties[owner].securityDeposit;\n\n\n        // need to add time lock on deposit if there are no disputes \n        // security deposit can be == 0 \n        security[owner] += securityDeposit;\n\n\n        // require msg.value to be greater than or equal to price per night\n        require (msg.value >= fee);\n\n        // this is for future features \n        properties[owner].owner = owner;\n\n        properties[owner].renter = msg.sender;\n\n        properties[owner].paid = true;\n        \n        properties[owner].available = false;\n        \n        owner.transfer(payment);\n\n        rented = true;\n\n        return (fee, rented);\n        \n    }\n\n\n    // update price per night \n    function updateRentalPrice(uint256 newPrice) public returns (uint256) { \n        \n        require (msg.sender == properties[msg.sender].owner);\n\n        properties[msg.sender].perNight = newPrice;\n\n        return newPrice;\n\n    }\n\n}\n",
  "sourcePath": "/home/ubuntu/Desktop/dev/blockchainBnB/contracts/blockchainBNB.sol",
  "compiler": {
    "name": "solc",
    "version": "0.8.10+commit.fc410830.Emscripten.clang"
  },
  "schemaVersion": "3.4.3",
  "updatedAt": "2021-11-16T12:14:30.834Z",
  "devdoc": {
    "kind": "dev",
    "methods": {},
    "title": "property listing and rental contract ",
    "version": 1
  },
  "userdoc": {
    "kind": "user",
    "methods": {},
    "version": 1
  }
}