{
  "contractName": "blockchainBNB",
  "abi": [
    {
      "inputs": [
        {
          "internalType": "uint256",
          "name": "",
          "type": "uint256"
        }
      ],
      "name": "owners",
      "outputs": [
        {
          "internalType": "address",
          "name": "",
          "type": "address"
        }
      ],
      "stateMutability": "view",
      "type": "function"
    },
    {
      "inputs": [
        {
          "internalType": "address",
          "name": "",
          "type": "address"
        }
      ],
      "name": "properties",
      "outputs": [
        {
          "internalType": "uint256",
          "name": "perNight",
          "type": "uint256"
        },
        {
          "internalType": "address",
          "name": "owner",
          "type": "address"
        },
        {
          "internalType": "address",
          "name": "renter",
          "type": "address"
        },
        {
          "internalType": "bool",
          "name": "paid",
          "type": "bool"
        },
        {
          "internalType": "bool",
          "name": "available",
          "type": "bool"
        }
      ],
      "stateMutability": "view",
      "type": "function"
    },
    {
      "inputs": [
        {
          "internalType": "uint256",
          "name": "perNight",
          "type": "uint256"
        }
      ],
      "name": "listProperty",
      "outputs": [],
      "stateMutability": "nonpayable",
      "type": "function"
    },
    {
      "inputs": [
        {
          "internalType": "address payable",
          "name": "owner",
          "type": "address"
        },
        {
          "internalType": "uint256",
          "name": "nights",
          "type": "uint256"
        }
      ],
      "name": "rentProperty",
      "outputs": [
        {
          "internalType": "uint256",
          "name": "",
          "type": "uint256"
        }
      ],
      "stateMutability": "payable",
      "type": "function"
    }
  ],
  "bytecode": "0x608060405234801561001057600080fd5b506108e9806100206000396000f3fe60806040526004361061003f5760003560e01c8063025e7c271461004457806325ec77d714610081578063751eaa0a146100c2578063b6aee1cf146100f2575b600080fd5b34801561005057600080fd5b5061006b60048036038101906100669190610632565b61011b565b60405161007891906106a0565b60405180910390f35b34801561008d57600080fd5b506100a860048036038101906100a391906106e7565b61015a565b6040516100b995949392919061073e565b60405180910390f35b6100dc60048036038101906100d791906107cf565b6101ea565b6040516100e9919061080f565b60405180910390f35b3480156100fe57600080fd5b5061011960048036038101906101149190610632565b610417565b005b6001818154811061012b57600080fd5b906000526020600020016000915054906101000a900473ffffffffffffffffffffffffffffffffffffffff1681565b60006020528060005260406000206000915090508060000154908060010160009054906101000a900473ffffffffffffffffffffffffffffffffffffffff16908060020160009054906101000a900473ffffffffffffffffffffffffffffffffffffffff16908060020160149054906101000a900460ff16908060020160159054906101000a900460ff16905085565b600033600360006101000a81548173ffffffffffffffffffffffffffffffffffffffff021916908373ffffffffffffffffffffffffffffffffffffffff1602179055506000808473ffffffffffffffffffffffffffffffffffffffff1673ffffffffffffffffffffffffffffffffffffffff168152602001908152602001600020600001548261027a9190610859565b60028190555060025434101561028f57600080fd5b336000808573ffffffffffffffffffffffffffffffffffffffff1673ffffffffffffffffffffffffffffffffffffffff16815260200190815260200160002060020160006101000a81548173ffffffffffffffffffffffffffffffffffffffff021916908373ffffffffffffffffffffffffffffffffffffffff16021790555060016000808573ffffffffffffffffffffffffffffffffffffffff1673ffffffffffffffffffffffffffffffffffffffff16815260200190815260200160002060020160146101000a81548160ff02191690831515021790555060008060008573ffffffffffffffffffffffffffffffffffffffff1673ffffffffffffffffffffffffffffffffffffffff16815260200190815260200160002060020160156101000a81548160ff0219169083151502179055508273ffffffffffffffffffffffffffffffffffffffff166108fc6002549081150290604051600060405180830381858888f1935050505015801561040b573d6000803e3d6000fd5b50600254905092915050565b6001339080600181540180825580915050600190039060005260206000200160009091909190916101000a81548173ffffffffffffffffffffffffffffffffffffffff021916908373ffffffffffffffffffffffffffffffffffffffff160217905550806000803373ffffffffffffffffffffffffffffffffffffffff1673ffffffffffffffffffffffffffffffffffffffff16815260200190815260200160002060000181905550336000803373ffffffffffffffffffffffffffffffffffffffff1673ffffffffffffffffffffffffffffffffffffffff16815260200190815260200160002060010160006101000a81548173ffffffffffffffffffffffffffffffffffffffff021916908373ffffffffffffffffffffffffffffffffffffffff16021790555060008060003373ffffffffffffffffffffffffffffffffffffffff1673ffffffffffffffffffffffffffffffffffffffff16815260200190815260200160002060020160146101000a81548160ff02191690831515021790555060016000803373ffffffffffffffffffffffffffffffffffffffff1673ffffffffffffffffffffffffffffffffffffffff16815260200190815260200160002060020160156101000a81548160ff02191690831515021790555050565b600080fd5b6000819050919050565b61060f816105fc565b811461061a57600080fd5b50565b60008135905061062c81610606565b92915050565b600060208284031215610648576106476105f7565b5b60006106568482850161061d565b91505092915050565b600073ffffffffffffffffffffffffffffffffffffffff82169050919050565b600061068a8261065f565b9050919050565b61069a8161067f565b82525050565b60006020820190506106b56000830184610691565b92915050565b6106c48161067f565b81146106cf57600080fd5b50565b6000813590506106e1816106bb565b92915050565b6000602082840312156106fd576106fc6105f7565b5b600061070b848285016106d2565b91505092915050565b61071d816105fc565b82525050565b60008115159050919050565b61073881610723565b82525050565b600060a0820190506107536000830188610714565b6107606020830187610691565b61076d6040830186610691565b61077a606083018561072f565b610787608083018461072f565b9695505050505050565b600061079c8261065f565b9050919050565b6107ac81610791565b81146107b757600080fd5b50565b6000813590506107c9816107a3565b92915050565b600080604083850312156107e6576107e56105f7565b5b60006107f4858286016107ba565b92505060206108058582860161061d565b9150509250929050565b60006020820190506108246000830184610714565b92915050565b7f4e487b7100000000000000000000000000000000000000000000000000000000600052601160045260246000fd5b6000610864826105fc565b915061086f836105fc565b9250817fffffffffffffffffffffffffffffffffffffffffffffffffffffffffffffffff04831182151516156108a8576108a761082a565b5b82820290509291505056fea2646970667358221220b1d9cdeface4d4acb62146fdab9774429851e3f19e60b1546e2d95e8201a4aaf64736f6c634300080a0033",
  "immutableReferences": {},
  "source": "// SPDX-License-Identifier: MIT\npragma solidity >=0.7.0 <0.9.0;\n/// @title property listing and rental contract \ncontract blockchainBNB {\n    \n    struct property {\n        uint256 perNight;\n\n        address owner;\n        address renter;\n\n        bool paid;  // if true, that person already voted\n        bool available;\n\n    }\n\n\n    mapping(address => property) public properties;\n    \n    address[] public owners;\n    \n    uint256 private fee;\n      \n    address private renter;\n\n    \n    function listProperty(uint256 perNight) public {\n        \n        // add owner address to list owners\n        owners.push(msg.sender);\n        \n        // adding values to protery struct\n        properties[msg.sender].perNight = perNight;\n\n\n        // owner address\n        properties[msg.sender].owner = msg.sender;\n\n\n        \n        properties[msg.sender].paid = false;\n        \n        properties[msg.sender].available = true;\n\n    }\n    \n    \n    function rentProperty(address payable owner, uint256 nights) public payable returns (uint256) {\n        \n        renter = msg.sender;\n\n        // calculating fee by calling properties mapping\n        fee = nights * properties[owner].perNight;\n        \n        // require msg.value to be greater than or equal to price per night\n        require (msg.value >= fee);\n\n        properties[owner].renter = msg.sender;\n\n        \n        properties[owner].paid = true;\n        \n        properties[owner].available = false;\n        \n        owner.transfer(fee);\n        \n        return fee;\n        \n        \n    }\n    \n}\n",
  "sourcePath": "/home/ubuntu/Desktop/dev/blockchainBnB/contracts/blockchainBNB.sol",
  "compiler": {
    "name": "solc",
    "version": "0.8.10+commit.fc410830.Emscripten.clang"
  },
  "schemaVersion": "3.4.3",
  "updatedAt": "2021-11-15T08:39:15.346Z",
  "devdoc": {
    "kind": "dev",
    "methods": {},
    "title": "property listing and rental contract ",
    "version": 1
  },
  "userdoc": {
    "kind": "user",
    "methods": {},
    "version": 1
  }
}