{
  "contractName": "blockchainBNB",
  "abi": [
    {
      "inputs": [
        {
          "internalType": "address",
          "name": "",
          "type": "address"
        },
        {
          "internalType": "uint256",
          "name": "",
          "type": "uint256"
        }
      ],
      "name": "properties",
      "outputs": [
        {
          "internalType": "address",
          "name": "owner",
          "type": "address"
        },
        {
          "internalType": "uint256",
          "name": "id",
          "type": "uint256"
        },
        {
          "internalType": "uint256",
          "name": "perNight",
          "type": "uint256"
        },
        {
          "internalType": "bool",
          "name": "available",
          "type": "bool"
        },
        {
          "internalType": "bool",
          "name": "payInFull",
          "type": "bool"
        },
        {
          "internalType": "uint256",
          "name": "securityDeposit",
          "type": "uint256"
        }
      ],
      "stateMutability": "view",
      "type": "function"
    },
    {
      "inputs": [
        {
          "internalType": "address",
          "name": "",
          "type": "address"
        },
        {
          "internalType": "uint256",
          "name": "",
          "type": "uint256"
        }
      ],
      "name": "rentals",
      "outputs": [
        {
          "internalType": "address",
          "name": "owner",
          "type": "address"
        },
        {
          "internalType": "uint256",
          "name": "id",
          "type": "uint256"
        },
        {
          "internalType": "address",
          "name": "renter",
          "type": "address"
        },
        {
          "internalType": "uint256",
          "name": "t1",
          "type": "uint256"
        },
        {
          "internalType": "uint256",
          "name": "t2",
          "type": "uint256"
        }
      ],
      "stateMutability": "view",
      "type": "function"
    },
    {
      "inputs": [
        {
          "internalType": "address",
          "name": "",
          "type": "address"
        },
        {
          "internalType": "uint256",
          "name": "",
          "type": "uint256"
        }
      ],
      "name": "securityDeposits",
      "outputs": [
        {
          "internalType": "address",
          "name": "owner",
          "type": "address"
        },
        {
          "internalType": "uint256",
          "name": "id",
          "type": "uint256"
        },
        {
          "internalType": "address",
          "name": "renter",
          "type": "address"
        },
        {
          "internalType": "uint256",
          "name": "amount",
          "type": "uint256"
        },
        {
          "internalType": "uint256",
          "name": "timestamp",
          "type": "uint256"
        },
        {
          "internalType": "bool",
          "name": "dispute",
          "type": "bool"
        }
      ],
      "stateMutability": "view",
      "type": "function"
    },
    {
      "inputs": [
        {
          "internalType": "uint256",
          "name": "perNight",
          "type": "uint256"
        },
        {
          "internalType": "bool",
          "name": "payInFull",
          "type": "bool"
        },
        {
          "internalType": "uint256",
          "name": "securityDeposit",
          "type": "uint256"
        }
      ],
      "name": "listProperty",
      "outputs": [],
      "stateMutability": "nonpayable",
      "type": "function"
    },
    {
      "inputs": [
        {
          "internalType": "address payable",
          "name": "owner",
          "type": "address"
        },
        {
          "internalType": "uint256",
          "name": "id",
          "type": "uint256"
        },
        {
          "internalType": "uint256",
          "name": "t1",
          "type": "uint256"
        },
        {
          "internalType": "uint256",
          "name": "t2",
          "type": "uint256"
        }
      ],
      "name": "rentProperty",
      "outputs": [],
      "stateMutability": "payable",
      "type": "function"
    },
    {
      "inputs": [
        {
          "internalType": "uint256",
          "name": "newPrice",
          "type": "uint256"
        },
        {
          "internalType": "uint256",
          "name": "id",
          "type": "uint256"
        }
      ],
      "name": "updateRentalPrice",
      "outputs": [
        {
          "internalType": "uint256",
          "name": "",
          "type": "uint256"
        }
      ],
      "stateMutability": "nonpayable",
      "type": "function"
    },
    {
      "inputs": [
        {
          "internalType": "uint256",
          "name": "id",
          "type": "uint256"
        },
        {
          "internalType": "bool",
          "name": "available",
          "type": "bool"
        }
      ],
      "name": "propertyAvailability",
      "outputs": [],
      "stateMutability": "nonpayable",
      "type": "function"
    },
    {
      "inputs": [
        {
          "internalType": "address",
          "name": "owner",
          "type": "address"
        },
        {
          "internalType": "uint256",
          "name": "id",
          "type": "uint256"
        },
        {
          "internalType": "bool",
          "name": "dispute",
          "type": "bool"
        }
      ],
      "name": "fileDispute",
      "outputs": [],
      "stateMutability": "nonpayable",
      "type": "function"
    },
    {
      "inputs": [
        {
          "internalType": "address payable",
          "name": "renter",
          "type": "address"
        },
        {
          "internalType": "uint256",
          "name": "id",
          "type": "uint256"
        }
      ],
      "name": "releaseDeposit",
      "outputs": [],
      "stateMutability": "nonpayable",
      "type": "function"
    },
    {
      "inputs": [],
      "name": "Time_call",
      "outputs": [
        {
          "internalType": "uint256",
          "name": "",
          "type": "uint256"
        }
      ],
      "stateMutability": "view",
      "type": "function"
    }
  ],
  "bytecode": "0x608060405234801561001057600080fd5b50611eb3806100206000396000f3fe6080604052600436106100915760003560e01c80637e68757a116100595780637e68757a1461018957806390abcd98146101b2578063a8d659bb146101ef578063f12fdc4e14610218578063f40d06021461025a57610091565b80630326103014610096578063090fc58b146100c157806314bfcdd7146101025780633b88fa2114610144578063524dd05914610160575b600080fd5b3480156100a257600080fd5b506100ab610283565b6040516100b891906116dd565b60405180910390f35b3480156100cd57600080fd5b506100e860048036038101906100e39190611787565b61028b565b6040516100f99594939291906117d6565b60405180910390f35b34801561010e57600080fd5b5061012960048036038101906101249190611787565b61030e565b60405161013b96959493929190611844565b60405180910390f35b61015e600480360381019061015991906118e3565b610391565b005b34801561016c57600080fd5b506101876004803603810190610182919061194a565b610dd3565b005b34801561019557600080fd5b506101b060048036038101906101ab91906119b6565b611115565b005b3480156101be57600080fd5b506101d960048036038101906101d491906119f6565b611183565b6040516101e691906116dd565b60405180910390f35b3480156101fb57600080fd5b5061021660048036038101906102119190611a36565b6111e5565b005b34801561022457600080fd5b5061023f600480360381019061023a9190611787565b611513565b60405161025196959493929190611a89565b60405180910390f35b34801561026657600080fd5b50610281600480360381019061027c9190611aea565b6115a9565b005b600042905090565b6001602052816000526040600020602052806000526040600020600091509150508060000160009054906101000a900473ffffffffffffffffffffffffffffffffffffffff16908060010154908060020160009054906101000a900473ffffffffffffffffffffffffffffffffffffffff16908060030154908060040154905085565b6000602052816000526040600020602052806000526040600020600091509150508060000160009054906101000a900473ffffffffffffffffffffffffffffffffffffffff16908060010154908060020154908060030160009054906101000a900460ff16908060030160019054906101000a900460ff16908060040154905086565b6000806000806000806001600260008c73ffffffffffffffffffffffffffffffffffffffff1673ffffffffffffffffffffffffffffffffffffffff168152602001908152602001600020805490506103e99190611b6c565b89111561042b576040517f08c379a000000000000000000000000000000000000000000000000000000000815260040161042290611bfd565b60405180910390fd5b87876104379190611b6c565b93506201518084111561044957600080fd5b60005b6000808c73ffffffffffffffffffffffffffffffffffffffff1673ffffffffffffffffffffffffffffffffffffffff16815260200190815260200160002060008b8152602001908152602001600020600501805490508110156105bd576000808c73ffffffffffffffffffffffffffffffffffffffff1673ffffffffffffffffffffffffffffffffffffffff16815260200190815260200160002060008b8152602001908152602001600020600501818154811061050d5761050c611c1d565b5b906000526020600020015496506000808c73ffffffffffffffffffffffffffffffffffffffff1673ffffffffffffffffffffffffffffffffffffffff16815260200190815260200160002060008b8152602001908152602001600020600601818154811061057e5761057d611c1d565b5b9060005260206000200154955060011515898711158061059e5750888810155b1515146105aa57600080fd5b80806105b590611c4c565b91505061044c565b506000808b73ffffffffffffffffffffffffffffffffffffffff1673ffffffffffffffffffffffffffffffffffffffff16815260200190815260200160002060008a81526020019081526020016000206004015490506000808b73ffffffffffffffffffffffffffffffffffffffff1673ffffffffffffffffffffffffffffffffffffffff16815260200190815260200160002060008a815260200190815260200160002060040154620151806000808d73ffffffffffffffffffffffffffffffffffffffff1673ffffffffffffffffffffffffffffffffffffffff16815260200190815260200160002060008c815260200190815260200160002060020154866106c89190611c95565b6106d29190611d1e565b6106dc9190611d4f565b9250620151806000808c73ffffffffffffffffffffffffffffffffffffffff1673ffffffffffffffffffffffffffffffffffffffff16815260200190815260200160002060008b815260200190815260200160002060020154856107409190611c95565b61074a9190611d1e565b91508234101561075957600080fd5b600260003373ffffffffffffffffffffffffffffffffffffffff1673ffffffffffffffffffffffffffffffffffffffff1681526020019081526020016000208054905060048190555089600160003373ffffffffffffffffffffffffffffffffffffffff1673ffffffffffffffffffffffffffffffffffffffff1681526020019081526020016000206000600454815260200190815260200160002060000160006101000a81548173ffffffffffffffffffffffffffffffffffffffff021916908373ffffffffffffffffffffffffffffffffffffffff16021790555088600160003373ffffffffffffffffffffffffffffffffffffffff1673ffffffffffffffffffffffffffffffffffffffff168152602001908152602001600020600060045481526020019081526020016000206001018190555033600160003373ffffffffffffffffffffffffffffffffffffffff1673ffffffffffffffffffffffffffffffffffffffff1681526020019081526020016000206000600454815260200190815260200160002060020160006101000a81548173ffffffffffffffffffffffffffffffffffffffff021916908373ffffffffffffffffffffffffffffffffffffffff16021790555087600160003373ffffffffffffffffffffffffffffffffffffffff1673ffffffffffffffffffffffffffffffffffffffff168152602001908152602001600020600060045481526020019081526020016000206003018190555086600160003373ffffffffffffffffffffffffffffffffffffffff1673ffffffffffffffffffffffffffffffffffffffff16815260200190815260200160002060006004548152602001908152602001600020600401819055506000808b73ffffffffffffffffffffffffffffffffffffffff1673ffffffffffffffffffffffffffffffffffffffff16815260200190815260200160002060008a81526020019081526020016000206005018890806001815401808255809150506001900390600052602060002001600090919091909150556000808b73ffffffffffffffffffffffffffffffffffffffff1673ffffffffffffffffffffffffffffffffffffffff16815260200190815260200160002060008a815260200190815260200160002060060187908060018154018082558091505060019003906000526020600020016000909190919091505589600360003373ffffffffffffffffffffffffffffffffffffffff1673ffffffffffffffffffffffffffffffffffffffff1681526020019081526020016000206000600454815260200190815260200160002060000160006101000a81548173ffffffffffffffffffffffffffffffffffffffff021916908373ffffffffffffffffffffffffffffffffffffffff16021790555088600360003373ffffffffffffffffffffffffffffffffffffffff1673ffffffffffffffffffffffffffffffffffffffff168152602001908152602001600020600060045481526020019081526020016000206001018190555033600360003373ffffffffffffffffffffffffffffffffffffffff1673ffffffffffffffffffffffffffffffffffffffff1681526020019081526020016000206000600454815260200190815260200160002060020160006101000a81548173ffffffffffffffffffffffffffffffffffffffff021916908373ffffffffffffffffffffffffffffffffffffffff16021790555080600360003373ffffffffffffffffffffffffffffffffffffffff1673ffffffffffffffffffffffffffffffffffffffff168152602001908152602001600020600060045481526020019081526020016000206003016000828254610cb19190611d4f565b925050819055506000600360003373ffffffffffffffffffffffffffffffffffffffff1673ffffffffffffffffffffffffffffffffffffffff1681526020019081526020016000206000600454815260200190815260200160002060050160006101000a81548160ff02191690831515021790555042600360003373ffffffffffffffffffffffffffffffffffffffff1673ffffffffffffffffffffffffffffffffffffffff16815260200190815260200160002060006004548152602001908152602001600020600401819055508973ffffffffffffffffffffffffffffffffffffffff166108fc839081150290604051600060405180830381858888f19350505050158015610dc6573d6000803e3d6000fd5b5050505050505050505050565b6000600360008473ffffffffffffffffffffffffffffffffffffffff1673ffffffffffffffffffffffffffffffffffffffff168152602001908152602001600020600083815260200190815260200160002060000160009054906101000a900473ffffffffffffffffffffffffffffffffffffffff1673ffffffffffffffffffffffffffffffffffffffff163373ffffffffffffffffffffffffffffffffffffffff161480610f205750600360008473ffffffffffffffffffffffffffffffffffffffff1673ffffffffffffffffffffffffffffffffffffffff168152602001908152602001600020600083815260200190815260200160002060020160009054906101000a900473ffffffffffffffffffffffffffffffffffffffff1673ffffffffffffffffffffffffffffffffffffffff163373ffffffffffffffffffffffffffffffffffffffff16145b610f2957600080fd5b4262093a80600360008673ffffffffffffffffffffffffffffffffffffffff1673ffffffffffffffffffffffffffffffffffffffff168152602001908152602001600020600085815260200190815260200160002060040154610f8c9190611d4f565b10610fcc576040517f08c379a0000000000000000000000000000000000000000000000000000000008152600401610fc390611df1565b60405180910390fd5b60001515600360008573ffffffffffffffffffffffffffffffffffffffff1673ffffffffffffffffffffffffffffffffffffffff168152602001908152602001600020600084815260200190815260200160002060050160009054906101000a900460ff16151514611073576040517f08c379a000000000000000000000000000000000000000000000000000000000815260040161106a90611e5d565b60405180910390fd5b600360008473ffffffffffffffffffffffffffffffffffffffff1673ffffffffffffffffffffffffffffffffffffffff16815260200190815260200160002060008381526020019081526020016000206003015490508273ffffffffffffffffffffffffffffffffffffffff166108fc829081150290604051600060405180830381858888f1935050505015801561110f573d6000803e3d6000fd5b50505050565b806000803373ffffffffffffffffffffffffffffffffffffffff1673ffffffffffffffffffffffffffffffffffffffff168152602001908152602001600020600084815260200190815260200160002060030160006101000a81548160ff0219169083151502179055505050565b6000826000803373ffffffffffffffffffffffffffffffffffffffff1673ffffffffffffffffffffffffffffffffffffffff16815260200190815260200160002060008481526020019081526020016000206002018190555082905092915050565b600260003373ffffffffffffffffffffffffffffffffffffffff1673ffffffffffffffffffffffffffffffffffffffff16815260200190815260200160002080549050600481905550336000803373ffffffffffffffffffffffffffffffffffffffff1673ffffffffffffffffffffffffffffffffffffffff1681526020019081526020016000206000600454815260200190815260200160002060000160006101000a81548173ffffffffffffffffffffffffffffffffffffffff021916908373ffffffffffffffffffffffffffffffffffffffff1602179055506004546000803373ffffffffffffffffffffffffffffffffffffffff1673ffffffffffffffffffffffffffffffffffffffff1681526020019081526020016000206000600454815260200190815260200160002060010181905550826000803373ffffffffffffffffffffffffffffffffffffffff1673ffffffffffffffffffffffffffffffffffffffff168152602001908152602001600020600060045481526020019081526020016000206002018190555060016000803373ffffffffffffffffffffffffffffffffffffffff1673ffffffffffffffffffffffffffffffffffffffff1681526020019081526020016000206000600454815260200190815260200160002060030160006101000a81548160ff021916908315150217905550816000803373ffffffffffffffffffffffffffffffffffffffff1673ffffffffffffffffffffffffffffffffffffffff1681526020019081526020016000206000600454815260200190815260200160002060030160016101000a81548160ff021916908315150217905550806000803373ffffffffffffffffffffffffffffffffffffffff1673ffffffffffffffffffffffffffffffffffffffff1681526020019081526020016000206000600454815260200190815260200160002060040181905550600260003373ffffffffffffffffffffffffffffffffffffffff1673ffffffffffffffffffffffffffffffffffffffff16815260200190815260200160002060019080600181540180825580915050600190039060005260206000200160009091909190915055505050565b6003602052816000526040600020602052806000526040600020600091509150508060000160009054906101000a900473ffffffffffffffffffffffffffffffffffffffff16908060010154908060020160009054906101000a900473ffffffffffffffffffffffffffffffffffffffff16908060030154908060040154908060050160009054906101000a900460ff16905086565b600360008473ffffffffffffffffffffffffffffffffffffffff1673ffffffffffffffffffffffffffffffffffffffff168152602001908152602001600020600083815260200190815260200160002060000160009054906101000a900473ffffffffffffffffffffffffffffffffffffffff1673ffffffffffffffffffffffffffffffffffffffff163373ffffffffffffffffffffffffffffffffffffffff161461165457600080fd5b80600360003373ffffffffffffffffffffffffffffffffffffffff1673ffffffffffffffffffffffffffffffffffffffff168152602001908152602001600020600084815260200190815260200160002060050160006101000a81548160ff021916908315150217905550505050565b6000819050919050565b6116d7816116c4565b82525050565b60006020820190506116f260008301846116ce565b92915050565b600080fd5b600073ffffffffffffffffffffffffffffffffffffffff82169050919050565b6000611728826116fd565b9050919050565b6117388161171d565b811461174357600080fd5b50565b6000813590506117558161172f565b92915050565b611764816116c4565b811461176f57600080fd5b50565b6000813590506117818161175b565b92915050565b6000806040838503121561179e5761179d6116f8565b5b60006117ac85828601611746565b92505060206117bd85828601611772565b9150509250929050565b6117d08161171d565b82525050565b600060a0820190506117eb60008301886117c7565b6117f860208301876116ce565b61180560408301866117c7565b61181260608301856116ce565b61181f60808301846116ce565b9695505050505050565b60008115159050919050565b61183e81611829565b82525050565b600060c08201905061185960008301896117c7565b61186660208301886116ce565b61187360408301876116ce565b6118806060830186611835565b61188d6080830185611835565b61189a60a08301846116ce565b979650505050505050565b60006118b0826116fd565b9050919050565b6118c0816118a5565b81146118cb57600080fd5b50565b6000813590506118dd816118b7565b92915050565b600080600080608085870312156118fd576118fc6116f8565b5b600061190b878288016118ce565b945050602061191c87828801611772565b935050604061192d87828801611772565b925050606061193e87828801611772565b91505092959194509250565b60008060408385031215611961576119606116f8565b5b600061196f858286016118ce565b925050602061198085828601611772565b9150509250929050565b61199381611829565b811461199e57600080fd5b50565b6000813590506119b08161198a565b92915050565b600080604083850312156119cd576119cc6116f8565b5b60006119db85828601611772565b92505060206119ec858286016119a1565b9150509250929050565b60008060408385031215611a0d57611a0c6116f8565b5b6000611a1b85828601611772565b9250506020611a2c85828601611772565b9150509250929050565b600080600060608486031215611a4f57611a4e6116f8565b5b6000611a5d86828701611772565b9350506020611a6e868287016119a1565b9250506040611a7f86828701611772565b9150509250925092565b600060c082019050611a9e60008301896117c7565b611aab60208301886116ce565b611ab860408301876117c7565b611ac560608301866116ce565b611ad260808301856116ce565b611adf60a0830184611835565b979650505050505050565b600080600060608486031215611b0357611b026116f8565b5b6000611b1186828701611746565b9350506020611b2286828701611772565b9250506040611b33868287016119a1565b9150509250925092565b7f4e487b7100000000000000000000000000000000000000000000000000000000600052601160045260246000fd5b6000611b77826116c4565b9150611b82836116c4565b925082821015611b9557611b94611b3d565b5b828203905092915050565b600082825260208201905092915050565b7f4944206e6f7420666f756e640000000000000000000000000000000000000000600082015250565b6000611be7600c83611ba0565b9150611bf282611bb1565b602082019050919050565b60006020820190508181036000830152611c1681611bda565b9050919050565b7f4e487b7100000000000000000000000000000000000000000000000000000000600052603260045260246000fd5b6000611c57826116c4565b91507fffffffffffffffffffffffffffffffffffffffffffffffffffffffffffffffff821415611c8a57611c89611b3d565b5b600182019050919050565b6000611ca0826116c4565b9150611cab836116c4565b9250817fffffffffffffffffffffffffffffffffffffffffffffffffffffffffffffffff0483118215151615611ce457611ce3611b3d565b5b828202905092915050565b7f4e487b7100000000000000000000000000000000000000000000000000000000600052601260045260246000fd5b6000611d29826116c4565b9150611d34836116c4565b925082611d4457611d43611cef565b5b828204905092915050565b6000611d5a826116c4565b9150611d65836116c4565b9250827fffffffffffffffffffffffffffffffffffffffffffffffffffffffffffffffff03821115611d9a57611d99611b3d565b5b828201905092915050565b7f4465706f736974207374696c6c206f6e20686f6c640000000000000000000000600082015250565b6000611ddb601583611ba0565b9150611de682611da5565b602082019050919050565b60006020820190508181036000830152611e0a81611dce565b9050919050565b7f4f776e6572206861732066696c65642061206469737075746500000000000000600082015250565b6000611e47601983611ba0565b9150611e5282611e11565b602082019050919050565b60006020820190508181036000830152611e7681611e3a565b905091905056fea26469706673582212208205923feb33a149ddee2f27bd1b4d6715e079b880335aab1f72a02de047ddf064736f6c634300080a0033",
  "immutableReferences": {},
  "source": "// SPDX-License-Identifier: MIT\npragma solidity >=0.7.0 <0.9.0;\n/// @title property listing and rental contract \ncontract blockchainBNB {\n    \n    struct property {\n\n        address owner;\n        uint id;\n\n        // price per night \n        uint perNight;\n        \n        // owner can pause new rentals \n        bool available;\n\n        // pay in full or 50% now 50% on arrival\n        // functionality not yet built in\n        bool payInFull;\n\n        // security Deposit \n        uint securityDeposit;\n\n        // array of all rentals \n        uint[] t1;\n        uint[] t2;\n\n    }\n\n    struct rental {\n        \n        address owner;\n        uint id;\n        \n        address renter;\n\n        // check in check out time of renter\n        uint t1;\n        uint t2;\n    \n    }\n\n    struct securityDep {\n\n        address owner;\n        uint id;\n\n        address renter;\n\n        // renter will be able to withdraw deposit after certain amount of time \n        uint amount;\n\n        // this will be used to release after x number of days \n        uint timestamp;\n\n        // default is false\n        bool dispute;\n\n    }\n\n\n    // property struct mapping \n    mapping(address => mapping (uint => property)) public properties;\n\n\n    // rental struct mapping \n    mapping(address => mapping (uint => rental)) public rentals;\n\n\n    // allows for multiple property listings per address @dev potentially can be optimized\n    mapping(address => uint[]) private listmapping;\n\n\n    // security deposit mapping \n    mapping(address => mapping (uint => securityDep)) public securityDeposits;\n\n\n    \n    \n  \n\n    // also used by releaseDeposit\n    //address private renter;\n\n\n    // used by listProperty and rentProperty\n    uint private ID;\n    \n    function listProperty(uint perNight, bool payInFull, uint securityDeposit) public {\n        \n        ID = listmapping[msg.sender].length;\n        \n        properties[msg.sender][ID].owner = msg.sender;\n        properties[msg.sender][ID].id = ID;\n        \n        properties[msg.sender][ID].perNight = perNight;\n        \n        properties[msg.sender][ID].available = true;\n\n        properties[msg.sender][ID].payInFull = payInFull;\n        properties[msg.sender][ID].securityDeposit = securityDeposit;\n        \n        listmapping[msg.sender].push(1);\n\n    }\n\n\n\n\n\n\n    // handle multiple rentals per renter \n    mapping (address => uint[]) private previousRentals;\n\n\n    function rentProperty(address payable owner, uint id, uint t1, uint t2) public payable {\n        \n        uint start;\n        uint end;\n        uint duration;\n        \n        \n        uint fee;\n        uint payment;\n        uint securityDeposit;\n        \n    \n        require(id <= (listmapping[owner].length - 1), \"ID not found\");\n\n        duration = (t2 - t1);\n        \n        // renters should be able to rent a property for a few hours if they wish\n        require(duration <= 86400);\n\n\n        \n        // for loop to check if rental dates overlap with other renters \n        for (uint i=0; i<properties[owner][id].t1.length; i++) {\n            \n            start = properties[owner][id].t1[i];\n            end = properties[owner][id].t2[i];\n        \n            require((end <= t1 || start >= t2) == true);\n\n        }\n\n        // currently will not work if duration is < 86400 seconds \n\n        securityDeposit = properties[owner][id].securityDeposit;\n\n        fee = (duration * properties[owner][id].perNight) / 86400 + properties[owner][id].securityDeposit;\n\n        payment = (duration * properties[owner][id].perNight) / 86400;\n\n\n        require (msg.value >= fee);\n\n\n\n        // rental and security deposits struct is mapped to renter address not owner address \n\n        // id is of owner properties \n        // ID is of renter rentals \n\n        // push to rentals struct \n        ID = listmapping[msg.sender].length;\n\n        rentals[msg.sender][ID].owner = owner;\n        rentals[msg.sender][ID].id = id;\n        \n        rentals[msg.sender][ID].renter = msg.sender;\n\n        rentals[msg.sender][ID].t1 = t1;\n        rentals[msg.sender][ID].t2 = t2;\n\n\n        // push check in and check out to properties struct \n        properties[owner][id].t1.push(t1);\n        properties[owner][id].t2.push(t2);\n\n\n        // security Deposit struct \n\n        securityDeposits[msg.sender][ID].owner = owner;\n        securityDeposits[msg.sender][ID].id = id;\n        securityDeposits[msg.sender][ID].renter = msg.sender;\n        securityDeposits[msg.sender][ID].amount += securityDeposit;\n        securityDeposits[msg.sender][ID].dispute = false;\n        securityDeposits[msg.sender][ID].timestamp = block.timestamp;\n\n        owner.transfer(payment);\n        \n    }\n\n\n\n    // update price per night \n    function updateRentalPrice(uint newPrice, uint id) public returns (uint) { \n\n        properties[msg.sender][id].perNight = newPrice;\n\n        return newPrice;\n\n    }\n\n\n    function propertyAvailability(uint id, bool available) public {\n\n        properties[msg.sender][id].available = available;\n\n    }\n\n\n\n    // in future members of DAO can vote to resolve dispute \n    function fileDispute(address owner, uint id, bool dispute) public {\n\n        require(msg.sender == securityDeposits[owner][id].owner);\n\n        securityDeposits[msg.sender][id].dispute = dispute;\n\n    }\n    \n    \n    \n    \n    // user is renter\n    function releaseDeposit(address payable renter, uint id) public {\n\n        uint amount;\n        \n        require(msg.sender == securityDeposits[renter][id].owner || msg.sender == securityDeposits[renter][id].renter);\n        \n        // release after a week \n        require(securityDeposits[renter][id].timestamp + 604800 < block.timestamp, \"Deposit still on hold\");\n        require(securityDeposits[renter][id].dispute == false, \"Owner has filed a dispute\");\n   \n        amount = securityDeposits[renter][id].amount;\n        \n        renter.transfer(amount);\n        \n        \n    }\n\n\n     function Time_call() public view returns (uint256){\n        return block.timestamp; \n    }\n    \n\n}\n",
  "sourcePath": "/home/ubuntu/Desktop/dev/blockchainBnB/contracts/blockchainBNB.sol",
  "compiler": {
    "name": "solc",
    "version": "0.8.10+commit.fc410830.Emscripten.clang"
  },
  "schemaVersion": "3.4.3",
  "updatedAt": "2021-11-17T11:52:21.301Z",
  "devdoc": {
    "kind": "dev",
    "methods": {},
    "title": "property listing and rental contract ",
    "version": 1
  },
  "userdoc": {
    "kind": "user",
    "methods": {},
    "version": 1
  }
}