{
  "contractName": "blockchainBNB",
  "abi": [
    {
      "inputs": [
        {
          "internalType": "uint256",
          "name": "",
          "type": "uint256"
        }
      ],
      "name": "owners",
      "outputs": [
        {
          "internalType": "address",
          "name": "",
          "type": "address"
        }
      ],
      "stateMutability": "view",
      "type": "function"
    },
    {
      "inputs": [
        {
          "internalType": "address",
          "name": "",
          "type": "address"
        },
        {
          "internalType": "uint256",
          "name": "",
          "type": "uint256"
        }
      ],
      "name": "properties",
      "outputs": [
        {
          "internalType": "address",
          "name": "owner",
          "type": "address"
        },
        {
          "internalType": "uint256",
          "name": "id",
          "type": "uint256"
        },
        {
          "internalType": "uint256",
          "name": "perNight",
          "type": "uint256"
        },
        {
          "internalType": "bool",
          "name": "available",
          "type": "bool"
        },
        {
          "internalType": "bool",
          "name": "payInFull",
          "type": "bool"
        },
        {
          "internalType": "uint256",
          "name": "securityDeposit",
          "type": "uint256"
        }
      ],
      "stateMutability": "view",
      "type": "function"
    },
    {
      "inputs": [
        {
          "internalType": "address",
          "name": "",
          "type": "address"
        },
        {
          "internalType": "uint256",
          "name": "",
          "type": "uint256"
        }
      ],
      "name": "securityDeposits",
      "outputs": [
        {
          "internalType": "address",
          "name": "owner",
          "type": "address"
        },
        {
          "internalType": "uint256",
          "name": "id",
          "type": "uint256"
        },
        {
          "internalType": "address",
          "name": "renter",
          "type": "address"
        },
        {
          "internalType": "uint256",
          "name": "amount",
          "type": "uint256"
        },
        {
          "internalType": "uint256",
          "name": "timestamp",
          "type": "uint256"
        },
        {
          "internalType": "bool",
          "name": "dispute",
          "type": "bool"
        }
      ],
      "stateMutability": "view",
      "type": "function"
    },
    {
      "inputs": [
        {
          "internalType": "uint256",
          "name": "perNight",
          "type": "uint256"
        },
        {
          "internalType": "bool",
          "name": "payInFull",
          "type": "bool"
        },
        {
          "internalType": "uint256",
          "name": "SD",
          "type": "uint256"
        }
      ],
      "name": "newMap",
      "outputs": [],
      "stateMutability": "nonpayable",
      "type": "function"
    },
    {
      "inputs": [
        {
          "internalType": "address payable",
          "name": "owner",
          "type": "address"
        },
        {
          "internalType": "uint256",
          "name": "id",
          "type": "uint256"
        },
        {
          "internalType": "uint256",
          "name": "nights",
          "type": "uint256"
        },
        {
          "internalType": "uint256",
          "name": "t1",
          "type": "uint256"
        },
        {
          "internalType": "uint256",
          "name": "t2",
          "type": "uint256"
        }
      ],
      "name": "rentProperty",
      "outputs": [],
      "stateMutability": "payable",
      "type": "function"
    },
    {
      "inputs": [
        {
          "internalType": "address",
          "name": "owner",
          "type": "address"
        },
        {
          "internalType": "uint256",
          "name": "id",
          "type": "uint256"
        },
        {
          "internalType": "bool",
          "name": "dispute",
          "type": "bool"
        }
      ],
      "name": "fileDispute",
      "outputs": [],
      "stateMutability": "nonpayable",
      "type": "function"
    },
    {
      "inputs": [
        {
          "internalType": "address",
          "name": "owner",
          "type": "address"
        },
        {
          "internalType": "uint256",
          "name": "newPrice",
          "type": "uint256"
        },
        {
          "internalType": "uint256",
          "name": "id",
          "type": "uint256"
        }
      ],
      "name": "updateRentalPrice",
      "outputs": [
        {
          "internalType": "uint256",
          "name": "",
          "type": "uint256"
        }
      ],
      "stateMutability": "nonpayable",
      "type": "function"
    }
  ],
  "bytecode": "0x608060405234801561001057600080fd5b50611783806100206000396000f3fe6080604052600436106100705760003560e01c8063de36ce8c1161004e578063de36ce8c1461011d578063e25d2dc91461015a578063f12fdc4e14610176578063f40d0602146101b857610070565b8063025e7c271461007557806314bfcdd7146100b25780637252f3ec146100f4575b600080fd5b34801561008157600080fd5b5061009c6004803603810190610097919061116b565b6101e1565b6040516100a991906111d9565b60405180910390f35b3480156100be57600080fd5b506100d960048036038101906100d49190611220565b610220565b6040516100eb9695949392919061128a565b60405180910390f35b34801561010057600080fd5b5061011b60048036038101906101169190611317565b6102a3565b005b34801561012957600080fd5b50610144600480360381019061013f919061136a565b610564565b60405161015191906113bd565b60405180910390f35b610174600480360381019061016f9190611416565b610671565b005b34801561018257600080fd5b5061019d60048036038101906101989190611220565b610f7f565b6040516101af96959493929190611491565b60405180910390f35b3480156101c457600080fd5b506101df60048036038101906101da91906114f2565b611015565b005b600481815481106101f157600080fd5b906000526020600020016000915054906101000a900473ffffffffffffffffffffffffffffffffffffffff1681565b6000602052816000526040600020602052806000526040600020600091509150508060000160009054906101000a900473ffffffffffffffffffffffffffffffffffffffff16908060010154908060020154908060030160009054906101000a900460ff16908060030160019054906101000a900460ff16908060040154905086565b600260003373ffffffffffffffffffffffffffffffffffffffff1673ffffffffffffffffffffffffffffffffffffffff16815260200190815260200160002080549050600981905550336000803373ffffffffffffffffffffffffffffffffffffffff1673ffffffffffffffffffffffffffffffffffffffff1681526020019081526020016000206000600954815260200190815260200160002060000160006101000a81548173ffffffffffffffffffffffffffffffffffffffff021916908373ffffffffffffffffffffffffffffffffffffffff1602179055506009546000803373ffffffffffffffffffffffffffffffffffffffff1673ffffffffffffffffffffffffffffffffffffffff1681526020019081526020016000206000600954815260200190815260200160002060010181905550826000803373ffffffffffffffffffffffffffffffffffffffff1673ffffffffffffffffffffffffffffffffffffffff1681526020019081526020016000206000600954815260200190815260200160002060020181905550816000803373ffffffffffffffffffffffffffffffffffffffff1673ffffffffffffffffffffffffffffffffffffffff1681526020019081526020016000206000600954815260200190815260200160002060030160016101000a81548160ff021916908315150217905550806000803373ffffffffffffffffffffffffffffffffffffffff1673ffffffffffffffffffffffffffffffffffffffff1681526020019081526020016000206000600954815260200190815260200160002060040181905550600260003373ffffffffffffffffffffffffffffffffffffffff1673ffffffffffffffffffffffffffffffffffffffff16815260200190815260200160002060019080600181540180825580915050600190039060005260206000200160009091909190915055505050565b60008060008573ffffffffffffffffffffffffffffffffffffffff1673ffffffffffffffffffffffffffffffffffffffff168152602001908152602001600020600083815260200190815260200160002060000160009054906101000a900473ffffffffffffffffffffffffffffffffffffffff1673ffffffffffffffffffffffffffffffffffffffff163373ffffffffffffffffffffffffffffffffffffffff161461061057600080fd5b826000803373ffffffffffffffffffffffffffffffffffffffff1673ffffffffffffffffffffffffffffffffffffffff1681526020019081526020016000206000848152602001908152602001600020600201819055508290509392505050565b6001600260008773ffffffffffffffffffffffffffffffffffffffff1673ffffffffffffffffffffffffffffffffffffffff168152602001908152602001600020805490506106c09190611574565b841115610702576040517f08c379a00000000000000000000000000000000000000000000000000000000081526004016106f990611605565b60405180910390fd5b60005b600160008773ffffffffffffffffffffffffffffffffffffffff1673ffffffffffffffffffffffffffffffffffffffff16815260200190815260200160002060008681526020019081526020016000206003018054905081101561088557600160008773ffffffffffffffffffffffffffffffffffffffff1673ffffffffffffffffffffffffffffffffffffffff168152602001908152602001600020600086815260200190815260200160002060030181815481106107c8576107c7611625565b5b9060005260206000200154600a81905550600160008773ffffffffffffffffffffffffffffffffffffffff1673ffffffffffffffffffffffffffffffffffffffff1681526020019081526020016000206000868152602001908152602001600020600401818154811061083e5761083d611625565b5b9060005260206000200154600b819055506001151583600b54111580610866575082600a5410155b15151461087257600080fd5b808061087d90611654565b915050610705565b5060055434101561089557600080fd5b6000808673ffffffffffffffffffffffffffffffffffffffff1673ffffffffffffffffffffffffffffffffffffffff1681526020019081526020016000206000858152602001908152602001600020600401546000808773ffffffffffffffffffffffffffffffffffffffff1673ffffffffffffffffffffffffffffffffffffffff16815260200190815260200160002060008681526020019081526020016000206002015484610946919061169d565b61095091906116f7565b6005819055506000808673ffffffffffffffffffffffffffffffffffffffff1673ffffffffffffffffffffffffffffffffffffffff168152602001908152602001600020600085815260200190815260200160002060020154836109b4919061169d565b6006819055506000808673ffffffffffffffffffffffffffffffffffffffff1673ffffffffffffffffffffffffffffffffffffffff16815260200190815260200160002060008581526020019081526020016000206004015460078190555084600160008773ffffffffffffffffffffffffffffffffffffffff1673ffffffffffffffffffffffffffffffffffffffff168152602001908152602001600020600086815260200190815260200160002060000160006101000a81548173ffffffffffffffffffffffffffffffffffffffff021916908373ffffffffffffffffffffffffffffffffffffffff16021790555083600160008773ffffffffffffffffffffffffffffffffffffffff1673ffffffffffffffffffffffffffffffffffffffff16815260200190815260200160002060008681526020019081526020016000206001018190555033600160008773ffffffffffffffffffffffffffffffffffffffff1673ffffffffffffffffffffffffffffffffffffffff168152602001908152602001600020600086815260200190815260200160002060020160006101000a81548173ffffffffffffffffffffffffffffffffffffffff021916908373ffffffffffffffffffffffffffffffffffffffff160217905550600160008673ffffffffffffffffffffffffffffffffffffffff1673ffffffffffffffffffffffffffffffffffffffff1681526020019081526020016000206000858152602001908152602001600020600301829080600181540180825580915050600190039060005260206000200160009091909190915055600160008673ffffffffffffffffffffffffffffffffffffffff1673ffffffffffffffffffffffffffffffffffffffff168152602001908152602001600020600085815260200190815260200160002060040181908060018154018082558091505060019003906000526020600020016000909190919091505584600360008773ffffffffffffffffffffffffffffffffffffffff1673ffffffffffffffffffffffffffffffffffffffff168152602001908152602001600020600086815260200190815260200160002060000160006101000a81548173ffffffffffffffffffffffffffffffffffffffff021916908373ffffffffffffffffffffffffffffffffffffffff16021790555083600360008773ffffffffffffffffffffffffffffffffffffffff1673ffffffffffffffffffffffffffffffffffffffff16815260200190815260200160002060008681526020019081526020016000206001018190555033600360008773ffffffffffffffffffffffffffffffffffffffff1673ffffffffffffffffffffffffffffffffffffffff168152602001908152602001600020600086815260200190815260200160002060020160006101000a81548173ffffffffffffffffffffffffffffffffffffffff021916908373ffffffffffffffffffffffffffffffffffffffff160217905550600754600360008773ffffffffffffffffffffffffffffffffffffffff1673ffffffffffffffffffffffffffffffffffffffff16815260200190815260200160002060008681526020019081526020016000206003016000828254610e6491906116f7565b925050819055506000600360008773ffffffffffffffffffffffffffffffffffffffff1673ffffffffffffffffffffffffffffffffffffffff168152602001908152602001600020600086815260200190815260200160002060050160006101000a81548160ff02191690831515021790555042600360008773ffffffffffffffffffffffffffffffffffffffff1673ffffffffffffffffffffffffffffffffffffffff1681526020019081526020016000206000868152602001908152602001600020600401819055508473ffffffffffffffffffffffffffffffffffffffff166108fc6006549081150290604051600060405180830381858888f19350505050158015610f77573d6000803e3d6000fd5b505050505050565b6003602052816000526040600020602052806000526040600020600091509150508060000160009054906101000a900473ffffffffffffffffffffffffffffffffffffffff16908060010154908060020160009054906101000a900473ffffffffffffffffffffffffffffffffffffffff16908060030154908060040154908060050160009054906101000a900460ff16905086565b600360008473ffffffffffffffffffffffffffffffffffffffff1673ffffffffffffffffffffffffffffffffffffffff168152602001908152602001600020600083815260200190815260200160002060000160009054906101000a900473ffffffffffffffffffffffffffffffffffffffff1673ffffffffffffffffffffffffffffffffffffffff163373ffffffffffffffffffffffffffffffffffffffff16146110c057600080fd5b80600360003373ffffffffffffffffffffffffffffffffffffffff1673ffffffffffffffffffffffffffffffffffffffff168152602001908152602001600020600084815260200190815260200160002060050160006101000a81548160ff021916908315150217905550505050565b600080fd5b6000819050919050565b61114881611135565b811461115357600080fd5b50565b6000813590506111658161113f565b92915050565b60006020828403121561118157611180611130565b5b600061118f84828501611156565b91505092915050565b600073ffffffffffffffffffffffffffffffffffffffff82169050919050565b60006111c382611198565b9050919050565b6111d3816111b8565b82525050565b60006020820190506111ee60008301846111ca565b92915050565b6111fd816111b8565b811461120857600080fd5b50565b60008135905061121a816111f4565b92915050565b6000806040838503121561123757611236611130565b5b60006112458582860161120b565b925050602061125685828601611156565b9150509250929050565b61126981611135565b82525050565b60008115159050919050565b6112848161126f565b82525050565b600060c08201905061129f60008301896111ca565b6112ac6020830188611260565b6112b96040830187611260565b6112c6606083018661127b565b6112d3608083018561127b565b6112e060a0830184611260565b979650505050505050565b6112f48161126f565b81146112ff57600080fd5b50565b600081359050611311816112eb565b92915050565b6000806000606084860312156113305761132f611130565b5b600061133e86828701611156565b935050602061134f86828701611302565b925050604061136086828701611156565b9150509250925092565b60008060006060848603121561138357611382611130565b5b60006113918682870161120b565b93505060206113a286828701611156565b92505060406113b386828701611156565b9150509250925092565b60006020820190506113d26000830184611260565b92915050565b60006113e382611198565b9050919050565b6113f3816113d8565b81146113fe57600080fd5b50565b600081359050611410816113ea565b92915050565b600080600080600060a0868803121561143257611431611130565b5b600061144088828901611401565b955050602061145188828901611156565b945050604061146288828901611156565b935050606061147388828901611156565b925050608061148488828901611156565b9150509295509295909350565b600060c0820190506114a660008301896111ca565b6114b36020830188611260565b6114c060408301876111ca565b6114cd6060830186611260565b6114da6080830185611260565b6114e760a083018461127b565b979650505050505050565b60008060006060848603121561150b5761150a611130565b5b60006115198682870161120b565b935050602061152a86828701611156565b925050604061153b86828701611302565b9150509250925092565b7f4e487b7100000000000000000000000000000000000000000000000000000000600052601160045260246000fd5b600061157f82611135565b915061158a83611135565b92508282101561159d5761159c611545565b5b828203905092915050565b600082825260208201905092915050565b7f4944206e6f7420666f756e640000000000000000000000000000000000000000600082015250565b60006115ef600c836115a8565b91506115fa826115b9565b602082019050919050565b6000602082019050818103600083015261161e816115e2565b9050919050565b7f4e487b7100000000000000000000000000000000000000000000000000000000600052603260045260246000fd5b600061165f82611135565b91507fffffffffffffffffffffffffffffffffffffffffffffffffffffffffffffffff82141561169257611691611545565b5b600182019050919050565b60006116a882611135565b91506116b383611135565b9250817fffffffffffffffffffffffffffffffffffffffffffffffffffffffffffffffff04831182151516156116ec576116eb611545565b5b828202905092915050565b600061170282611135565b915061170d83611135565b9250827fffffffffffffffffffffffffffffffffffffffffffffffffffffffffffffffff0382111561174257611741611545565b5b82820190509291505056fea264697066735822122086f925e2ecaeefb6830329a701b7ef96e2c916d4e851c2163a325da8ce0cabcf64736f6c634300080a0033",
  "immutableReferences": {},
  "source": "// SPDX-License-Identifier: MIT\npragma solidity >=0.7.0 <0.9.0;\n/// @title property listing and rental contract \ncontract blockchainBNB {\n    \n    struct property {\n\n        address owner;\n        uint id;\n\n        uint perNight;\n        \n        bool available;\n\n        // pay in full or 50% now 50% on arrival\n        bool payInFull;\n\n        uint securityDeposit;\n\n    }\n\n    struct rental {\n        \n        address owner;\n        uint id;\n        \n        address renter;\n\n        uint[] t1;\n        uint[] t2;\n    \n    }\n\n    struct securityDep {\n\n        address owner;\n        uint id;\n\n        address renter;\n\n        uint amount;\n\n        uint timestamp;\n\n        bool dispute;\n\n    }\n\n\n    // property struct mapping \n    mapping(address => mapping (uint => property)) public properties;\n\n\n    // rental struct mapping \n    mapping(address => mapping (uint => rental)) private rentals;\n\n\n    // allows for multiple property listings per address @dev potentially can be optimized\n    mapping(address => uint[]) private listmapping;\n\n\n    // security deposit mapping \n    mapping(address => mapping (uint => securityDep)) public securityDeposits;\n\n\n    \n    // this list of addresses is for future features - mainly if an owner wants to delete all of their listed properties \n    address[] public owners;\n    \n    uint private fee;\n\n    uint private payment;\n\n    uint private securityDeposit;\n\n    address private renter;\n\n\n    // need to use events instead...\n    bool private listed;\n    bool private rented;\n\n\n\n\n    uint private ID;\n    function newMap(uint perNight, bool payInFull, uint SD) public {\n        \n        ID = listmapping[msg.sender].length;\n        \n        properties[msg.sender][ID].owner = msg.sender;\n        properties[msg.sender][ID].id = ID;\n        \n        properties[msg.sender][ID].perNight = perNight;\n\n        properties[msg.sender][ID].payInFull = payInFull;\n        properties[msg.sender][ID].securityDeposit = SD;\n        \n        listmapping[msg.sender].push(1);\n\n    }\n\n\n\n\n    uint256 private start;\n    uint256 private end;\n\n    function rentProperty(address payable owner, uint id, uint nights, uint t1, uint t2) public payable {\n    \n        require(id <= (listmapping[owner].length - 1), \"ID not found\");\n        \n        // there may be a computationally more efficient way of doing this\n        for (uint i=0; i<rentals[owner][id].t1.length; i++) {\n            \n            start = rentals[owner][id].t1[i];\n            end = rentals[owner][id].t2[i];\n        \n            require((end <= t1 || start >= t2) == true);\n\n        }\n\n        require (msg.value >= fee);\n\n\n        fee = (nights * properties[owner][id].perNight) + properties[owner][id].securityDeposit;\n\n        payment = nights * properties[owner][id].perNight;\n\n        securityDeposit = properties[owner][id].securityDeposit;\n\n\n        rentals[owner][id].owner = owner;\n        rentals[owner][id].id = id;\n        \n        rentals[owner][id].renter = msg.sender;\n        \n        rentals[owner][id].t1.push(t1);\n        rentals[owner][id].t2.push(t2);\n\n\n\n        securityDeposits[owner][id].owner = owner;\n\n        securityDeposits[owner][id].id = id;\n        securityDeposits[owner][id].renter = msg.sender;\n\n        securityDeposits[owner][id].amount += securityDeposit;\n\n        securityDeposits[owner][id].dispute = false;\n\n        securityDeposits[owner][id].timestamp = block.timestamp;\n\n\n        owner.transfer(payment);\n        \n    }\n\n\n    function fileDispute(address owner, uint id, bool dispute) public {\n\n        require(msg.sender == securityDeposits[owner][id].owner);\n\n        securityDeposits[msg.sender][id].dispute = dispute;\n\n\n    }\n\n\n\n    // update price per night \n    function updateRentalPrice(address owner, uint newPrice, uint id) public returns (uint) { \n        \n        require (msg.sender == properties[owner][id].owner);\n\n        // properties[owner].available = false; \n\n        properties[msg.sender][id].perNight = newPrice;\n\n        return newPrice;\n\n    }\n\n}\n",
  "sourcePath": "/home/ubuntu/Desktop/dev/blockchainBnB/contracts/blockchainBNB.sol",
  "compiler": {
    "name": "solc",
    "version": "0.8.10+commit.fc410830.Emscripten.clang"
  },
  "schemaVersion": "3.4.3",
  "updatedAt": "2021-11-16T17:52:33.804Z",
  "devdoc": {
    "kind": "dev",
    "methods": {},
    "title": "property listing and rental contract ",
    "version": 1
  },
  "userdoc": {
    "kind": "user",
    "methods": {},
    "version": 1
  }
}