{
  "contractName": "blockchainBNB",
  "abi": [
    {
      "inputs": [
        {
          "internalType": "uint256",
          "name": "",
          "type": "uint256"
        }
      ],
      "name": "owners",
      "outputs": [
        {
          "internalType": "address",
          "name": "",
          "type": "address"
        }
      ],
      "stateMutability": "view",
      "type": "function"
    },
    {
      "inputs": [
        {
          "internalType": "address",
          "name": "",
          "type": "address"
        },
        {
          "internalType": "uint256",
          "name": "",
          "type": "uint256"
        }
      ],
      "name": "properties",
      "outputs": [
        {
          "internalType": "address",
          "name": "owner",
          "type": "address"
        },
        {
          "internalType": "uint256",
          "name": "id",
          "type": "uint256"
        },
        {
          "internalType": "uint256",
          "name": "perNight",
          "type": "uint256"
        },
        {
          "internalType": "bool",
          "name": "available",
          "type": "bool"
        },
        {
          "internalType": "bool",
          "name": "payInFull",
          "type": "bool"
        },
        {
          "internalType": "uint256",
          "name": "securityDeposit",
          "type": "uint256"
        }
      ],
      "stateMutability": "view",
      "type": "function"
    },
    {
      "inputs": [
        {
          "internalType": "address",
          "name": "",
          "type": "address"
        },
        {
          "internalType": "uint256",
          "name": "",
          "type": "uint256"
        }
      ],
      "name": "rentals",
      "outputs": [
        {
          "internalType": "address",
          "name": "owner",
          "type": "address"
        },
        {
          "internalType": "uint256",
          "name": "id",
          "type": "uint256"
        },
        {
          "internalType": "address",
          "name": "renter",
          "type": "address"
        },
        {
          "internalType": "uint256",
          "name": "t1",
          "type": "uint256"
        },
        {
          "internalType": "uint256",
          "name": "t2",
          "type": "uint256"
        }
      ],
      "stateMutability": "view",
      "type": "function"
    },
    {
      "inputs": [
        {
          "internalType": "address",
          "name": "",
          "type": "address"
        },
        {
          "internalType": "uint256",
          "name": "",
          "type": "uint256"
        }
      ],
      "name": "securityDeposits",
      "outputs": [
        {
          "internalType": "address",
          "name": "owner",
          "type": "address"
        },
        {
          "internalType": "uint256",
          "name": "id",
          "type": "uint256"
        },
        {
          "internalType": "address",
          "name": "renter",
          "type": "address"
        },
        {
          "internalType": "uint256",
          "name": "amount",
          "type": "uint256"
        },
        {
          "internalType": "uint256",
          "name": "timestamp",
          "type": "uint256"
        },
        {
          "internalType": "bool",
          "name": "dispute",
          "type": "bool"
        }
      ],
      "stateMutability": "view",
      "type": "function"
    },
    {
      "inputs": [
        {
          "internalType": "uint256",
          "name": "perNight",
          "type": "uint256"
        },
        {
          "internalType": "bool",
          "name": "payInFull",
          "type": "bool"
        },
        {
          "internalType": "uint256",
          "name": "SD",
          "type": "uint256"
        }
      ],
      "name": "listProperty",
      "outputs": [],
      "stateMutability": "nonpayable",
      "type": "function"
    },
    {
      "inputs": [
        {
          "internalType": "address payable",
          "name": "owner",
          "type": "address"
        },
        {
          "internalType": "uint256",
          "name": "id",
          "type": "uint256"
        },
        {
          "internalType": "uint256",
          "name": "t1",
          "type": "uint256"
        },
        {
          "internalType": "uint256",
          "name": "t2",
          "type": "uint256"
        }
      ],
      "name": "rentProperty",
      "outputs": [],
      "stateMutability": "payable",
      "type": "function"
    },
    {
      "inputs": [
        {
          "internalType": "address",
          "name": "owner",
          "type": "address"
        },
        {
          "internalType": "uint256",
          "name": "newPrice",
          "type": "uint256"
        },
        {
          "internalType": "uint256",
          "name": "id",
          "type": "uint256"
        }
      ],
      "name": "updateRentalPrice",
      "outputs": [
        {
          "internalType": "uint256",
          "name": "",
          "type": "uint256"
        }
      ],
      "stateMutability": "nonpayable",
      "type": "function"
    },
    {
      "inputs": [
        {
          "internalType": "address",
          "name": "owner",
          "type": "address"
        },
        {
          "internalType": "uint256",
          "name": "id",
          "type": "uint256"
        },
        {
          "internalType": "bool",
          "name": "dispute",
          "type": "bool"
        }
      ],
      "name": "fileDispute",
      "outputs": [],
      "stateMutability": "nonpayable",
      "type": "function"
    },
    {
      "inputs": [],
      "name": "Time_call",
      "outputs": [
        {
          "internalType": "uint256",
          "name": "",
          "type": "uint256"
        }
      ],
      "stateMutability": "view",
      "type": "function"
    }
  ],
  "bytecode": "0x608060405234801561001057600080fd5b50611a78806100206000396000f3fe6080604052600436106100865760003560e01c80633b88fa21116100595780633b88fa2114610176578063a8d659bb14610192578063de36ce8c146101bb578063f12fdc4e146101f8578063f40d06021461023a57610086565b8063025e7c271461008b57806303261030146100c8578063090fc58b146100f357806314bfcdd714610134575b600080fd5b34801561009757600080fd5b506100b260048036038101906100ad91906113c1565b610263565b6040516100bf919061142f565b60405180910390f35b3480156100d457600080fd5b506100dd6102a2565b6040516100ea9190611459565b60405180910390f35b3480156100ff57600080fd5b5061011a600480360381019061011591906114a0565b6102aa565b60405161012b9594939291906114e0565b60405180910390f35b34801561014057600080fd5b5061015b600480360381019061015691906114a0565b61032d565b60405161016d9695949392919061154e565b60405180910390f35b610190600480360381019061018b91906115ed565b6103b0565b005b34801561019e57600080fd5b506101b960048036038101906101b49190611680565b610d9a565b005b3480156101c757600080fd5b506101e260048036038101906101dd91906116d3565b6110c8565b6040516101ef9190611459565b60405180910390f35b34801561020457600080fd5b5061021f600480360381019061021a91906114a0565b6111d5565b60405161023196959493929190611726565b60405180910390f35b34801561024657600080fd5b50610261600480360381019061025c9190611787565b61126b565b005b6004818154811061027357600080fd5b906000526020600020016000915054906101000a900473ffffffffffffffffffffffffffffffffffffffff1681565b600042905090565b6001602052816000526040600020602052806000526040600020600091509150508060000160009054906101000a900473ffffffffffffffffffffffffffffffffffffffff16908060010154908060020160009054906101000a900473ffffffffffffffffffffffffffffffffffffffff16908060030154908060040154905085565b6000602052816000526040600020602052806000526040600020600091509150508060000160009054906101000a900473ffffffffffffffffffffffffffffffffffffffff16908060010154908060020154908060030160009054906101000a900460ff16908060030160019054906101000a900460ff16908060040154905086565b6001600260008673ffffffffffffffffffffffffffffffffffffffff1673ffffffffffffffffffffffffffffffffffffffff168152602001908152602001600020805490506103ff9190611809565b831115610441576040517f08c379a00000000000000000000000000000000000000000000000000000000081526004016104389061189a565b60405180910390fd5b60005b6000808673ffffffffffffffffffffffffffffffffffffffff1673ffffffffffffffffffffffffffffffffffffffff1681526020019081526020016000206000858152602001908152602001600020600501805490508110156105c1576000808673ffffffffffffffffffffffffffffffffffffffff1673ffffffffffffffffffffffffffffffffffffffff16815260200190815260200160002060008581526020019081526020016000206005018181548110610505576105046118ba565b5b9060005260206000200154600a819055506000808673ffffffffffffffffffffffffffffffffffffffff1673ffffffffffffffffffffffffffffffffffffffff1681526020019081526020016000206000858152602001908152602001600020600601818154811061057a576105796118ba565b5b9060005260206000200154600b819055506001151583600b541115806105a2575082600a5410155b1515146105ae57600080fd5b80806105b9906118e9565b915050610444565b506005543410156105d157600080fd5b81816105dd9190611809565b600c819055506000808573ffffffffffffffffffffffffffffffffffffffff1673ffffffffffffffffffffffffffffffffffffffff1681526020019081526020016000206000848152602001908152602001600020600401546007819055506000808573ffffffffffffffffffffffffffffffffffffffff1673ffffffffffffffffffffffffffffffffffffffff168152602001908152602001600020600084815260200190815260200160002060040154620151806000808773ffffffffffffffffffffffffffffffffffffffff1673ffffffffffffffffffffffffffffffffffffffff168152602001908152602001600020600086815260200190815260200160002060020154600c546106f39190611932565b6106fd91906119bb565b61070791906119ec565b600581905550620151806000808673ffffffffffffffffffffffffffffffffffffffff1673ffffffffffffffffffffffffffffffffffffffff168152602001908152602001600020600085815260200190815260200160002060020154600c546107719190611932565b61077b91906119bb565b60068190555083600160008673ffffffffffffffffffffffffffffffffffffffff1673ffffffffffffffffffffffffffffffffffffffff168152602001908152602001600020600085815260200190815260200160002060000160006101000a81548173ffffffffffffffffffffffffffffffffffffffff021916908373ffffffffffffffffffffffffffffffffffffffff16021790555082600160008673ffffffffffffffffffffffffffffffffffffffff1673ffffffffffffffffffffffffffffffffffffffff16815260200190815260200160002060008581526020019081526020016000206001018190555033600160008673ffffffffffffffffffffffffffffffffffffffff1673ffffffffffffffffffffffffffffffffffffffff168152602001908152602001600020600085815260200190815260200160002060020160006101000a81548173ffffffffffffffffffffffffffffffffffffffff021916908373ffffffffffffffffffffffffffffffffffffffff16021790555081600160008673ffffffffffffffffffffffffffffffffffffffff1673ffffffffffffffffffffffffffffffffffffffff16815260200190815260200160002060008581526020019081526020016000206003018190555080600160008673ffffffffffffffffffffffffffffffffffffffff1673ffffffffffffffffffffffffffffffffffffffff1681526020019081526020016000206000858152602001908152602001600020600401819055506000808573ffffffffffffffffffffffffffffffffffffffff1673ffffffffffffffffffffffffffffffffffffffff16815260200190815260200160002060008481526020019081526020016000206005018290806001815401808255809150506001900390600052602060002001600090919091909150556000808573ffffffffffffffffffffffffffffffffffffffff1673ffffffffffffffffffffffffffffffffffffffff168152602001908152602001600020600084815260200190815260200160002060060181908060018154018082558091505060019003906000526020600020016000909190919091505583600360008673ffffffffffffffffffffffffffffffffffffffff1673ffffffffffffffffffffffffffffffffffffffff168152602001908152602001600020600085815260200190815260200160002060000160006101000a81548173ffffffffffffffffffffffffffffffffffffffff021916908373ffffffffffffffffffffffffffffffffffffffff16021790555082600360008673ffffffffffffffffffffffffffffffffffffffff1673ffffffffffffffffffffffffffffffffffffffff16815260200190815260200160002060008581526020019081526020016000206001018190555033600360008673ffffffffffffffffffffffffffffffffffffffff1673ffffffffffffffffffffffffffffffffffffffff168152602001908152602001600020600085815260200190815260200160002060020160006101000a81548173ffffffffffffffffffffffffffffffffffffffff021916908373ffffffffffffffffffffffffffffffffffffffff160217905550600754600360008673ffffffffffffffffffffffffffffffffffffffff1673ffffffffffffffffffffffffffffffffffffffff16815260200190815260200160002060008581526020019081526020016000206003016000828254610c8091906119ec565b925050819055506000600360008673ffffffffffffffffffffffffffffffffffffffff1673ffffffffffffffffffffffffffffffffffffffff168152602001908152602001600020600085815260200190815260200160002060050160006101000a81548160ff02191690831515021790555042600360008673ffffffffffffffffffffffffffffffffffffffff1673ffffffffffffffffffffffffffffffffffffffff1681526020019081526020016000206000858152602001908152602001600020600401819055508373ffffffffffffffffffffffffffffffffffffffff166108fc6006549081150290604051600060405180830381858888f19350505050158015610d93573d6000803e3d6000fd5b5050505050565b600260003373ffffffffffffffffffffffffffffffffffffffff1673ffffffffffffffffffffffffffffffffffffffff16815260200190815260200160002080549050600981905550336000803373ffffffffffffffffffffffffffffffffffffffff1673ffffffffffffffffffffffffffffffffffffffff1681526020019081526020016000206000600954815260200190815260200160002060000160006101000a81548173ffffffffffffffffffffffffffffffffffffffff021916908373ffffffffffffffffffffffffffffffffffffffff1602179055506009546000803373ffffffffffffffffffffffffffffffffffffffff1673ffffffffffffffffffffffffffffffffffffffff1681526020019081526020016000206000600954815260200190815260200160002060010181905550826000803373ffffffffffffffffffffffffffffffffffffffff1673ffffffffffffffffffffffffffffffffffffffff168152602001908152602001600020600060095481526020019081526020016000206002018190555060016000803373ffffffffffffffffffffffffffffffffffffffff1673ffffffffffffffffffffffffffffffffffffffff1681526020019081526020016000206000600954815260200190815260200160002060030160006101000a81548160ff021916908315150217905550816000803373ffffffffffffffffffffffffffffffffffffffff1673ffffffffffffffffffffffffffffffffffffffff1681526020019081526020016000206000600954815260200190815260200160002060030160016101000a81548160ff021916908315150217905550806000803373ffffffffffffffffffffffffffffffffffffffff1673ffffffffffffffffffffffffffffffffffffffff1681526020019081526020016000206000600954815260200190815260200160002060040181905550600260003373ffffffffffffffffffffffffffffffffffffffff1673ffffffffffffffffffffffffffffffffffffffff16815260200190815260200160002060019080600181540180825580915050600190039060005260206000200160009091909190915055505050565b60008060008573ffffffffffffffffffffffffffffffffffffffff1673ffffffffffffffffffffffffffffffffffffffff168152602001908152602001600020600083815260200190815260200160002060000160009054906101000a900473ffffffffffffffffffffffffffffffffffffffff1673ffffffffffffffffffffffffffffffffffffffff163373ffffffffffffffffffffffffffffffffffffffff161461117457600080fd5b826000803373ffffffffffffffffffffffffffffffffffffffff1673ffffffffffffffffffffffffffffffffffffffff1681526020019081526020016000206000848152602001908152602001600020600201819055508290509392505050565b6003602052816000526040600020602052806000526040600020600091509150508060000160009054906101000a900473ffffffffffffffffffffffffffffffffffffffff16908060010154908060020160009054906101000a900473ffffffffffffffffffffffffffffffffffffffff16908060030154908060040154908060050160009054906101000a900460ff16905086565b600360008473ffffffffffffffffffffffffffffffffffffffff1673ffffffffffffffffffffffffffffffffffffffff168152602001908152602001600020600083815260200190815260200160002060000160009054906101000a900473ffffffffffffffffffffffffffffffffffffffff1673ffffffffffffffffffffffffffffffffffffffff163373ffffffffffffffffffffffffffffffffffffffff161461131657600080fd5b80600360003373ffffffffffffffffffffffffffffffffffffffff1673ffffffffffffffffffffffffffffffffffffffff168152602001908152602001600020600084815260200190815260200160002060050160006101000a81548160ff021916908315150217905550505050565b600080fd5b6000819050919050565b61139e8161138b565b81146113a957600080fd5b50565b6000813590506113bb81611395565b92915050565b6000602082840312156113d7576113d6611386565b5b60006113e5848285016113ac565b91505092915050565b600073ffffffffffffffffffffffffffffffffffffffff82169050919050565b6000611419826113ee565b9050919050565b6114298161140e565b82525050565b60006020820190506114446000830184611420565b92915050565b6114538161138b565b82525050565b600060208201905061146e600083018461144a565b92915050565b61147d8161140e565b811461148857600080fd5b50565b60008135905061149a81611474565b92915050565b600080604083850312156114b7576114b6611386565b5b60006114c58582860161148b565b92505060206114d6858286016113ac565b9150509250929050565b600060a0820190506114f56000830188611420565b611502602083018761144a565b61150f6040830186611420565b61151c606083018561144a565b611529608083018461144a565b9695505050505050565b60008115159050919050565b61154881611533565b82525050565b600060c0820190506115636000830189611420565b611570602083018861144a565b61157d604083018761144a565b61158a606083018661153f565b611597608083018561153f565b6115a460a083018461144a565b979650505050505050565b60006115ba826113ee565b9050919050565b6115ca816115af565b81146115d557600080fd5b50565b6000813590506115e7816115c1565b92915050565b6000806000806080858703121561160757611606611386565b5b6000611615878288016115d8565b9450506020611626878288016113ac565b9350506040611637878288016113ac565b9250506060611648878288016113ac565b91505092959194509250565b61165d81611533565b811461166857600080fd5b50565b60008135905061167a81611654565b92915050565b60008060006060848603121561169957611698611386565b5b60006116a7868287016113ac565b93505060206116b88682870161166b565b92505060406116c9868287016113ac565b9150509250925092565b6000806000606084860312156116ec576116eb611386565b5b60006116fa8682870161148b565b935050602061170b868287016113ac565b925050604061171c868287016113ac565b9150509250925092565b600060c08201905061173b6000830189611420565b611748602083018861144a565b6117556040830187611420565b611762606083018661144a565b61176f608083018561144a565b61177c60a083018461153f565b979650505050505050565b6000806000606084860312156117a05761179f611386565b5b60006117ae8682870161148b565b93505060206117bf868287016113ac565b92505060406117d08682870161166b565b9150509250925092565b7f4e487b7100000000000000000000000000000000000000000000000000000000600052601160045260246000fd5b60006118148261138b565b915061181f8361138b565b925082821015611832576118316117da565b5b828203905092915050565b600082825260208201905092915050565b7f4944206e6f7420666f756e640000000000000000000000000000000000000000600082015250565b6000611884600c8361183d565b915061188f8261184e565b602082019050919050565b600060208201905081810360008301526118b381611877565b9050919050565b7f4e487b7100000000000000000000000000000000000000000000000000000000600052603260045260246000fd5b60006118f48261138b565b91507fffffffffffffffffffffffffffffffffffffffffffffffffffffffffffffffff821415611927576119266117da565b5b600182019050919050565b600061193d8261138b565b91506119488361138b565b9250817fffffffffffffffffffffffffffffffffffffffffffffffffffffffffffffffff0483118215151615611981576119806117da565b5b828202905092915050565b7f4e487b7100000000000000000000000000000000000000000000000000000000600052601260045260246000fd5b60006119c68261138b565b91506119d18361138b565b9250826119e1576119e061198c565b5b828204905092915050565b60006119f78261138b565b9150611a028361138b565b9250827fffffffffffffffffffffffffffffffffffffffffffffffffffffffffffffffff03821115611a3757611a366117da565b5b82820190509291505056fea2646970667358221220ba4fbbfa8451789f5d974cfe3ccc71cdd9b3cfe7038b3067a7e7b72e2d7d67f064736f6c634300080a0033",
  "immutableReferences": {},
  "source": "// SPDX-License-Identifier: MIT\npragma solidity >=0.7.0 <0.9.0;\n/// @title property listing and rental contract \ncontract blockchainBNB {\n    \n    struct property {\n\n        address owner;\n        uint id;\n\n        // price per night \n        uint perNight;\n        \n        // owner can pause new rentals \n        bool available;\n\n        // pay in full or 50% now 50% on arrival\n        // functionality not yet built in\n        bool payInFull;\n\n        // security Deposit \n        uint securityDeposit;\n\n        // array of all rentals \n        uint[] t1;\n        uint[] t2;\n\n    }\n\n    struct rental {\n        \n        address owner;\n        uint id;\n        \n        address renter;\n\n        // check in check out time of renter\n        uint t1;\n        uint t2;\n    \n    }\n\n    struct securityDep {\n\n        address owner;\n        uint id;\n\n        address renter;\n\n        // renter will be able to withdraw after certain amount of time \n        uint amount;\n\n        // this will be used to release after x number of days \n        uint timestamp;\n\n        // default is false\n        bool dispute;\n\n    }\n\n\n    // property struct mapping \n    mapping(address => mapping (uint => property)) public properties;\n\n\n    // rental struct mapping \n    mapping(address => mapping (uint => rental)) public rentals;\n\n\n    // allows for multiple property listings per address @dev potentially can be optimized\n    mapping(address => uint[]) private listmapping;\n\n\n    // security deposit mapping \n    mapping(address => mapping (uint => securityDep)) public securityDeposits;\n\n\n    \n    // this list of addresses is for future features - mainly if an owner wants to delete all of their listed properties \n    address[] public owners;\n    \n    uint private fee;\n\n    uint private payment;\n\n    uint private securityDeposit;\n\n    address private renter;\n\n\n\n    uint private ID;\n    function listProperty(uint perNight, bool payInFull, uint SD) public {\n        \n        ID = listmapping[msg.sender].length;\n        \n        properties[msg.sender][ID].owner = msg.sender;\n        properties[msg.sender][ID].id = ID;\n        \n        properties[msg.sender][ID].perNight = perNight;\n        \n        properties[msg.sender][ID].available = true;\n\n        properties[msg.sender][ID].payInFull = payInFull;\n        properties[msg.sender][ID].securityDeposit = SD;\n        \n        listmapping[msg.sender].push(1);\n\n    }\n\n\n\n    uint256 private start;\n    uint256 private end;\n\n    uint private duration;\n\n    function rentProperty(address payable owner, uint id, uint t1, uint t2) public payable {\n    \n        require(id <= (listmapping[owner].length - 1), \"ID not found\");\n\n        \n        // for loop to check if rental dates overlap with other renters \n        for (uint i=0; i<properties[owner][id].t1.length; i++) {\n            \n            start = properties[owner][id].t1[i];\n            end = properties[owner][id].t2[i];\n        \n            require((end <= t1 || start >= t2) == true);\n\n        }\n\n        require (msg.value >= fee);\n\n        // currently will not work if duration is < 86400 seconds \n\n        duration = (t2 - t1);\n\n        securityDeposit = properties[owner][id].securityDeposit;\n\n        fee = (duration * properties[owner][id].perNight) / 86400 + properties[owner][id].securityDeposit;\n\n        payment = (duration * properties[owner][id].perNight) / 86400;\n\n\n\n        // push to rental struct \n\n        rentals[owner][id].owner = owner;\n        rentals[owner][id].id = id;\n        \n        rentals[owner][id].renter = msg.sender;\n\n        rentals[owner][id].t1 = t1;\n        rentals[owner][id].t2 = t2;\n\n\n        // push check in and check out to properties struct \n        \n        properties[owner][id].t1.push(t1);\n        properties[owner][id].t2.push(t2);\n\n\n        // security Deposit struct \n\n        securityDeposits[owner][id].owner = owner;\n\n        securityDeposits[owner][id].id = id;\n        securityDeposits[owner][id].renter = msg.sender;\n\n        securityDeposits[owner][id].amount += securityDeposit;\n\n        securityDeposits[owner][id].dispute = false;\n\n        securityDeposits[owner][id].timestamp = block.timestamp;\n\n        owner.transfer(payment);\n        \n    }\n\n\n\n    // update price per night \n    function updateRentalPrice(address owner, uint newPrice, uint id) public returns (uint) { \n        \n        require (msg.sender == properties[owner][id].owner);\n\n        // properties[owner].available = false; \n\n        properties[msg.sender][id].perNight = newPrice;\n\n        return newPrice;\n\n    }\n\n\n    // in future members of DAO can vote to resolve dispute \n    function fileDispute(address owner, uint id, bool dispute) public {\n\n        require(msg.sender == securityDeposits[owner][id].owner);\n\n        securityDeposits[msg.sender][id].dispute = dispute;\n\n    }\n\n\n\n     function Time_call() public view returns (uint256){\n        return block.timestamp; \n    }\n    \n\n}\n",
  "sourcePath": "/home/ubuntu/Desktop/dev/blockchainBnB/contracts/blockchainBNB.sol",
  "compiler": {
    "name": "solc",
    "version": "0.8.10+commit.fc410830.Emscripten.clang"
  },
  "schemaVersion": "3.4.3",
  "updatedAt": "2021-11-17T10:55:29.181Z",
  "devdoc": {
    "kind": "dev",
    "methods": {},
    "title": "property listing and rental contract ",
    "version": 1
  },
  "userdoc": {
    "kind": "user",
    "methods": {},
    "version": 1
  }
}