{
  "contractName": "blockchainBNB",
  "abi": [
    {
      "inputs": [
        {
          "internalType": "address",
          "name": "",
          "type": "address"
        },
        {
          "internalType": "uint256",
          "name": "",
          "type": "uint256"
        }
      ],
      "name": "properties",
      "outputs": [
        {
          "internalType": "address",
          "name": "owner",
          "type": "address"
        },
        {
          "internalType": "uint256",
          "name": "id",
          "type": "uint256"
        },
        {
          "internalType": "uint256",
          "name": "perNight",
          "type": "uint256"
        },
        {
          "internalType": "bool",
          "name": "available",
          "type": "bool"
        },
        {
          "internalType": "bool",
          "name": "payInFull",
          "type": "bool"
        },
        {
          "internalType": "uint256",
          "name": "securityDeposit",
          "type": "uint256"
        }
      ],
      "stateMutability": "view",
      "type": "function"
    },
    {
      "inputs": [
        {
          "internalType": "address",
          "name": "",
          "type": "address"
        },
        {
          "internalType": "uint256",
          "name": "",
          "type": "uint256"
        }
      ],
      "name": "rentals",
      "outputs": [
        {
          "internalType": "address",
          "name": "owner",
          "type": "address"
        },
        {
          "internalType": "uint256",
          "name": "id",
          "type": "uint256"
        },
        {
          "internalType": "address",
          "name": "renter",
          "type": "address"
        },
        {
          "internalType": "uint256",
          "name": "t1",
          "type": "uint256"
        },
        {
          "internalType": "uint256",
          "name": "t2",
          "type": "uint256"
        }
      ],
      "stateMutability": "view",
      "type": "function"
    },
    {
      "inputs": [
        {
          "internalType": "address",
          "name": "",
          "type": "address"
        },
        {
          "internalType": "uint256",
          "name": "",
          "type": "uint256"
        }
      ],
      "name": "securityDeposits",
      "outputs": [
        {
          "internalType": "address",
          "name": "owner",
          "type": "address"
        },
        {
          "internalType": "uint256",
          "name": "id",
          "type": "uint256"
        },
        {
          "internalType": "address",
          "name": "renter",
          "type": "address"
        },
        {
          "internalType": "uint256",
          "name": "amount",
          "type": "uint256"
        },
        {
          "internalType": "uint256",
          "name": "timestamp",
          "type": "uint256"
        },
        {
          "internalType": "bool",
          "name": "dispute",
          "type": "bool"
        }
      ],
      "stateMutability": "view",
      "type": "function"
    },
    {
      "inputs": [
        {
          "internalType": "uint256",
          "name": "perNight",
          "type": "uint256"
        },
        {
          "internalType": "bool",
          "name": "payInFull",
          "type": "bool"
        },
        {
          "internalType": "uint256",
          "name": "SD",
          "type": "uint256"
        }
      ],
      "name": "listProperty",
      "outputs": [],
      "stateMutability": "nonpayable",
      "type": "function"
    },
    {
      "inputs": [
        {
          "internalType": "address payable",
          "name": "owner",
          "type": "address"
        },
        {
          "internalType": "uint256",
          "name": "id",
          "type": "uint256"
        },
        {
          "internalType": "uint256",
          "name": "t1",
          "type": "uint256"
        },
        {
          "internalType": "uint256",
          "name": "t2",
          "type": "uint256"
        }
      ],
      "name": "rentProperty",
      "outputs": [],
      "stateMutability": "payable",
      "type": "function"
    },
    {
      "inputs": [
        {
          "internalType": "address",
          "name": "owner",
          "type": "address"
        },
        {
          "internalType": "uint256",
          "name": "newPrice",
          "type": "uint256"
        },
        {
          "internalType": "uint256",
          "name": "id",
          "type": "uint256"
        }
      ],
      "name": "updateRentalPrice",
      "outputs": [
        {
          "internalType": "uint256",
          "name": "",
          "type": "uint256"
        }
      ],
      "stateMutability": "nonpayable",
      "type": "function"
    },
    {
      "inputs": [
        {
          "internalType": "address",
          "name": "owner",
          "type": "address"
        },
        {
          "internalType": "uint256",
          "name": "id",
          "type": "uint256"
        },
        {
          "internalType": "bool",
          "name": "dispute",
          "type": "bool"
        }
      ],
      "name": "fileDispute",
      "outputs": [],
      "stateMutability": "nonpayable",
      "type": "function"
    },
    {
      "inputs": [
        {
          "internalType": "address",
          "name": "owner",
          "type": "address"
        },
        {
          "internalType": "uint256",
          "name": "id",
          "type": "uint256"
        },
        {
          "internalType": "address payable",
          "name": "user",
          "type": "address"
        }
      ],
      "name": "releaseDeposit",
      "outputs": [],
      "stateMutability": "nonpayable",
      "type": "function"
    },
    {
      "inputs": [],
      "name": "Time_call",
      "outputs": [
        {
          "internalType": "uint256",
          "name": "",
          "type": "uint256"
        }
      ],
      "stateMutability": "view",
      "type": "function"
    }
  ],
  "bytecode": "0x608060405234801561001057600080fd5b50611e4e806100206000396000f3fe6080604052600436106100865760003560e01c80633c0281d6116100595780633c0281d614610155578063a8d659bb1461017e578063de36ce8c146101a7578063f12fdc4e146101e4578063f40d06021461022657610086565b8063032610301461008b578063090fc58b146100b657806314bfcdd7146100f75780633b88fa2114610139575b600080fd5b34801561009757600080fd5b506100a061024f565b6040516100ad9190611692565b60405180910390f35b3480156100c257600080fd5b506100dd60048036038101906100d8919061173c565b610257565b6040516100ee95949392919061178b565b60405180910390f35b34801561010357600080fd5b5061011e6004803603810190610119919061173c565b6102da565b604051610130969594939291906117f9565b60405180910390f35b610153600480360381019061014e9190611898565b61035d565b005b34801561016157600080fd5b5061017c600480360381019061017791906118ff565b610d47565b005b34801561018a57600080fd5b506101a560048036038101906101a0919061197e565b61108d565b005b3480156101b357600080fd5b506101ce60048036038101906101c991906119d1565b6113bb565b6040516101db9190611692565b60405180910390f35b3480156101f057600080fd5b5061020b6004803603810190610206919061173c565b6114c8565b60405161021d96959493929190611a24565b60405180910390f35b34801561023257600080fd5b5061024d60048036038101906102489190611a85565b61155e565b005b600042905090565b6001602052816000526040600020602052806000526040600020600091509150508060000160009054906101000a900473ffffffffffffffffffffffffffffffffffffffff16908060010154908060020160009054906101000a900473ffffffffffffffffffffffffffffffffffffffff16908060030154908060040154905085565b6000602052816000526040600020602052806000526040600020600091509150508060000160009054906101000a900473ffffffffffffffffffffffffffffffffffffffff16908060010154908060020154908060030160009054906101000a900460ff16908060030160019054906101000a900460ff16908060040154905086565b6001600260008673ffffffffffffffffffffffffffffffffffffffff1673ffffffffffffffffffffffffffffffffffffffff168152602001908152602001600020805490506103ac9190611b07565b8311156103ee576040517f08c379a00000000000000000000000000000000000000000000000000000000081526004016103e590611b98565b60405180910390fd5b60005b6000808673ffffffffffffffffffffffffffffffffffffffff1673ffffffffffffffffffffffffffffffffffffffff16815260200190815260200160002060008581526020019081526020016000206005018054905081101561056e576000808673ffffffffffffffffffffffffffffffffffffffff1673ffffffffffffffffffffffffffffffffffffffff168152602001908152602001600020600085815260200190815260200160002060050181815481106104b2576104b1611bb8565b5b90600052602060002001546009819055506000808673ffffffffffffffffffffffffffffffffffffffff1673ffffffffffffffffffffffffffffffffffffffff1681526020019081526020016000206000858152602001908152602001600020600601818154811061052757610526611bb8565b5b9060005260206000200154600a819055506001151583600a5411158061054f57508260095410155b15151461055b57600080fd5b808061056690611be7565b9150506103f1565b5060045434101561057e57600080fd5b818161058a9190611b07565b600b819055506000808573ffffffffffffffffffffffffffffffffffffffff1673ffffffffffffffffffffffffffffffffffffffff1681526020019081526020016000206000848152602001908152602001600020600401546006819055506000808573ffffffffffffffffffffffffffffffffffffffff1673ffffffffffffffffffffffffffffffffffffffff168152602001908152602001600020600084815260200190815260200160002060040154620151806000808773ffffffffffffffffffffffffffffffffffffffff1673ffffffffffffffffffffffffffffffffffffffff168152602001908152602001600020600086815260200190815260200160002060020154600b546106a09190611c30565b6106aa9190611cb9565b6106b49190611cea565b600481905550620151806000808673ffffffffffffffffffffffffffffffffffffffff1673ffffffffffffffffffffffffffffffffffffffff168152602001908152602001600020600085815260200190815260200160002060020154600b5461071e9190611c30565b6107289190611cb9565b60058190555083600160008673ffffffffffffffffffffffffffffffffffffffff1673ffffffffffffffffffffffffffffffffffffffff168152602001908152602001600020600085815260200190815260200160002060000160006101000a81548173ffffffffffffffffffffffffffffffffffffffff021916908373ffffffffffffffffffffffffffffffffffffffff16021790555082600160008673ffffffffffffffffffffffffffffffffffffffff1673ffffffffffffffffffffffffffffffffffffffff16815260200190815260200160002060008581526020019081526020016000206001018190555033600160008673ffffffffffffffffffffffffffffffffffffffff1673ffffffffffffffffffffffffffffffffffffffff168152602001908152602001600020600085815260200190815260200160002060020160006101000a81548173ffffffffffffffffffffffffffffffffffffffff021916908373ffffffffffffffffffffffffffffffffffffffff16021790555081600160008673ffffffffffffffffffffffffffffffffffffffff1673ffffffffffffffffffffffffffffffffffffffff16815260200190815260200160002060008581526020019081526020016000206003018190555080600160008673ffffffffffffffffffffffffffffffffffffffff1673ffffffffffffffffffffffffffffffffffffffff1681526020019081526020016000206000858152602001908152602001600020600401819055506000808573ffffffffffffffffffffffffffffffffffffffff1673ffffffffffffffffffffffffffffffffffffffff16815260200190815260200160002060008481526020019081526020016000206005018290806001815401808255809150506001900390600052602060002001600090919091909150556000808573ffffffffffffffffffffffffffffffffffffffff1673ffffffffffffffffffffffffffffffffffffffff168152602001908152602001600020600084815260200190815260200160002060060181908060018154018082558091505060019003906000526020600020016000909190919091505583600360008673ffffffffffffffffffffffffffffffffffffffff1673ffffffffffffffffffffffffffffffffffffffff168152602001908152602001600020600085815260200190815260200160002060000160006101000a81548173ffffffffffffffffffffffffffffffffffffffff021916908373ffffffffffffffffffffffffffffffffffffffff16021790555082600360008673ffffffffffffffffffffffffffffffffffffffff1673ffffffffffffffffffffffffffffffffffffffff16815260200190815260200160002060008581526020019081526020016000206001018190555033600360008673ffffffffffffffffffffffffffffffffffffffff1673ffffffffffffffffffffffffffffffffffffffff168152602001908152602001600020600085815260200190815260200160002060020160006101000a81548173ffffffffffffffffffffffffffffffffffffffff021916908373ffffffffffffffffffffffffffffffffffffffff160217905550600654600360008673ffffffffffffffffffffffffffffffffffffffff1673ffffffffffffffffffffffffffffffffffffffff16815260200190815260200160002060008581526020019081526020016000206003016000828254610c2d9190611cea565b925050819055506000600360008673ffffffffffffffffffffffffffffffffffffffff1673ffffffffffffffffffffffffffffffffffffffff168152602001908152602001600020600085815260200190815260200160002060050160006101000a81548160ff02191690831515021790555042600360008673ffffffffffffffffffffffffffffffffffffffff1673ffffffffffffffffffffffffffffffffffffffff1681526020019081526020016000206000858152602001908152602001600020600401819055508373ffffffffffffffffffffffffffffffffffffffff166108fc6005549081150290604051600060405180830381858888f19350505050158015610d40573d6000803e3d6000fd5b5050505050565b600360008473ffffffffffffffffffffffffffffffffffffffff1673ffffffffffffffffffffffffffffffffffffffff168152602001908152602001600020600083815260200190815260200160002060000160009054906101000a900473ffffffffffffffffffffffffffffffffffffffff1673ffffffffffffffffffffffffffffffffffffffff163373ffffffffffffffffffffffffffffffffffffffff161480610e925750600360008473ffffffffffffffffffffffffffffffffffffffff1673ffffffffffffffffffffffffffffffffffffffff168152602001908152602001600020600083815260200190815260200160002060020160009054906101000a900473ffffffffffffffffffffffffffffffffffffffff1673ffffffffffffffffffffffffffffffffffffffff163373ffffffffffffffffffffffffffffffffffffffff16145b610e9b57600080fd5b4262093a80600360008673ffffffffffffffffffffffffffffffffffffffff1673ffffffffffffffffffffffffffffffffffffffff168152602001908152602001600020600085815260200190815260200160002060040154610efe9190611cea565b10610f3e576040517f08c379a0000000000000000000000000000000000000000000000000000000008152600401610f3590611d8c565b60405180910390fd5b60001515600360008573ffffffffffffffffffffffffffffffffffffffff1673ffffffffffffffffffffffffffffffffffffffff168152602001908152602001600020600084815260200190815260200160002060050160009054906101000a900460ff16151514610fe5576040517f08c379a0000000000000000000000000000000000000000000000000000000008152600401610fdc90611df8565b60405180910390fd5b600360008473ffffffffffffffffffffffffffffffffffffffff1673ffffffffffffffffffffffffffffffffffffffff168152602001908152602001600020600083815260200190815260200160002060030154600c819055508073ffffffffffffffffffffffffffffffffffffffff166108fc600c549081150290604051600060405180830381858888f19350505050158015611087573d6000803e3d6000fd5b50505050565b600260003373ffffffffffffffffffffffffffffffffffffffff1673ffffffffffffffffffffffffffffffffffffffff16815260200190815260200160002080549050600881905550336000803373ffffffffffffffffffffffffffffffffffffffff1673ffffffffffffffffffffffffffffffffffffffff1681526020019081526020016000206000600854815260200190815260200160002060000160006101000a81548173ffffffffffffffffffffffffffffffffffffffff021916908373ffffffffffffffffffffffffffffffffffffffff1602179055506008546000803373ffffffffffffffffffffffffffffffffffffffff1673ffffffffffffffffffffffffffffffffffffffff1681526020019081526020016000206000600854815260200190815260200160002060010181905550826000803373ffffffffffffffffffffffffffffffffffffffff1673ffffffffffffffffffffffffffffffffffffffff168152602001908152602001600020600060085481526020019081526020016000206002018190555060016000803373ffffffffffffffffffffffffffffffffffffffff1673ffffffffffffffffffffffffffffffffffffffff1681526020019081526020016000206000600854815260200190815260200160002060030160006101000a81548160ff021916908315150217905550816000803373ffffffffffffffffffffffffffffffffffffffff1673ffffffffffffffffffffffffffffffffffffffff1681526020019081526020016000206000600854815260200190815260200160002060030160016101000a81548160ff021916908315150217905550806000803373ffffffffffffffffffffffffffffffffffffffff1673ffffffffffffffffffffffffffffffffffffffff1681526020019081526020016000206000600854815260200190815260200160002060040181905550600260003373ffffffffffffffffffffffffffffffffffffffff1673ffffffffffffffffffffffffffffffffffffffff16815260200190815260200160002060019080600181540180825580915050600190039060005260206000200160009091909190915055505050565b60008060008573ffffffffffffffffffffffffffffffffffffffff1673ffffffffffffffffffffffffffffffffffffffff168152602001908152602001600020600083815260200190815260200160002060000160009054906101000a900473ffffffffffffffffffffffffffffffffffffffff1673ffffffffffffffffffffffffffffffffffffffff163373ffffffffffffffffffffffffffffffffffffffff161461146757600080fd5b826000803373ffffffffffffffffffffffffffffffffffffffff1673ffffffffffffffffffffffffffffffffffffffff1681526020019081526020016000206000848152602001908152602001600020600201819055508290509392505050565b6003602052816000526040600020602052806000526040600020600091509150508060000160009054906101000a900473ffffffffffffffffffffffffffffffffffffffff16908060010154908060020160009054906101000a900473ffffffffffffffffffffffffffffffffffffffff16908060030154908060040154908060050160009054906101000a900460ff16905086565b600360008473ffffffffffffffffffffffffffffffffffffffff1673ffffffffffffffffffffffffffffffffffffffff168152602001908152602001600020600083815260200190815260200160002060000160009054906101000a900473ffffffffffffffffffffffffffffffffffffffff1673ffffffffffffffffffffffffffffffffffffffff163373ffffffffffffffffffffffffffffffffffffffff161461160957600080fd5b80600360003373ffffffffffffffffffffffffffffffffffffffff1673ffffffffffffffffffffffffffffffffffffffff168152602001908152602001600020600084815260200190815260200160002060050160006101000a81548160ff021916908315150217905550505050565b6000819050919050565b61168c81611679565b82525050565b60006020820190506116a76000830184611683565b92915050565b600080fd5b600073ffffffffffffffffffffffffffffffffffffffff82169050919050565b60006116dd826116b2565b9050919050565b6116ed816116d2565b81146116f857600080fd5b50565b60008135905061170a816116e4565b92915050565b61171981611679565b811461172457600080fd5b50565b60008135905061173681611710565b92915050565b60008060408385031215611753576117526116ad565b5b6000611761858286016116fb565b925050602061177285828601611727565b9150509250929050565b611785816116d2565b82525050565b600060a0820190506117a0600083018861177c565b6117ad6020830187611683565b6117ba604083018661177c565b6117c76060830185611683565b6117d46080830184611683565b9695505050505050565b60008115159050919050565b6117f3816117de565b82525050565b600060c08201905061180e600083018961177c565b61181b6020830188611683565b6118286040830187611683565b61183560608301866117ea565b61184260808301856117ea565b61184f60a0830184611683565b979650505050505050565b6000611865826116b2565b9050919050565b6118758161185a565b811461188057600080fd5b50565b6000813590506118928161186c565b92915050565b600080600080608085870312156118b2576118b16116ad565b5b60006118c087828801611883565b94505060206118d187828801611727565b93505060406118e287828801611727565b92505060606118f387828801611727565b91505092959194509250565b600080600060608486031215611918576119176116ad565b5b6000611926868287016116fb565b935050602061193786828701611727565b925050604061194886828701611883565b9150509250925092565b61195b816117de565b811461196657600080fd5b50565b60008135905061197881611952565b92915050565b600080600060608486031215611997576119966116ad565b5b60006119a586828701611727565b93505060206119b686828701611969565b92505060406119c786828701611727565b9150509250925092565b6000806000606084860312156119ea576119e96116ad565b5b60006119f8868287016116fb565b9350506020611a0986828701611727565b9250506040611a1a86828701611727565b9150509250925092565b600060c082019050611a39600083018961177c565b611a466020830188611683565b611a53604083018761177c565b611a606060830186611683565b611a6d6080830185611683565b611a7a60a08301846117ea565b979650505050505050565b600080600060608486031215611a9e57611a9d6116ad565b5b6000611aac868287016116fb565b9350506020611abd86828701611727565b9250506040611ace86828701611969565b9150509250925092565b7f4e487b7100000000000000000000000000000000000000000000000000000000600052601160045260246000fd5b6000611b1282611679565b9150611b1d83611679565b925082821015611b3057611b2f611ad8565b5b828203905092915050565b600082825260208201905092915050565b7f4944206e6f7420666f756e640000000000000000000000000000000000000000600082015250565b6000611b82600c83611b3b565b9150611b8d82611b4c565b602082019050919050565b60006020820190508181036000830152611bb181611b75565b9050919050565b7f4e487b7100000000000000000000000000000000000000000000000000000000600052603260045260246000fd5b6000611bf282611679565b91507fffffffffffffffffffffffffffffffffffffffffffffffffffffffffffffffff821415611c2557611c24611ad8565b5b600182019050919050565b6000611c3b82611679565b9150611c4683611679565b9250817fffffffffffffffffffffffffffffffffffffffffffffffffffffffffffffffff0483118215151615611c7f57611c7e611ad8565b5b828202905092915050565b7f4e487b7100000000000000000000000000000000000000000000000000000000600052601260045260246000fd5b6000611cc482611679565b9150611ccf83611679565b925082611cdf57611cde611c8a565b5b828204905092915050565b6000611cf582611679565b9150611d0083611679565b9250827fffffffffffffffffffffffffffffffffffffffffffffffffffffffffffffffff03821115611d3557611d34611ad8565b5b828201905092915050565b7f4465706f736974207374696c6c206f6e20686f6c640000000000000000000000600082015250565b6000611d76601583611b3b565b9150611d8182611d40565b602082019050919050565b60006020820190508181036000830152611da581611d69565b9050919050565b7f4f776e6572206861732066696c65642061206469737075746500000000000000600082015250565b6000611de2601983611b3b565b9150611ded82611dac565b602082019050919050565b60006020820190508181036000830152611e1181611dd5565b905091905056fea2646970667358221220a88dce30cba33044ba25bd1feb44d40f740ca5f26964748d5b99118f07a280aa64736f6c634300080a0033",
  "immutableReferences": {},
  "source": "// SPDX-License-Identifier: MIT\npragma solidity >=0.7.0 <0.9.0;\n/// @title property listing and rental contract \ncontract blockchainBNB {\n    \n    struct property {\n\n        address owner;\n        uint id;\n\n        // price per night \n        uint perNight;\n        \n        // owner can pause new rentals \n        bool available;\n\n        // pay in full or 50% now 50% on arrival\n        // functionality not yet built in\n        bool payInFull;\n\n        // security Deposit \n        uint securityDeposit;\n\n        // array of all rentals \n        uint[] t1;\n        uint[] t2;\n\n    }\n\n    struct rental {\n        \n        address owner;\n        uint id;\n        \n        address renter;\n\n        // check in check out time of renter\n        uint t1;\n        uint t2;\n    \n    }\n\n    struct securityDep {\n\n        address owner;\n        uint id;\n\n        address renter;\n\n        // renter will be able to withdraw deposit after certain amount of time \n        uint amount;\n\n        // this will be used to release after x number of days \n        uint timestamp;\n\n        // default is false\n        bool dispute;\n\n    }\n\n\n    // property struct mapping \n    mapping(address => mapping (uint => property)) public properties;\n\n\n    // rental struct mapping \n    mapping(address => mapping (uint => rental)) public rentals;\n\n\n    // allows for multiple property listings per address @dev potentially can be optimized\n    mapping(address => uint[]) private listmapping;\n\n\n    // security deposit mapping \n    mapping(address => mapping (uint => securityDep)) public securityDeposits;\n\n\n    \n    \n    uint private fee;\n\n    uint private payment;\n\n    uint private securityDeposit;\n\n    // also used by releaseDeposit\n    address private renter;\n\n\n\n    uint private ID;\n    \n    function listProperty(uint perNight, bool payInFull, uint SD) public {\n        \n        ID = listmapping[msg.sender].length;\n        \n        properties[msg.sender][ID].owner = msg.sender;\n        properties[msg.sender][ID].id = ID;\n        \n        properties[msg.sender][ID].perNight = perNight;\n        \n        properties[msg.sender][ID].available = true;\n\n        properties[msg.sender][ID].payInFull = payInFull;\n        properties[msg.sender][ID].securityDeposit = SD;\n        \n        listmapping[msg.sender].push(1);\n\n    }\n\n\n\n    uint256 private start;\n    uint256 private end;\n\n    uint private duration;\n\n    function rentProperty(address payable owner, uint id, uint t1, uint t2) public payable {\n    \n        require(id <= (listmapping[owner].length - 1), \"ID not found\");\n\n        \n        // for loop to check if rental dates overlap with other renters \n        for (uint i=0; i<properties[owner][id].t1.length; i++) {\n            \n            start = properties[owner][id].t1[i];\n            end = properties[owner][id].t2[i];\n        \n            require((end <= t1 || start >= t2) == true);\n\n        }\n\n        require (msg.value >= fee);\n\n        // currently will not work if duration is < 86400 seconds \n\n        duration = (t2 - t1);\n\n        securityDeposit = properties[owner][id].securityDeposit;\n\n        fee = (duration * properties[owner][id].perNight) / 86400 + properties[owner][id].securityDeposit;\n\n        payment = (duration * properties[owner][id].perNight) / 86400;\n\n\n\n        // push to rental struct \n\n        rentals[owner][id].owner = owner;\n        rentals[owner][id].id = id;\n        \n        rentals[owner][id].renter = msg.sender;\n\n        rentals[owner][id].t1 = t1;\n        rentals[owner][id].t2 = t2;\n\n\n        // push check in and check out to properties struct \n        \n        properties[owner][id].t1.push(t1);\n        properties[owner][id].t2.push(t2);\n\n\n        // security Deposit struct \n\n        securityDeposits[owner][id].owner = owner;\n\n        securityDeposits[owner][id].id = id;\n        securityDeposits[owner][id].renter = msg.sender;\n\n        securityDeposits[owner][id].amount += securityDeposit;\n\n        securityDeposits[owner][id].dispute = false;\n\n        securityDeposits[owner][id].timestamp = block.timestamp;\n\n        owner.transfer(payment);\n        \n    }\n\n\n\n    // update price per night \n    function updateRentalPrice(address owner, uint newPrice, uint id) public returns (uint) { \n        \n        require (msg.sender == properties[owner][id].owner);\n\n        // properties[owner].available = false; \n\n        properties[msg.sender][id].perNight = newPrice;\n\n        return newPrice;\n\n    }\n\n\n    // in future members of DAO can vote to resolve dispute \n    function fileDispute(address owner, uint id, bool dispute) public {\n\n        require(msg.sender == securityDeposits[owner][id].owner);\n\n        securityDeposits[msg.sender][id].dispute = dispute;\n\n    }\n    \n    \n    uint private amount;\n    \n    // user is renter\n    function releaseDeposit(address owner, uint id, address payable user) public {\n        \n        require(msg.sender == securityDeposits[owner][id].owner || msg.sender == securityDeposits[owner][id].renter);\n        \n        // release after a week \n        require(securityDeposits[owner][id].timestamp + 604800 < block.timestamp, \"Deposit still on hold\");\n        require(securityDeposits[owner][id].dispute == false, \"Owner has filed a dispute\");\n   \n        amount = securityDeposits[owner][id].amount;\n        \n        user.transfer(amount);\n        \n        \n    }\n\n\n     function Time_call() public view returns (uint256){\n        return block.timestamp; \n    }\n    \n\n}\n",
  "sourcePath": "/home/ubuntu/Desktop/dev/blockchainBnB/contracts/blockchainBNB.sol",
  "compiler": {
    "name": "solc",
    "version": "0.8.10+commit.fc410830.Emscripten.clang"
  },
  "schemaVersion": "3.4.3",
  "updatedAt": "2021-11-17T11:17:29.699Z",
  "devdoc": {
    "kind": "dev",
    "methods": {},
    "title": "property listing and rental contract ",
    "version": 1
  },
  "userdoc": {
    "kind": "user",
    "methods": {},
    "version": 1
  }
}