{
  "contractName": "blockchainBNB",
  "abi": [
    {
      "inputs": [
        {
          "internalType": "uint256",
          "name": "",
          "type": "uint256"
        }
      ],
      "name": "owners",
      "outputs": [
        {
          "internalType": "address",
          "name": "",
          "type": "address"
        }
      ],
      "stateMutability": "view",
      "type": "function"
    },
    {
      "inputs": [
        {
          "internalType": "address",
          "name": "",
          "type": "address"
        }
      ],
      "name": "properties",
      "outputs": [
        {
          "internalType": "uint256",
          "name": "perNight",
          "type": "uint256"
        },
        {
          "internalType": "address",
          "name": "owner",
          "type": "address"
        },
        {
          "internalType": "address",
          "name": "renter",
          "type": "address"
        },
        {
          "internalType": "bool",
          "name": "paid",
          "type": "bool"
        },
        {
          "internalType": "bool",
          "name": "available",
          "type": "bool"
        },
        {
          "internalType": "bool",
          "name": "payInFull",
          "type": "bool"
        }
      ],
      "stateMutability": "view",
      "type": "function"
    },
    {
      "inputs": [
        {
          "internalType": "uint256",
          "name": "perNight",
          "type": "uint256"
        }
      ],
      "name": "listProperty",
      "outputs": [],
      "stateMutability": "nonpayable",
      "type": "function"
    },
    {
      "inputs": [
        {
          "internalType": "address payable",
          "name": "owner",
          "type": "address"
        },
        {
          "internalType": "uint256",
          "name": "nights",
          "type": "uint256"
        }
      ],
      "name": "rentProperty",
      "outputs": [
        {
          "internalType": "uint256",
          "name": "",
          "type": "uint256"
        }
      ],
      "stateMutability": "payable",
      "type": "function"
    }
  ],
  "bytecode": "0x608060405234801561001057600080fd5b5061098b806100206000396000f3fe60806040526004361061003f5760003560e01c8063025e7c271461004457806325ec77d714610081578063751eaa0a146100c3578063b6aee1cf146100f3575b600080fd5b34801561005057600080fd5b5061006b600480360381019061006691906106c6565b61011c565b6040516100789190610734565b60405180910390f35b34801561008d57600080fd5b506100a860048036038101906100a3919061077b565b61015b565b6040516100ba969594939291906107d2565b60405180910390f35b6100dd60048036038101906100d89190610871565b6101fe565b6040516100ea91906108b1565b60405180910390f35b3480156100ff57600080fd5b5061011a600480360381019061011591906106c6565b6104ab565b005b6001818154811061012c57600080fd5b906000526020600020016000915054906101000a900473ffffffffffffffffffffffffffffffffffffffff1681565b60006020528060005260406000206000915090508060000154908060010160009054906101000a900473ffffffffffffffffffffffffffffffffffffffff16908060020160009054906101000a900473ffffffffffffffffffffffffffffffffffffffff16908060020160149054906101000a900460ff16908060020160159054906101000a900460ff16908060020160169054906101000a900460ff16905086565b600033600360006101000a81548173ffffffffffffffffffffffffffffffffffffffff021916908373ffffffffffffffffffffffffffffffffffffffff1602179055506000808473ffffffffffffffffffffffffffffffffffffffff1673ffffffffffffffffffffffffffffffffffffffff168152602001908152602001600020600001548261028e91906108fb565b6002819055506002543410156102a357600080fd5b826000808573ffffffffffffffffffffffffffffffffffffffff1673ffffffffffffffffffffffffffffffffffffffff16815260200190815260200160002060020160006101000a81548173ffffffffffffffffffffffffffffffffffffffff021916908373ffffffffffffffffffffffffffffffffffffffff160217905550336000808573ffffffffffffffffffffffffffffffffffffffff1673ffffffffffffffffffffffffffffffffffffffff16815260200190815260200160002060020160006101000a81548173ffffffffffffffffffffffffffffffffffffffff021916908373ffffffffffffffffffffffffffffffffffffffff16021790555060016000808573ffffffffffffffffffffffffffffffffffffffff1673ffffffffffffffffffffffffffffffffffffffff16815260200190815260200160002060020160146101000a81548160ff02191690831515021790555060008060008573ffffffffffffffffffffffffffffffffffffffff1673ffffffffffffffffffffffffffffffffffffffff16815260200190815260200160002060020160156101000a81548160ff0219169083151502179055508273ffffffffffffffffffffffffffffffffffffffff166108fc6002549081150290604051600060405180830381858888f1935050505015801561049f573d6000803e3d6000fd5b50600254905092915050565b6001339080600181540180825580915050600190039060005260206000200160009091909190916101000a81548173ffffffffffffffffffffffffffffffffffffffff021916908373ffffffffffffffffffffffffffffffffffffffff160217905550806000803373ffffffffffffffffffffffffffffffffffffffff1673ffffffffffffffffffffffffffffffffffffffff16815260200190815260200160002060000181905550336000803373ffffffffffffffffffffffffffffffffffffffff1673ffffffffffffffffffffffffffffffffffffffff16815260200190815260200160002060010160006101000a81548173ffffffffffffffffffffffffffffffffffffffff021916908373ffffffffffffffffffffffffffffffffffffffff16021790555060008060003373ffffffffffffffffffffffffffffffffffffffff1673ffffffffffffffffffffffffffffffffffffffff16815260200190815260200160002060020160146101000a81548160ff02191690831515021790555060016000803373ffffffffffffffffffffffffffffffffffffffff1673ffffffffffffffffffffffffffffffffffffffff16815260200190815260200160002060020160156101000a81548160ff02191690831515021790555050565b600080fd5b6000819050919050565b6106a381610690565b81146106ae57600080fd5b50565b6000813590506106c08161069a565b92915050565b6000602082840312156106dc576106db61068b565b5b60006106ea848285016106b1565b91505092915050565b600073ffffffffffffffffffffffffffffffffffffffff82169050919050565b600061071e826106f3565b9050919050565b61072e81610713565b82525050565b60006020820190506107496000830184610725565b92915050565b61075881610713565b811461076357600080fd5b50565b6000813590506107758161074f565b92915050565b6000602082840312156107915761079061068b565b5b600061079f84828501610766565b91505092915050565b6107b181610690565b82525050565b60008115159050919050565b6107cc816107b7565b82525050565b600060c0820190506107e760008301896107a8565b6107f46020830188610725565b6108016040830187610725565b61080e60608301866107c3565b61081b60808301856107c3565b61082860a08301846107c3565b979650505050505050565b600061083e826106f3565b9050919050565b61084e81610833565b811461085957600080fd5b50565b60008135905061086b81610845565b92915050565b600080604083850312156108885761088761068b565b5b60006108968582860161085c565b92505060206108a7858286016106b1565b9150509250929050565b60006020820190506108c660008301846107a8565b92915050565b7f4e487b7100000000000000000000000000000000000000000000000000000000600052601160045260246000fd5b600061090682610690565b915061091183610690565b9250817fffffffffffffffffffffffffffffffffffffffffffffffffffffffffffffffff048311821515161561094a576109496108cc565b5b82820290509291505056fea26469706673582212208a2ca5f0d001918adaf48709acdbcfec3f042d0fb04c1e2ac79608cddfd7cb4064736f6c634300080a0033",
  "immutableReferences": {},
  "source": "// SPDX-License-Identifier: MIT\npragma solidity >=0.7.0 <0.9.0;\n/// @title property listing and rental contract \ncontract blockchainBNB {\n    \n    struct property {\n        uint256 perNight;\n\n        address owner;\n        address renter;\n\n        bool paid;  // if true, that person already voted\n        bool available;\n\n        // pay in full or 50% now 50% on arrival\n        bool payInFull;\n\n    }\n\n\n    mapping(address => property) public properties;\n    \n    // this list of addresses is for future features - mainly if an owner wants to delete all of their listed properties \n    address[] public owners;\n    \n    uint256 private fee;\n      \n    address private renter;\n\n\n    // future functions:\n\n    // function:  update rental price\n    // struct mapping: owner can have multiple rental properties\n    // function: pay half to reserve, pay in full on arrival \n    // struct: owners can have ratings\n    // struct: renters can have ratings\n    // function: security deposit\n    // enable payment in ERC20 \n\n\n    function listProperty(uint256 perNight) public {\n        \n        // add owner address to list owners\n        owners.push(msg.sender);\n        \n        // adding values to protery struct\n        properties[msg.sender].perNight = perNight;\n\n        // owner address\n        properties[msg.sender].owner = msg.sender;\n\n        // renter address at listing will be initially set to 0x00 address\n        \n        properties[msg.sender].paid = false;\n        \n        properties[msg.sender].available = true;\n\n    }\n    \n    \n    function rentProperty(address payable owner, uint256 nights) public payable returns (uint256) {\n        \n        renter = msg.sender;\n\n        // calculating fee by calling properties mapping\n        // @dev eventually needs to be calculated using block timestamp \n        fee = nights * properties[owner].perNight;\n        \n        // require msg.value to be greater than or equal to price per night\n\n\n        require (msg.value >= fee);\n\n        // this is for future features \n        properties[owner].renter = owner;\n\n        properties[owner].renter = msg.sender;\n\n        properties[owner].paid = true;\n        \n        properties[owner].available = false;\n        \n        owner.transfer(fee);\n        \n        return fee;\n        \n        \n    }\n    \n}\n",
  "sourcePath": "/home/ubuntu/Desktop/dev/blockchainBnB/contracts/blockchainBNB.sol",
  "compiler": {
    "name": "solc",
    "version": "0.8.10+commit.fc410830.Emscripten.clang"
  },
  "schemaVersion": "3.4.3",
  "updatedAt": "2021-11-16T09:15:16.113Z",
  "devdoc": {
    "kind": "dev",
    "methods": {},
    "title": "property listing and rental contract ",
    "version": 1
  },
  "userdoc": {
    "kind": "user",
    "methods": {},
    "version": 1
  }
}