{
  "contractName": "structMap",
  "abi": [
    {
      "inputs": [
        {
          "internalType": "address",
          "name": "",
          "type": "address"
        },
        {
          "internalType": "uint256",
          "name": "",
          "type": "uint256"
        }
      ],
      "name": "structure1",
      "outputs": [
        {
          "internalType": "address",
          "name": "owner",
          "type": "address"
        },
        {
          "internalType": "uint256",
          "name": "id",
          "type": "uint256"
        },
        {
          "internalType": "uint256",
          "name": "val1",
          "type": "uint256"
        },
        {
          "internalType": "uint256",
          "name": "val2",
          "type": "uint256"
        }
      ],
      "stateMutability": "view",
      "type": "function"
    },
    {
      "inputs": [
        {
          "internalType": "uint256",
          "name": "val1",
          "type": "uint256"
        },
        {
          "internalType": "uint256",
          "name": "val2",
          "type": "uint256"
        },
        {
          "internalType": "uint256",
          "name": "id",
          "type": "uint256"
        }
      ],
      "name": "setVal",
      "outputs": [],
      "stateMutability": "nonpayable",
      "type": "function"
    },
    {
      "inputs": [
        {
          "internalType": "uint256",
          "name": "val1",
          "type": "uint256"
        },
        {
          "internalType": "uint256",
          "name": "val2",
          "type": "uint256"
        }
      ],
      "name": "newMap",
      "outputs": [],
      "stateMutability": "nonpayable",
      "type": "function"
    },
    {
      "inputs": [
        {
          "internalType": "address",
          "name": "owner",
          "type": "address"
        }
      ],
      "name": "viewValListLength",
      "outputs": [
        {
          "internalType": "uint256",
          "name": "",
          "type": "uint256"
        }
      ],
      "stateMutability": "view",
      "type": "function"
    },
    {
      "inputs": [],
      "name": "Time_call",
      "outputs": [
        {
          "internalType": "uint256",
          "name": "",
          "type": "uint256"
        }
      ],
      "stateMutability": "view",
      "type": "function"
    },
    {
      "inputs": [
        {
          "internalType": "address",
          "name": "owner",
          "type": "address"
        },
        {
          "internalType": "uint256",
          "name": "id",
          "type": "uint256"
        },
        {
          "internalType": "uint256",
          "name": "t1",
          "type": "uint256"
        },
        {
          "internalType": "uint256",
          "name": "t2",
          "type": "uint256"
        }
      ],
      "name": "viewRentals",
      "outputs": [
        {
          "internalType": "uint256",
          "name": "",
          "type": "uint256"
        },
        {
          "internalType": "uint256",
          "name": "",
          "type": "uint256"
        }
      ],
      "stateMutability": "view",
      "type": "function"
    },
    {
      "inputs": [
        {
          "internalType": "address",
          "name": "owner",
          "type": "address"
        },
        {
          "internalType": "uint256",
          "name": "id",
          "type": "uint256"
        },
        {
          "internalType": "uint256",
          "name": "t1",
          "type": "uint256"
        },
        {
          "internalType": "uint256",
          "name": "t2",
          "type": "uint256"
        }
      ],
      "name": "rent",
      "outputs": [],
      "stateMutability": "nonpayable",
      "type": "function"
    }
  ],
  "bytecode": "0x608060405234801561001057600080fd5b50610f7e806100206000396000f3fe608060405234801561001057600080fd5b506004361061007d5760003560e01c806365c1ae2c1161005b57806365c1ae2c146100d85780637b4b00d01461010b57806388369ad71461013c578063b7c69638146101585761007d565b806303261030146100825780631327afdb146100a057806356c80308146100bc575b600080fd5b61008a610188565b6040516100979190610b62565b60405180910390f35b6100ba60048036038101906100b59190610bae565b610190565b005b6100d660048036038101906100d19190610c01565b6102d6565b005b6100f260048036038101906100ed9190610c9f565b61052a565b6040516101029493929190610cee565b60405180910390f35b61012560048036038101906101209190610d33565b610587565b604051610133929190610d9a565b60405180910390f35b61015660048036038101906101519190610d33565b610677565b005b610172600480360381019061016d9190610dc3565b610afd565b60405161017f9190610b62565b60405180910390f35b600042905090565b6001600260003373ffffffffffffffffffffffffffffffffffffffff1673ffffffffffffffffffffffffffffffffffffffff168152602001908152602001600020805490506101df9190610e1f565b811115610221576040517f08c379a000000000000000000000000000000000000000000000000000000000815260040161021890610eb0565b60405180910390fd5b82600160003373ffffffffffffffffffffffffffffffffffffffff1673ffffffffffffffffffffffffffffffffffffffff16815260200190815260200160002060008381526020019081526020016000206002018190555081600160003373ffffffffffffffffffffffffffffffffffffffff1673ffffffffffffffffffffffffffffffffffffffff168152602001908152602001600020600083815260200190815260200160002060030181905550505050565b600260003373ffffffffffffffffffffffffffffffffffffffff1673ffffffffffffffffffffffffffffffffffffffff1681526020019081526020016000208054905060008190555033600160003373ffffffffffffffffffffffffffffffffffffffff1673ffffffffffffffffffffffffffffffffffffffff16815260200190815260200160002060008054815260200190815260200160002060000160006101000a81548173ffffffffffffffffffffffffffffffffffffffff021916908373ffffffffffffffffffffffffffffffffffffffff160217905550600054600160003373ffffffffffffffffffffffffffffffffffffffff1673ffffffffffffffffffffffffffffffffffffffff1681526020019081526020016000206000805481526020019081526020016000206001018190555081600160003373ffffffffffffffffffffffffffffffffffffffff1673ffffffffffffffffffffffffffffffffffffffff1681526020019081526020016000206000805481526020019081526020016000206002018190555080600160003373ffffffffffffffffffffffffffffffffffffffff1673ffffffffffffffffffffffffffffffffffffffff16815260200190815260200160002060008054815260200190815260200160002060030181905550600260003373ffffffffffffffffffffffffffffffffffffffff1673ffffffffffffffffffffffffffffffffffffffff168152602001908152602001600020600190806001815401808255809150506001900390600052602060002001600090919091909150555050565b6001602052816000526040600020602052806000526040600020600091509150508060000160009054906101000a900473ffffffffffffffffffffffffffffffffffffffff16908060010154908060020154908060030154905084565b600080600360008773ffffffffffffffffffffffffffffffffffffffff1673ffffffffffffffffffffffffffffffffffffffff168152602001908152602001600020600086815260200190815260200160002060030184815481106105ef576105ee610ed0565b5b9060005260206000200154600360008873ffffffffffffffffffffffffffffffffffffffff1673ffffffffffffffffffffffffffffffffffffffff1681526020019081526020016000206000878152602001908152602001600020600401848154811061065f5761065e610ed0565b5b90600052602060002001549150915094509492505050565b6001600260008673ffffffffffffffffffffffffffffffffffffffff1673ffffffffffffffffffffffffffffffffffffffff168152602001908152602001600020805490506106c69190610e1f565b831115610708576040517f08c379a00000000000000000000000000000000000000000000000000000000081526004016106ff90610eb0565b60405180910390fd5b60005b600360008673ffffffffffffffffffffffffffffffffffffffff1673ffffffffffffffffffffffffffffffffffffffff16815260200190815260200160002060008581526020019081526020016000206003018054905081101561088657600454600360008773ffffffffffffffffffffffffffffffffffffffff1673ffffffffffffffffffffffffffffffffffffffff168152602001908152602001600020600086815260200190815260200160002060030182815481106107d1576107d0610ed0565b5b9060005260206000200181905550600554600360008773ffffffffffffffffffffffffffffffffffffffff1673ffffffffffffffffffffffffffffffffffffffff1681526020019081526020016000206000868152602001908152602001600020600401828154811061084757610846610ed0565b5b906000526020600020018190555060045482111561086457600080fd5b60055483101561087357600080fd5b808061087e90610eff565b91505061070b565b5083600360008673ffffffffffffffffffffffffffffffffffffffff1673ffffffffffffffffffffffffffffffffffffffff168152602001908152602001600020600085815260200190815260200160002060000160006101000a81548173ffffffffffffffffffffffffffffffffffffffff021916908373ffffffffffffffffffffffffffffffffffffffff16021790555082600360008673ffffffffffffffffffffffffffffffffffffffff1673ffffffffffffffffffffffffffffffffffffffff16815260200190815260200160002060008581526020019081526020016000206001018190555033600360008673ffffffffffffffffffffffffffffffffffffffff1673ffffffffffffffffffffffffffffffffffffffff168152602001908152602001600020600085815260200190815260200160002060020160006101000a81548173ffffffffffffffffffffffffffffffffffffffff021916908373ffffffffffffffffffffffffffffffffffffffff160217905550600360008573ffffffffffffffffffffffffffffffffffffffff1673ffffffffffffffffffffffffffffffffffffffff1681526020019081526020016000206000848152602001908152602001600020600301829080600181540180825580915050600190039060005260206000200160009091909190915055600360008573ffffffffffffffffffffffffffffffffffffffff1673ffffffffffffffffffffffffffffffffffffffff168152602001908152602001600020600084815260200190815260200160002060040181908060018154018082558091505060019003906000526020600020016000909190919091505550505050565b6000600260008373ffffffffffffffffffffffffffffffffffffffff1673ffffffffffffffffffffffffffffffffffffffff168152602001908152602001600020805490509050919050565b6000819050919050565b610b5c81610b49565b82525050565b6000602082019050610b776000830184610b53565b92915050565b600080fd5b610b8b81610b49565b8114610b9657600080fd5b50565b600081359050610ba881610b82565b92915050565b600080600060608486031215610bc757610bc6610b7d565b5b6000610bd586828701610b99565b9350506020610be686828701610b99565b9250506040610bf786828701610b99565b9150509250925092565b60008060408385031215610c1857610c17610b7d565b5b6000610c2685828601610b99565b9250506020610c3785828601610b99565b9150509250929050565b600073ffffffffffffffffffffffffffffffffffffffff82169050919050565b6000610c6c82610c41565b9050919050565b610c7c81610c61565b8114610c8757600080fd5b50565b600081359050610c9981610c73565b92915050565b60008060408385031215610cb657610cb5610b7d565b5b6000610cc485828601610c8a565b9250506020610cd585828601610b99565b9150509250929050565b610ce881610c61565b82525050565b6000608082019050610d036000830187610cdf565b610d106020830186610b53565b610d1d6040830185610b53565b610d2a6060830184610b53565b95945050505050565b60008060008060808587031215610d4d57610d4c610b7d565b5b6000610d5b87828801610c8a565b9450506020610d6c87828801610b99565b9350506040610d7d87828801610b99565b9250506060610d8e87828801610b99565b91505092959194509250565b6000604082019050610daf6000830185610b53565b610dbc6020830184610b53565b9392505050565b600060208284031215610dd957610dd8610b7d565b5b6000610de784828501610c8a565b91505092915050565b7f4e487b7100000000000000000000000000000000000000000000000000000000600052601160045260246000fd5b6000610e2a82610b49565b9150610e3583610b49565b925082821015610e4857610e47610df0565b5b828203905092915050565b600082825260208201905092915050565b7f4944206e6f7420666f756e640000000000000000000000000000000000000000600082015250565b6000610e9a600c83610e53565b9150610ea582610e64565b602082019050919050565b60006020820190508181036000830152610ec981610e8d565b9050919050565b7f4e487b7100000000000000000000000000000000000000000000000000000000600052603260045260246000fd5b6000610f0a82610b49565b91507fffffffffffffffffffffffffffffffffffffffffffffffffffffffffffffffff821415610f3d57610f3c610df0565b5b60018201905091905056fea2646970667358221220f73ca0815c7e3fdad5dc44b121d5ea1e62738f5b1db71b1dc1920bfa932db8d964736f6c634300080a0033",
  "immutableReferences": {},
  "source": "// SPDX-License-Identifier: MIT\npragma solidity >=0.7.0 <0.9.0;\n/// @title property listing and rental contract \ncontract structMap {\n\n    struct map1 {\n        \n        address owner;\n        uint256 id;\n\n        uint256 val1;\n        uint256 val2;\n\n    }\n    \n    \n    struct map2 {\n        \n        address owner;\n        uint256 id;\n        \n        address renter;\n\n        uint256[] t1;\n        uint256[] t2;\n    \n    }\n    \n\n\n    uint256 private ID;\n\n\n    mapping(address => mapping (uint256 => map1)) public structure1;\n\n\n    mapping(address => uint256[]) private listmapping;\n    \n    \n    mapping(address => mapping (uint256 => map2)) private rentals;\n    \n\n\n    function setVal(uint256 val1, uint256 val2, uint256 id) public {\n        \n        require(id <= (listmapping[msg.sender].length - 1), \"ID not found\");\n\n        structure1[msg.sender][id].val1 = val1;\n        structure1[msg.sender][id].val2 = val2;\n\n    }\n    \n    \n    function newMap(uint256 val1, uint256 val2) public {\n        \n        ID = listmapping[msg.sender].length;\n        \n        structure1[msg.sender][ID].owner = msg.sender;\n        structure1[msg.sender][ID].id = ID;\n        \n        structure1[msg.sender][ID].val1 = val1;\n        structure1[msg.sender][ID].val2 = val2;\n        \n        listmapping[msg.sender].push(1);\n\n    }\n\n\n\n    function viewValListLength(address owner) public view returns (uint) {\n\n        return listmapping[owner].length;\n\n    }\n    \n    \n    \n     function Time_call() public view returns (uint256){\n        return block.timestamp; \n    }\n    \n    \n    function viewRentals(address owner, uint256 id, uint256 t1, uint256 t2) public view returns (uint256, uint256) {\n    \n            return (rentals[owner][id].t1[t1], rentals[owner][id].t2[t2]);\n            \n    }\n\n        \n    \n    \n    //// (EndA <= StartB or StartA >= EndB)\n    \n    \n    uint256 private start;\n    uint256 private end;\n    \n    \n    function rent(address owner, uint256 id, uint256 t1, uint256 t2) public {\n    \n        require(id <= (listmapping[owner].length - 1), \"ID not found\");\n        \n        for (uint i=0; i<rentals[owner][id].t1.length; i++) {\n            \n            rentals[owner][id].t1[i] = start;\n            rentals[owner][id].t2[i] = end;\n            \n            require(t2 <= start);\n            require(t1 >= end);\n        }\n        \n    \n        rentals[owner][id].owner = owner;\n        rentals[owner][id].id = id;\n        \n        rentals[owner][id].renter = msg.sender;\n        \n        \n        rentals[owner][id].t1.push(t1);\n        rentals[owner][id].t2.push(t2);\n        \n\n    }\n    \n\n\n}",
  "sourcePath": "/home/ubuntu/Desktop/dev/blockchainBnB/contracts/maptest.sol",
  "compiler": {
    "name": "solc",
    "version": "0.8.10+commit.fc410830.Emscripten.clang"
  },
  "schemaVersion": "3.4.3",
  "updatedAt": "2021-11-16T15:15:39.470Z",
  "devdoc": {
    "kind": "dev",
    "methods": {},
    "title": "property listing and rental contract ",
    "version": 1
  },
  "userdoc": {
    "kind": "user",
    "methods": {},
    "version": 1
  }
}