{
  "contractName": "structMap",
  "abi": [
    {
      "inputs": [
        {
          "internalType": "address",
          "name": "",
          "type": "address"
        },
        {
          "internalType": "uint256",
          "name": "",
          "type": "uint256"
        }
      ],
      "name": "structure1",
      "outputs": [
        {
          "internalType": "address",
          "name": "owner",
          "type": "address"
        },
        {
          "internalType": "uint256",
          "name": "id",
          "type": "uint256"
        },
        {
          "internalType": "uint256",
          "name": "val1",
          "type": "uint256"
        },
        {
          "internalType": "uint256",
          "name": "val2",
          "type": "uint256"
        }
      ],
      "stateMutability": "view",
      "type": "function"
    },
    {
      "inputs": [
        {
          "internalType": "uint256",
          "name": "val1",
          "type": "uint256"
        },
        {
          "internalType": "uint256",
          "name": "val2",
          "type": "uint256"
        },
        {
          "internalType": "uint256",
          "name": "id",
          "type": "uint256"
        }
      ],
      "name": "setVal",
      "outputs": [],
      "stateMutability": "nonpayable",
      "type": "function"
    },
    {
      "inputs": [
        {
          "internalType": "uint256",
          "name": "val1",
          "type": "uint256"
        },
        {
          "internalType": "uint256",
          "name": "val2",
          "type": "uint256"
        }
      ],
      "name": "newMap",
      "outputs": [],
      "stateMutability": "nonpayable",
      "type": "function"
    },
    {
      "inputs": [
        {
          "internalType": "address",
          "name": "owner",
          "type": "address"
        }
      ],
      "name": "viewValListLength",
      "outputs": [
        {
          "internalType": "uint256",
          "name": "",
          "type": "uint256"
        }
      ],
      "stateMutability": "view",
      "type": "function"
    },
    {
      "inputs": [],
      "name": "Time_call",
      "outputs": [
        {
          "internalType": "uint256",
          "name": "",
          "type": "uint256"
        }
      ],
      "stateMutability": "view",
      "type": "function"
    },
    {
      "inputs": [
        {
          "internalType": "address",
          "name": "owner",
          "type": "address"
        },
        {
          "internalType": "uint256",
          "name": "id",
          "type": "uint256"
        },
        {
          "internalType": "uint256",
          "name": "t1",
          "type": "uint256"
        },
        {
          "internalType": "uint256",
          "name": "t2",
          "type": "uint256"
        }
      ],
      "name": "viewRentals",
      "outputs": [
        {
          "internalType": "uint256",
          "name": "",
          "type": "uint256"
        },
        {
          "internalType": "uint256",
          "name": "",
          "type": "uint256"
        }
      ],
      "stateMutability": "view",
      "type": "function"
    },
    {
      "inputs": [
        {
          "internalType": "address",
          "name": "owner",
          "type": "address"
        },
        {
          "internalType": "uint256",
          "name": "id",
          "type": "uint256"
        },
        {
          "internalType": "uint256",
          "name": "t1",
          "type": "uint256"
        },
        {
          "internalType": "uint256",
          "name": "t2",
          "type": "uint256"
        }
      ],
      "name": "rent",
      "outputs": [],
      "stateMutability": "nonpayable",
      "type": "function"
    },
    {
      "inputs": [
        {
          "internalType": "address",
          "name": "owner",
          "type": "address"
        },
        {
          "internalType": "uint256",
          "name": "id",
          "type": "uint256"
        },
        {
          "internalType": "uint256",
          "name": "t1",
          "type": "uint256"
        },
        {
          "internalType": "uint256",
          "name": "t2",
          "type": "uint256"
        }
      ],
      "name": "addRentalTest",
      "outputs": [],
      "stateMutability": "nonpayable",
      "type": "function"
    }
  ],
  "bytecode": "0x608060405234801561001057600080fd5b506110a4806100206000396000f3fe608060405234801561001057600080fd5b50600436106100885760003560e01c806365c1ae2c1161005b57806365c1ae2c146100ff5780637b4b00d01461013257806388369ad714610163578063b7c696381461017f57610088565b8063032610301461008d57806304ee0a3d146100ab5780631327afdb146100c757806356c80308146100e3575b600080fd5b6100956101af565b6040516100a29190610c88565b60405180910390f35b6100c560048036038101906100c09190610d32565b6101b7565b005b6100e160048036038101906100dc9190610d99565b6102b1565b005b6100fd60048036038101906100f89190610dec565b6103f7565b005b61011960048036038101906101149190610e2c565b61064b565b6040516101299493929190610e7b565b60405180910390f35b61014c60048036038101906101479190610d32565b6106a8565b60405161015a929190610ec0565b60405180910390f35b61017d60048036038101906101789190610d32565b610798565b005b61019960048036038101906101949190610ee9565b610c23565b6040516101a69190610c88565b60405180910390f35b600042905090565b600360008573ffffffffffffffffffffffffffffffffffffffff1673ffffffffffffffffffffffffffffffffffffffff1681526020019081526020016000206000848152602001908152602001600020600301829080600181540180825580915050600190039060005260206000200160009091909190915055600360008573ffffffffffffffffffffffffffffffffffffffff1673ffffffffffffffffffffffffffffffffffffffff168152602001908152602001600020600084815260200190815260200160002060040181908060018154018082558091505060019003906000526020600020016000909190919091505550505050565b6001600260003373ffffffffffffffffffffffffffffffffffffffff1673ffffffffffffffffffffffffffffffffffffffff168152602001908152602001600020805490506103009190610f45565b811115610342576040517f08c379a000000000000000000000000000000000000000000000000000000000815260040161033990610fd6565b60405180910390fd5b82600160003373ffffffffffffffffffffffffffffffffffffffff1673ffffffffffffffffffffffffffffffffffffffff16815260200190815260200160002060008381526020019081526020016000206002018190555081600160003373ffffffffffffffffffffffffffffffffffffffff1673ffffffffffffffffffffffffffffffffffffffff168152602001908152602001600020600083815260200190815260200160002060030181905550505050565b600260003373ffffffffffffffffffffffffffffffffffffffff1673ffffffffffffffffffffffffffffffffffffffff1681526020019081526020016000208054905060008190555033600160003373ffffffffffffffffffffffffffffffffffffffff1673ffffffffffffffffffffffffffffffffffffffff16815260200190815260200160002060008054815260200190815260200160002060000160006101000a81548173ffffffffffffffffffffffffffffffffffffffff021916908373ffffffffffffffffffffffffffffffffffffffff160217905550600054600160003373ffffffffffffffffffffffffffffffffffffffff1673ffffffffffffffffffffffffffffffffffffffff1681526020019081526020016000206000805481526020019081526020016000206001018190555081600160003373ffffffffffffffffffffffffffffffffffffffff1673ffffffffffffffffffffffffffffffffffffffff1681526020019081526020016000206000805481526020019081526020016000206002018190555080600160003373ffffffffffffffffffffffffffffffffffffffff1673ffffffffffffffffffffffffffffffffffffffff16815260200190815260200160002060008054815260200190815260200160002060030181905550600260003373ffffffffffffffffffffffffffffffffffffffff1673ffffffffffffffffffffffffffffffffffffffff168152602001908152602001600020600190806001815401808255809150506001900390600052602060002001600090919091909150555050565b6001602052816000526040600020602052806000526040600020600091509150508060000160009054906101000a900473ffffffffffffffffffffffffffffffffffffffff16908060010154908060020154908060030154905084565b600080600360008773ffffffffffffffffffffffffffffffffffffffff1673ffffffffffffffffffffffffffffffffffffffff168152602001908152602001600020600086815260200190815260200160002060030184815481106107105761070f610ff6565b5b9060005260206000200154600360008873ffffffffffffffffffffffffffffffffffffffff1673ffffffffffffffffffffffffffffffffffffffff168152602001908152602001600020600087815260200190815260200160002060040184815481106107805761077f610ff6565b5b90600052602060002001549150915094509492505050565b6001600260008673ffffffffffffffffffffffffffffffffffffffff1673ffffffffffffffffffffffffffffffffffffffff168152602001908152602001600020805490506107e79190610f45565b831115610829576040517f08c379a000000000000000000000000000000000000000000000000000000000815260040161082090610fd6565b60405180910390fd5b60005b600360008673ffffffffffffffffffffffffffffffffffffffff1673ffffffffffffffffffffffffffffffffffffffff1681526020019081526020016000206000858152602001908152602001600020600301805490508110156109ac57600360008673ffffffffffffffffffffffffffffffffffffffff1673ffffffffffffffffffffffffffffffffffffffff168152602001908152602001600020600085815260200190815260200160002060030181815481106108ef576108ee610ff6565b5b9060005260206000200154600481905550600360008673ffffffffffffffffffffffffffffffffffffffff1673ffffffffffffffffffffffffffffffffffffffff1681526020019081526020016000206000858152602001908152602001600020600401818154811061096557610964610ff6565b5b9060005260206000200154600581905550600115158360055411158061098d57508260045410155b15151461099957600080fd5b80806109a490611025565b91505061082c565b5083600360008673ffffffffffffffffffffffffffffffffffffffff1673ffffffffffffffffffffffffffffffffffffffff168152602001908152602001600020600085815260200190815260200160002060000160006101000a81548173ffffffffffffffffffffffffffffffffffffffff021916908373ffffffffffffffffffffffffffffffffffffffff16021790555082600360008673ffffffffffffffffffffffffffffffffffffffff1673ffffffffffffffffffffffffffffffffffffffff16815260200190815260200160002060008581526020019081526020016000206001018190555033600360008673ffffffffffffffffffffffffffffffffffffffff1673ffffffffffffffffffffffffffffffffffffffff168152602001908152602001600020600085815260200190815260200160002060020160006101000a81548173ffffffffffffffffffffffffffffffffffffffff021916908373ffffffffffffffffffffffffffffffffffffffff160217905550600360008573ffffffffffffffffffffffffffffffffffffffff1673ffffffffffffffffffffffffffffffffffffffff1681526020019081526020016000206000848152602001908152602001600020600301829080600181540180825580915050600190039060005260206000200160009091909190915055600360008573ffffffffffffffffffffffffffffffffffffffff1673ffffffffffffffffffffffffffffffffffffffff168152602001908152602001600020600084815260200190815260200160002060040181908060018154018082558091505060019003906000526020600020016000909190919091505550505050565b6000600260008373ffffffffffffffffffffffffffffffffffffffff1673ffffffffffffffffffffffffffffffffffffffff168152602001908152602001600020805490509050919050565b6000819050919050565b610c8281610c6f565b82525050565b6000602082019050610c9d6000830184610c79565b92915050565b600080fd5b600073ffffffffffffffffffffffffffffffffffffffff82169050919050565b6000610cd382610ca8565b9050919050565b610ce381610cc8565b8114610cee57600080fd5b50565b600081359050610d0081610cda565b92915050565b610d0f81610c6f565b8114610d1a57600080fd5b50565b600081359050610d2c81610d06565b92915050565b60008060008060808587031215610d4c57610d4b610ca3565b5b6000610d5a87828801610cf1565b9450506020610d6b87828801610d1d565b9350506040610d7c87828801610d1d565b9250506060610d8d87828801610d1d565b91505092959194509250565b600080600060608486031215610db257610db1610ca3565b5b6000610dc086828701610d1d565b9350506020610dd186828701610d1d565b9250506040610de286828701610d1d565b9150509250925092565b60008060408385031215610e0357610e02610ca3565b5b6000610e1185828601610d1d565b9250506020610e2285828601610d1d565b9150509250929050565b60008060408385031215610e4357610e42610ca3565b5b6000610e5185828601610cf1565b9250506020610e6285828601610d1d565b9150509250929050565b610e7581610cc8565b82525050565b6000608082019050610e906000830187610e6c565b610e9d6020830186610c79565b610eaa6040830185610c79565b610eb76060830184610c79565b95945050505050565b6000604082019050610ed56000830185610c79565b610ee26020830184610c79565b9392505050565b600060208284031215610eff57610efe610ca3565b5b6000610f0d84828501610cf1565b91505092915050565b7f4e487b7100000000000000000000000000000000000000000000000000000000600052601160045260246000fd5b6000610f5082610c6f565b9150610f5b83610c6f565b925082821015610f6e57610f6d610f16565b5b828203905092915050565b600082825260208201905092915050565b7f4944206e6f7420666f756e640000000000000000000000000000000000000000600082015250565b6000610fc0600c83610f79565b9150610fcb82610f8a565b602082019050919050565b60006020820190508181036000830152610fef81610fb3565b9050919050565b7f4e487b7100000000000000000000000000000000000000000000000000000000600052603260045260246000fd5b600061103082610c6f565b91507fffffffffffffffffffffffffffffffffffffffffffffffffffffffffffffffff82141561106357611062610f16565b5b60018201905091905056fea2646970667358221220a6670807fe734065afdb47b5881589abb2795f3ffaad157a4d8bfab589fa24a864736f6c634300080a0033",
  "immutableReferences": {},
  "source": "// SPDX-License-Identifier: MIT\npragma solidity >=0.7.0 <0.9.0;\n/// @title property listing and rental contract \ncontract structMap {\n\n    struct map1 {\n        \n        address owner;\n        uint256 id;\n\n        uint256 val1;\n        uint256 val2;\n\n    }\n    \n    \n    struct map2 {\n        \n        address owner;\n        uint256 id;\n        \n        address renter;\n\n        uint256[] t1;\n        uint256[] t2;\n    \n    }\n    \n\n    uint256 private ID;\n\n\n    mapping(address => mapping (uint256 => map1)) public structure1;\n\n\n    mapping(address => uint256[]) private listmapping;\n    \n    \n    mapping(address => mapping (uint256 => map2)) private rentals;\n    \n\n\n    function setVal(uint256 val1, uint256 val2, uint256 id) public {\n        \n        require(id <= (listmapping[msg.sender].length - 1), \"ID not found\");\n\n        structure1[msg.sender][id].val1 = val1;\n        structure1[msg.sender][id].val2 = val2;\n\n    }\n    \n    \n    function newMap(uint256 val1, uint256 val2) public {\n        \n        ID = listmapping[msg.sender].length;\n        \n        structure1[msg.sender][ID].owner = msg.sender;\n        structure1[msg.sender][ID].id = ID;\n        \n        structure1[msg.sender][ID].val1 = val1;\n        structure1[msg.sender][ID].val2 = val2;\n        \n        listmapping[msg.sender].push(1);\n\n    }\n\n\n\n    function viewValListLength(address owner) public view returns (uint) {\n\n        return listmapping[owner].length;\n\n    }\n    \n    \n    \n     function Time_call() public view returns (uint256){\n        return block.timestamp; \n    }\n    \n    \n    function viewRentals(address owner, uint256 id, uint256 t1, uint256 t2) public view returns (uint256, uint256) {\n    \n            return (rentals[owner][id].t1[t1], rentals[owner][id].t2[t2]);\n            \n    }\n\n        \n    \n    \n    //// (EndA <= StartB or StartA >= EndB) https://www.soliantconsulting.com/blog/determining-two-date-ranges-overlap/\n    \n    \n    uint256 private start;\n    uint256 private end;\n    \n\n    function rent(address owner, uint256 id, uint256 t1, uint256 t2) public {\n    \n        require(id <= (listmapping[owner].length - 1), \"ID not found\");\n        \n        // there may be a computationally more efficient way of doing this\n        for (uint i=0; i<rentals[owner][id].t1.length; i++) {\n            \n            start = rentals[owner][id].t1[i];\n            end = rentals[owner][id].t2[i];\n        \n            require((end <= t1 || start >= t2) == true);\n\n        }\n        \n    \n        rentals[owner][id].owner = owner;\n        rentals[owner][id].id = id;\n        \n        rentals[owner][id].renter = msg.sender;\n        \n        rentals[owner][id].t1.push(t1);\n        rentals[owner][id].t2.push(t2);\n        \n    }\n    \n    \n    function addRentalTest(address owner, uint256 id, uint256 t1, uint256 t2) public {\n        \n        rentals[owner][id].t1.push(t1);\n        rentals[owner][id].t2.push(t2);\n    }\n    \n\n}",
  "sourcePath": "/home/ubuntu/Desktop/dev/blockchainBnB/contracts/maptest.sol",
  "compiler": {
    "name": "solc",
    "version": "0.8.10+commit.fc410830.Emscripten.clang"
  },
  "schemaVersion": "3.4.3",
  "updatedAt": "2021-11-16T17:31:07.561Z",
  "devdoc": {
    "kind": "dev",
    "methods": {},
    "title": "property listing and rental contract ",
    "version": 1
  },
  "userdoc": {
    "kind": "user",
    "methods": {},
    "version": 1
  }
}