{
  "contractName": "structMap",
  "abi": [
    {
      "inputs": [
        {
          "internalType": "address",
          "name": "",
          "type": "address"
        },
        {
          "internalType": "uint256",
          "name": "",
          "type": "uint256"
        }
      ],
      "name": "structure1",
      "outputs": [
        {
          "internalType": "uint256",
          "name": "val1",
          "type": "uint256"
        },
        {
          "internalType": "uint256",
          "name": "val2",
          "type": "uint256"
        }
      ],
      "stateMutability": "view",
      "type": "function"
    },
    {
      "inputs": [
        {
          "internalType": "uint256",
          "name": "val1",
          "type": "uint256"
        },
        {
          "internalType": "uint256",
          "name": "val2",
          "type": "uint256"
        }
      ],
      "name": "setVal",
      "outputs": [],
      "stateMutability": "nonpayable",
      "type": "function"
    }
  ],
  "bytecode": "0x608060405234801561001057600080fd5b506102f2806100206000396000f3fe608060405234801561001057600080fd5b50600436106100365760003560e01c80634fb7559b1461003b57806365c1ae2c14610057575b600080fd5b610055600480360381019061005091906101a6565b610088565b005b610071600480360381019061006c9190610244565b61013a565b60405161007f929190610293565b60405180910390f35b816000803373ffffffffffffffffffffffffffffffffffffffff1673ffffffffffffffffffffffffffffffffffffffff168152602001908152602001600020600080815260200190815260200160002060000181905550806000803373ffffffffffffffffffffffffffffffffffffffff1673ffffffffffffffffffffffffffffffffffffffff1681526020019081526020016000206000808152602001908152602001600020600001819055505050565b6000602052816000526040600020602052806000526040600020600091509150508060000154908060010154905082565b600080fd5b6000819050919050565b61018381610170565b811461018e57600080fd5b50565b6000813590506101a08161017a565b92915050565b600080604083850312156101bd576101bc61016b565b5b60006101cb85828601610191565b92505060206101dc85828601610191565b9150509250929050565b600073ffffffffffffffffffffffffffffffffffffffff82169050919050565b6000610211826101e6565b9050919050565b61022181610206565b811461022c57600080fd5b50565b60008135905061023e81610218565b92915050565b6000806040838503121561025b5761025a61016b565b5b60006102698582860161022f565b925050602061027a85828601610191565b9150509250929050565b61028d81610170565b82525050565b60006040820190506102a86000830185610284565b6102b56020830184610284565b939250505056fea264697066735822122009800cf0ae55f7479edcdf3bf82ecf6185e7bcbabc3142e1d8acd01607c7c7eb64736f6c634300080a0033",
  "immutableReferences": {},
  "source": "// SPDX-License-Identifier: MIT\npragma solidity >=0.7.0 <0.9.0;\n/// @title property listing and rental contract \ncontract structMap {\n\n    struct map1 {\n\n        uint256 val1;\n        uint256 val2;\n\n    }\n\n    struct map2 {\n\n        uint256 val1;\n        uint256 val2;\n\n    }\n\n\n    mapping(address => mapping (uint256 => map1)) public structure1;\n\n\n\n    function setVal(uint256 val1, uint256 val2) public {\n\n        structure1[msg.sender][0].val1 = val1;\n        structure1[msg.sender][0].val1 = val2;\n\n    }\n}",
  "sourcePath": "/home/ubuntu/Desktop/dev/blockchainBnB/contracts/maptest.sol",
  "compiler": {
    "name": "solc",
    "version": "0.8.10+commit.fc410830.Emscripten.clang"
  },
  "schemaVersion": "3.4.3",
  "updatedAt": "2021-11-16T12:23:42.817Z",
  "devdoc": {
    "kind": "dev",
    "methods": {},
    "title": "property listing and rental contract ",
    "version": 1
  },
  "userdoc": {
    "kind": "user",
    "methods": {},
    "version": 1
  }
}